:020000040800F2
:1000000048310020450100086D4F00086F4F00087F
:10001000794F00087D4F0008814F00080000000064
:10002000000000000000000000000000854F0008F4
:10003000874F000800000000894F00088B4F000820
:100040000B3500085F0100085F0100085F01000830
:100050005F0100085F0100085F0100085F01000800
:100060005F0100085F0100085F010008CF3C000845
:100070005F010008F34F00085F0100085F010008FE
:100080005F0100085F0100085F0100085F010008D0
:10009000134300085F0100085F0100085F010008CA
:1000A0005F0100085F0100085F0100085F010008B0
:1000B0005F0100085F010008353F00085F0100088C
:1000C0005F0100085F0100085F0100085F01000890
:1000D0005F0100088B3500085F0100085F01000820
:1000E0005F0100085F0100085F0100085F01000870
:1000F0005F0100085F0100085F0100085F01000860
:100100005F01000847B100085F0100085F010008B7
:100110005F0100085F0100085F0100085F0100083F
:100120005F0100085F0100085F0100085F0100082F
:10013000DFF80CD00FF03CFC00480047AB4B000848
:10014000483100200648804706480047FEE7FEE7A2
:10015000FEE7FEE7FEE7FEE7FEE7FEE7FEE7FEE777
:1001600045020008310100080CB500200190009004
:100170006B48006840F480306949086000BF6848F7
:10018000006800F4003000900198401C0190009835
:1001900018B90198B0F5A06FF1D16148006810F46A
:1001A000003F02D00120009001E000200090009864
:1001B000012842D15B48006840F0100059490860AE
:1001C0000846006820F0030008600846006840F018
:1001D000020008605248406851494860084640683B
:1001E00048600846406840F48060486008464068BF
:1001F00020F47C1048600846406840F4E8104860ED
:100200000846006840F08070086000BF44480068FD
:1002100010F0007FFAD04248406820F003004049C7
:1002200048600846406840F00200486000BF3C4813
:10023000406800F00C000828F9D10CBD10B5FFF79C
:1002400093FF10BD10B53648006840F001003449F6
:10025000086008464068344908403149486008460B
:100260000068324908402E4908600846006820F4BA
:10027000802008600846406820F4FE0048604FF483
:100280001F008860FFF7DAFF4FF000602849086020
:1002900010BD10B5002100200022214B5B6803F047
:1002A0000C0121B1042906D0082928D107E0214BEF
:1002B000214C236027E01F4B1F4C236023E0184B89
:1002C0005B6803F47010164B5B6803F48032022302
:1002D00003EB904022B9194B4343174C23600DE0C8
:1002E0000F4B5B6813F4003F04D0144B4343124C94
:1002F000236003E00F4B43430F4C236003E00D4B9F
:100300000D4C236000BF00BF054B5B68C3F30313B4
:100310000B4CE15C084B1B68CB40074C236010BDC5
:1003200000100240002002400000FFF8FFFFF6FE30
:1003300008ED00E000127A000000002000093D00F6
:100340000400002031490143314A1160704770B503
:10035000002100230F22C4780CB32D4C246804F430
:10036000E064C4F5E064210AC1F10403CA404478A2
:1003700004FA03F18478144021430901254C0678DE
:10038000A155047804F01F050124AC4005786D11D7
:100390004FF0E02606EB8505C5F8004109E004783A
:1003A00004F01F050124AC401B4D0678761145F87A
:1003B000264070BD194A0A400243154B1B1F1A60A4
:1003C000704739B1124A121D12680243104B1B1DAF
:1003D0001A6006E00E4A121D126882430C4B1B1D68
:1003E0001A607047042808D14FF0E021096941F0F4
:1003F00004014FF0E022116107E04FF0E0210969AC
:1004000021F004014FF0E022116170470000FA056D
:100410000CED00E000E400E080E100E080FFFF1F61
:1004200010B50446FA48844208D10121401501F074
:100430008DFB0021601501F089FB17E0F54884422F
:1004400008D10121001501F081FB0021201501F0E8
:100450007DFB0BE0F048844208D10121C80301F084
:1004600075FB00214FF4004001F070FB10BD30B56A
:100470000246002000235068E84C20400D790C68AB
:1004800044EA0524204350609068E54C2040D1E9BF
:1004900002542C434D7944EA450420439060D06ACD
:1004A00020F470000C7C641EE4B2234340EA035045
:1004B000D06230BD00210160017141718160C16075
:1004C00001210174704721B1826842F0010282600B
:1004D00003E0826822F001028260704721B18268E5
:1004E00042F48072826003E0826822F4807282604B
:1004F000704710B50023CBB21AB144681C43446066
:1005000002E044689C43446010BD816841F00801EA
:1005100081607047014600208A6812F0080F01D000
:10052000012000E000207047816841F004018160F3
:100530007047014600208A6812F0040F01D00120A4
:1005400000E00020704721B1826842F4A00282607E
:1005500003E0826822F4A002826070470146002016
:100560008A6812F4800F01D0012000E0002070475B
:1005700010B50A4600210023416821F46041531E52
:1005800041EA4331416010BD21B1426842F400624A
:10059000426003E0426822F4006242607047F0B5B6
:1005A00004460D4600200021092D11DDE068A5F16B
:1005B0000A0606EB4607072606FA07F18843A5F167
:1005C0000A0606EB460603FA06F10843E0600CE073
:1005D000206905EB4507072606FA07F1884305EB76
:1005E000450603FA06F108432061072A0FDA606B1B
:1005F000561E06EB86071F2606FA07F18843561E8D
:1006000006EB860605FA06F10843606322E00D2A30
:100610000FDA206BD61F06EB86071F2606FA07F1B6
:100620008843D61F06EB860605FA06F108432063C9
:1006300010E0E06AA2F10D0606EB86071F2606FA17
:1006400007F18843A2F10D0606EB860605FA06F1CE
:100650000843E062F0BD21B1826842F480128260FA
:1006600003E0826822F48012826070470146C86C01
:1006700080B2704766484C300068704721B14268CC
:1006800042F48062426003E0426822F48062426089
:10069000704721B1426842F48052426003E04268F0
:1006A00022F48052426070470A460021816821F49A
:1006B000E04111438160704721B1826842F40042F9
:1006C000826003E0826822F400428260704721B1B8
:1006D000826842F40212826003E0826822F402120D
:1006E00082607047014600208A6812F4001F01D022
:1006F000012000E000207047F0B5044615460020B8
:1007000000220026092911DDE068A1F10A0707EBA4
:10071000470C072707FA0CF29043A1F10A0707EBF1
:10072000470703FA07F21043E0600CE0206901EB91
:10073000410C072707FA0CF2904301EB410703FA3B
:1007400007F210432061A06BC0F30156EF1C06F1C5
:10075000010CA7EB0C0707EB870C1F2707FA0CF21D
:100760009043EF1C06F1010CA7EB0C0707EB870782
:1007700001FA07F21043A063F0BD10B50A4600214C
:100780000023816B21F44011531E41EA0351816320
:1007900010BD08B5002300930090009B0B4400930C
:1007A000009B1A6008BD08B5024600200090009228
:1007B00001F12800009B184400900098006880B266
:1007C00008BD0A4600214168164B1940114341609B
:1007D00070474162826270470A460021416821F0F9
:1007E0001F0111434160704740B109490831096850
:1007F00041F40001064A0832116007E0044908315B
:10080000096821F40001024A0832116070470000B3
:100810000024014000280140003C0140FFFEF0FFA1
:10082000FDF7F1FFFFFD3FFF0246002013680B427A
:1008300001D0012000E000207047CA4302607047E9
:1008400070B502460020002300240B125568CEB27A
:1008500005EA060415681D4202D00CB1012000E033
:10086000002070BD00220A12D343036070470000CD
:1008700010B50446FE48844209D10121480601F022
:1008800072F900214FF0007001F06DF908E00121CC
:10089000880601F068F900214FF0806001F063F9EB
:1008A00010BD30B5024600200023146824F0020475
:1008B0001460146844F00104146000E05B1C546888
:1008C00014F0010F03D1A3F57F44FF3CF6D1546827
:1008D00014F0010F01D100206CE08C79012C04D1BF
:1008E000146844F08004146003E0146824F0800469
:1008F0001460CC79012C04D1146844F040041460D5
:1009000003E0146824F0400414600C7A012C04D134
:10091000146844F02004146003E0146824F02004F8
:1009200014604C7A012C04D1146844F01004146053
:1009300003E0146824F0100414608C7A012C04D1B4
:10094000146844F00804146003E0146824F00804F8
:100950001460CC7A012C04D1146844F004041460AF
:1009600003E0146824F0040414608C78A407CD78A4
:1009700044EA05640D7944EA05444D7944EA055496
:100980000D886D1E2C43D461146824F0010414609A
:10099000002300E05B1C546814F0010F03D0A3F5A2
:1009A0007F44FF3CF6D1546814F0010F01D00020C1
:1009B00000E0012030BD10B50021837A012202FA47
:1009C00003F1AC4A126842F00102AA4B1A60A94A2C
:1009D0001C3212688A43A74B1C331A60027BCAB9C7
:1009E000A44A0C3212688A43A24B0C331A60428824
:1009F000C38842EA03439F4A4032847A42F8343043
:100A00000288838842EA03439A4A4032847A02EB9E
:100A1000C4025360027B012A19D1964A0C32126833
:100A20000A43944B0C331A604288038842EA03431A
:100A3000904A4032847A42F83430C288838842EA4D
:100A400003438C4A4032847A02EBC4025360C27A78
:100A50003AB9884A121D12688A43864B1B1D1A60D8
:100A600006E0844A121D12680A43824B1B1D1A605D
:100A7000028932B97F4A143212688A437D4B14339B
:100A80001A600289012A06D17A4A143212680A438E
:100A9000784B14331A60427B012A06D1754A1C3206
:100AA00012680A43734B1C331A60724A126822F0B0
:100AB0000102704B1A6010BD00218171C171017279
:100AC00041728172C1728170C17003210171022172
:100AD00041710121018070476649096841F00101B7
:100AE000644A11601146096843F60E729143614AE7
:100AF00011601146096841EA002111601146096838
:100B000021F001011160704721B1026842F4803286
:100B1000026003E0026822F4803202607047E1B1B3
:100B2000026842F0800202604FF4C272125842F42E
:100B300080734FF4C27213504FF4CA72125842F4C9
:100B400080734FF4CA7213504FF4D272125842F4A9
:100B500080734FF4D27213501BE0026822F08002BF
:100B600002604FF4C272125822F480734FF4C272C2
:100B700013504FF4CA72125822F480734FF4CA72A1
:100B800013504FF4D272125822F480734FF4D27281
:100B90001350704710B502460020936803F080633D
:100BA000B3F1806F00D110E0936803F00063B3F1FC
:100BB000006F01D1012008E0936803F08053B3F186
:100BC000805F01D1022000E00420042879D002F5E2
:100BD000C07303EB00131B6803F0010402F5C0733C
:100BE00003EB00131C600B7A7BB94B7A0C8843EA49
:100BF000445302F5C07404EB00142468234302F547
:100C0000C07404EB0014236010E00B7A4C6843EAD4
:100C1000C4034C7A234302F5C07404EB0014246827
:100C2000234302F5C07404EB001423608B7A03F0B5
:100C30000F038B7202F5C07303EB00135B6823F0A4
:100C40000F0402F5C07303EB00135C6002F5C07380
:100C500003EB00135B688C7A234302F5C07404EB4A
:100C6000001463608B7B1C064B7B44EA034403E067
:100C700000640040006600400B7B44EA0323CC7A0A
:100C8000234302F5C07404EB0014A3608B7C1C06A4
:100C90004B7C44EA03440B7C44EA0323CC7B234390
:100CA00002F5C07404EB0014E36002F5C07303EBBB
:100CB00000131B6843F0010402F5C07303EB00133B
:100CC0001C6010BD10B50246002321B1012907D0D8
:100CD00002290FD109E09068F84C00EA04030BE008
:100CE0009068F74C00EA040306E09068F54C00EACF
:100CF000040301E0002300BF00BFF34C181BA34214
:100D000016D007DC83B16FF0806018180ED002286F
:100D100018D111E0B0F5007F10D0EC4C001909D0CB
:100D2000B0F5003F0ED10BE002230DE000230BE0F5
:100D3000002309E0002307E0012305E0012303E08D
:100D4000012301E0002300BF00BFD8B210BD21B1D4
:100D5000012907D002290FD109E0826842F0800200
:100D600082600AE0826842F40042826005E08268A4
:100D700042F40002826000E000BF00BF704710B57F
:100D800000F5D87303EB01131B6803F0040313721F
:100D9000137A53B900F5D87303EB01131B6840F2C3
:100DA000FF7404EA5353136009E000F5D87303EBB2
:100DB00001131B686FF0604404EAD303536000F52D
:100DC000D87303EB01131B6803F00203537200F5A1
:100DD000D87303EB01135B6803F00F03937200F504
:100DE000D87303EB01135B681B0AD37400F5D87347
:100DF00003EB01139B68D37200F5D87303EB011367
:100E00009B681C0A147300F5D87303EB01139B68ED
:100E10001C0C547300F5D87303EB01139B681B0E75
:100E2000937300F5D87303EB0113DB68D37300F5FC
:100E3000D87303EB0113DB681C0A147400F5D87334
:100E400003EB0113DB681C0C547400F5D87303EB3F
:100E50000113DB681B0E937421B9C36843F02003B0
:100E6000C36003E0036943F02003036110BD21B9AF
:100E7000C26842F02002C26003E0026942F0200230
:100E8000026170470246002019B9D36803F00300DD
:100E900006E0012903D1136903F0030000E00020FC
:100EA000704710B502460B4600204FF6FF71BBB9E4
:100EB000146824F0020444F00104146000E0491EA8
:100EC000546804F00304012C01D00029F7D15468C0
:100ED00004F00304012C01D0002032E0012030E0B6
:100EE000012B13D1146824F00304146000E0491EA0
:100EF000546814F0030F01D00029F8D1546814F09D
:100F0000030F01D000201CE001201AE0022B17D1B2
:100F1000146824F0010444F00204146000E0491E47
:100F2000546804F00304022C01D00029F7D154685E
:100F300004F00304022C01D0002002E0012000E0B4
:100F4000002010BD014600200A6822F0010242F094
:100F500002020A604A6802F00302022A00D101205C
:100F6000704701464FF6FF7200200B6823F0020322
:100F70000B6000E0521E4B6803F00203022B01D10C
:100F8000002AF7D14B6803F00203022B00D00120A6
:100F90007047014600208A6902F0700070470146E0
:100FA00000208A69100E7047014600208A69C2F34A
:100FB000074070471AB143690B43436102E043693C
:100FC0008B434361704710B50246002011F4700F47
:100FD00008D09369C1F31304234201D001202DE00E
:100FE00000202BE011F0807F08D05368C1F3130478
:100FF000234201D0012021E000201FE011F0006F0A
:1010000008D09368C1F31304234201D0012015E0F6
:10101000002013E011F0007F08D0D368C1F313045F
:10102000234201D0012009E0002007E01369C1F349
:101030001304234201D0012000E0002010BD002253
:10104000234B994202D10023836111E0C1F31302C3
:1010500011F0007F01D0C2600AE011F0806F01D072
:10106000026105E011F0006F01D0826000E0426093
:101070007047024600200A4201D0012000E0002013
:10108000704770B504460D4600266069284272D04C
:10109000B5F5807F69D01DDC082D42D006DC012D1E
:1010A0002DD0022D31D0042D7FD134E0102D3ED033
:1010B000202D42D0402D78D145E0000003000004EF
:1010C0000003000800000310000100080001FFF702
:1010D0007000F030B5F5004F61D009DCB5F5007F48
:1010E0004AD0B5F5806F4DD0B5F5006F5DD150E0B9
:1010F000B5F5803F2DD0B5F5003F56D12FE0A06863
:101100005549FFF7B6FF064651E0E0680321FFF7B7
:10111000B0FF06464BE0E0680821FFF7AAFF06464D
:1011200045E0E0681021FFF7A4FF06463FE0206994
:101130000321FFF79EFF064639E020690821FFF7EB
:1011400098FF064633E020691021FFF792FF06461C
:101150002DE060680821FFF78CFF064627E06068F5
:101160001021FFF786FF064621E0A0690121FFF765
:1011700080FF06461BE01BE0A0690221FFF779FF14
:10118000064614E0A0690421FFF773FF06460EE04F
:101190000BE0A0697021FFF76CFF064607E060686E
:1011A0000421FFF766FF064601E0002600BF00E0CD
:1011B0000026304670BDB1F5007F3AD00FDC202903
:1011C00028D006DC01291CD004291DD0082940D1D3
:1011D0001DE0402921D0B1F5807F3AD126E0B1F55C
:1011E000004F31D006DCB1F5806F25D0B1F5006F2E
:1011F0002FD124E0B1F5803F12D0B1F5003F28D1C6
:1012000011E0154A826025E00822C26022E0102227
:10121000C2601FE0082202611CE01022026119E096
:101220000822426016E01022426013E0042242606D
:1012300010E0042242600DE0042242600AE0002235
:1012400082610422426005E0002282610422426041
:1012500000E000BF00BF70470101010001684FF6C8
:10126000FE72114001600021016041608160C16037
:101270008C49884208D18B490839496841F00F01EF
:10128000884A083A51608AE086491431884208D178
:1012900084490839496841F0F001824A083A5160AE
:1012A0007DE080492831884208D17E490839496863
:1012B00041F470617B4A083A516070E079493C31F1
:1012C000884208D177490839496841F47041754A24
:1012D000083A516063E073495031884208D171493E
:1012E0000839496841F470216E4A083A516056E065
:1012F0006C496431884208D16A490839496841F427
:101300007001684A083A516049E06649783188427C
:1013100008D164490839496841F07061614A083A66
:1013200051603CE06049884206D1011F096841F0E4
:101330000F01021F116032E05B491431884208D16D
:101340005949091F096841F0F001574A121F1160FD
:1013500025E055492831884208D15349091F0968B9
:1013600041F47061504A121F116018E04E493C313F
:10137000884208D14C49091F096841F470414A4A22
:10138000121F11600BE048495031884207D146498D
:10139000091F096841F47021434A121F1160704708
:1013A00010B50022026847F6F0739A430C6A8B6806
:1013B00023430C6923434C6923438C692343CC6941
:1013C00023434C6A23438C6A23431A430260CB684D
:1013D00043600B6883604B68C36010BD00210160EF
:1013E00041608160C160016141618161C1610162EF
:1013F00041628162704721B1026842F001020260DD
:1014000004E002684FF6FE731A40026070471AB19A
:1014100003680B43036002E003688B43036070477B
:10142000416070470146486880B27047014600201D
:10143000002211F0805F03D01B4B083B1A6802E0CA
:10144000184B083B1A680A4201D0012000E0002036
:10145000704710F0805F03D01349091F086002E055
:10146000104908394860704701460020002211F0F9
:10147000805F03D00C4B083B1A6802E0094B083B25
:101480001A680A4201D0012000E00020704710F0E5
:10149000805F03D00449091F086002E00149083950
:1014A00048607047080002400804024010B5044636
:1014B000CA48844208D10121042000F047FB0021E2
:1014C000042000F043FB46E0C548844208D10121D6
:1014D000082000F03BFB0021082000F037FB3AE039
:1014E000C048844208D10121102000F02FFB0021C8
:1014F000102000F02BFB2EE0BB48844208D10121D4
:10150000202000F023FB0021202000F01FFB22E020
:10151000B648844208D10121402000F017FB002189
:10152000402000F013FB16E0B148844208D10121AD
:10153000802000F00BFB0021802000F007FB0AE078
:10154000AC48844207D10121801500F0FFFA002148
:10155000A01500F0FBFA10BD10B50121084600F0FF
:10156000F5FA0021012000F0F1FA10BD2DE9F0415B
:10157000024600250026002000230024002791F8C1
:1015800003C00CF00F0591F803C01CF0100F03D03E
:1015900091F802C04CEA050591F800C0BCF1000FBB
:1015A00031D0146800202BE04FF0010C0CFA00F34E
:1015B000B1F800C00CEA03069E4220D183004FF030
:1015C0000F0C0CFA03F7BC4305FA03FC4CEA0404C5
:1015D00091F803C0BCF1280F06D14FF0010C0CFAB2
:1015E00000FCC2F814C00AE091F803C0BCF1480F37
:1015F00005D14FF0010C0CFA00FCC2F810C0401CE1
:101600000828D1D31460B1F800C0BCF1FF0F34DD5D
:10161000546800202EE000F1080C4FF0010808FA91
:101620000CF3B1F800C00CEA03069E4221D18300FE
:101630004FF00F0C0CFA03F7BC4305FA03FC4CEA1D
:10164000040491F803C0BCF1280F05D100F1080C87
:1016500008FA0CF8C2F8148091F803C0BCF1480FE6
:1016600007D100F1080C4FF0010808FA0CF8C2F895
:101670001080401C0828CED35460BDE8F0814FF69E
:10168000FF710180022181700421C1707047024600
:10169000002093680B4201D0012000E00020704739
:1016A0000146886880B2704702460020D3680B422A
:1016B00001D0012000E0002070470146C86880B2D8
:1016C000704701617047416170470AB1016100E0F4
:1016D00041617047C16070474FF480320A438261B4
:1016E0008161826182698269704702460020424BB3
:1016F00018684FF68073184040EA021008433E4BCA
:10170000186070473D49C8617047F0B50A4600232C
:1017100000240021002500F00046B6F1004F02D160
:10172000354EF16901E0344E7168C0F3034583B270
:1017300000F44016B6F5401F08D121F070612E4E1E
:10174000766826F070662C4F7E6012E000F48016FA
:10175000B6F5801F06D1032606FA05F4A14341F031
:10176000706106E0460D360103FA06F6B14341F01A
:10177000706122B1460D360103FA06F6314300F0DE
:101780000046B6F1004F02D11B4EF16101E01A4E46
:101790007160F0BD30B500228B071C0F0F2303FAD8
:1017A00004F2154B08338C1053F824309343124C39
:1017B00008348D1044F8253023468C1053F824301B
:1017C0008C07240F00FA04F423430B4C08348D10CB
:1017D00044F8253030BD0A490860704700080140D0
:1017E000000C0140001001400014014000180140AD
:1017F000001C014000200140000001400000204288
:10180000DC0020420E49086070470D49486070476F
:101810000B49886070474AF6AA200949086070475A
:101820004CF6CC4006490860704701460020044A47
:10183000D2680A4201D0012000E000207047000079
:1018400000300040DD48006840F00100DB490860DE
:1018500008464068DA490840D849486008460068A8
:10186000D8490840D54908600846006820F480201F
:1018700008600846406820F4FE0048604FF41F00EE
:1018800088607047CD49096821F48031CB4A1160E6
:101890001146096821F480211160B0F5803F03D022
:1018A000B0F5802F0ED106E0C449096841F48031BB
:1018B000C24A116007E0C149096841F4A021BF4A4A
:1018C000116000E000BF00BF704710B50146002264
:1018D000002300204A11012A02D1B84C236806E0F7
:1018E000022A02D1B54C236A01E0B44C636A01F0CC
:1018F0001F02012494401C4201D0012000E000207E
:1019000010BD38B5002000900024002500BF312014
:10191000FFF7DBFF05460098401C00900098B0F5EB
:10192000A06F01D0002DF2D03120FFF7CEFF08B11B
:10193000012400E00024204638BD014600209F4AD3
:10194000106820F0F80040EAC100106070479E491E
:101950000860704702460020984B586820F47C10BD
:1019600042EA01031843954B586070479649086650
:10197000704701460020914A506820F00300084358
:10198000506070478D48406800F00C007047014679
:1019900000208A4A506820F0F000084350607047E9
:1019A00001460020854A506820F4E06008435060FA
:1019B000704701460020814A506820F4605040EA98
:1019C000C1005060704729B17C4A527A02437B4B78
:1019D0005A7204E0794A527A8243784B5A727047BD
:1019E0007A490860704701460020744A506820F424
:1019F00040400843506070470021754A11706F4A9B
:101A000082F82010012802D0042808D103E0012127
:101A10006F4A117004E005216D4A117000E000BFAB
:101A200000BF70476B49086070476449096A014309
:101A3000624A11627047674944390860704730B59F
:101A400000210022002400235C4D6D6805F00C018C
:101A500021B1042905D0082923D105E05E4D056098
:101A600022E05D4D05601FE0544D6D6805F4701275
:101A7000524D6D6805F48034022505EB92421CB985
:101A8000564D554305600BE04C4D6D6815F4003F15
:101A900003D0524D5543056002E04F4D554305605C
:101AA00002E04D4D056000BF00BF444D6D6805F07C
:101AB000F00109094A4D6B5C0568DD4045603F4D0A
:101AC0006D6805F4E061090A454D6B5C4568DD40D1
:101AD00085603A4D6D6805F46051C90A404D6B5CF4
:101AE0004568DD40C560354D6D6805F44041890BA2
:101AF0003C4D6B5CC568B5FBF3F5056130BD29B1A4
:101B00002E4A526902432D4B5A6104E02B4A526916
:101B100082432A4B5A61704729B1284A926902438D
:101B2000264B9A6104E0254A92698243234B9A61CD
:101B3000704729B1214AD2690243204BDA6104E09F
:101B40001E4AD26982431D4BDA61704729B11B4A94
:101B5000D2680243194BDA6004E0184AD268824323
:101B6000164BDA60704729B1144A12690243134BCD
:101B70001A6104E0114A12698243104B1A617047DE
:101B800014494039086070470F49C86470470B49D1
:101B9000C87170470948406A40F080700749486240
:101BA000704701460020054A92680A4201D0012090
:101BB00000E0002070470149887270470010024021
:101BC0000000FFF8FFFFF6FE00004242D80042424C
:101BD000201002408004424200127A0000093D00B9
:101BE000140000202400002000206C490860486098
:101BF0008860C86048628862C8626948886300205B
:101C0000C86370470021654A516847F6FF629143F7
:101C1000027D83681A4343681A43C3681A43036802
:101C20001A4303691A4311435C4A5160704700210B
:101C30000175016041608160C1600161704759496F
:101C4000086070475549096821F00301534A116043
:101C5000114609680143116070475048006800F060
:101C60000300704729B14D4AD26B02434B4BDA63F4
:101C700004E04A4AD26B8243484BDA6370474A49D0
:101C8000086070470021454B02689A601A46D16887
:101C90006FF30A01D0E901231A43C3681A430369A9
:101CA0001A4311433D4AD1607047002101604160F1
:101CB0008160C1600161704738480069C0B27047F7
:101CC00008B50146002000903448143008440090C4
:101CD0000098006808BD0021304B02685A624268D3
:101CE0009A621A46D16A21F0F701D0E902231A4319
:101CF00003691A4343691A431143284AD162704762
:101D00004FF0FF310160002141608160C1600161DD
:101D1000416170472148006B704724480068704754
:101D20002249086070471D48806C70471E49143175
:101D3000086070471C491831086070471A491C3107
:101D400008607047184920310860704718490860DA
:101D5000704718490860704701218143164A116095
:101D60007047164908607047014600200B4A526BC5
:101D70000A4201D0012000E0002070470749886333
:101D8000704701460020054A526B0A4201D00120EB
:101D900000E00020704701498863704700800140DF
:101DA000FF07C000A00030428C0530428080014017
:101DB000AC013042B0013042B4013042B80130428F
:101DC00010B50446BE48844208D101218014FFF7B3
:101DD000BDFE0021A014FFF7B9FE16E0B948844209
:101DE00008D101210014FFF7BEFE00212014FFF7E7
:101DF000BAFE0AE0B448844207D10121C013FFF7BC
:101E0000B2FE0021E013FFF7AEFE10BD10B50022B8
:101E1000028802F441520B884C8823438C88234368
:101E2000CC8823430C8923434C8923438C89234347
:101E3000CC8923431A430280838B4FF2FF742340E3
:101E400083830B8A038210BD2DE9F04F85B00546D0
:101E50000C464FF0000902274FF000084FF0010B2D
:101E60000026B246A88B4FF240010840A88302200A
:101E70002884B5F81C90A068022801D100BF38E082
:101E8000A08810B94FF0010B01E04FF0020B8D4814
:101E9000854200D100E000BF6846FFF7D0FDDDF8C5
:101EA00000A0E088B0F5007F0AD14FEA1A2000EBCD
:101EB00080004000A168B0FBF1F0401D86B20BE04D
:101EC0004FEA4B10BAFBF0F000EB80004000A16835
:101ED000B0FBF1F0401D86B20A20B6FBF0F606F02A
:101EE0000108A6EB0800C0F34F074FF6FF7000EAA9
:101EF0000828022F01DBFF2F02DD02274FF0000828
:101F0000E08840EA080038432884A088A189084373
:101F1000618808432188084340F4006040EA0909C9
:101F2000A5F81C9005B0BDE8F08F0021018041802C
:101F30008180C180018141818181C181072101822C
:101F400070470021018041808180C1800221816031
:101F500000218181704721B1028842F04002028055
:101F600004E002884FF6BF731A400280704721B127
:101F7000828B42F48062828304E0828B4FF6FF33CF
:101F80001A408283704730B5002400230C110125CC
:101F9000A540ABB21AB185881D43858002E08588D3
:101FA0009D43858030BD1AB183880B43838002E056
:101FB00083888B438380704781817047014688897D
:101FC0007047A1F57E42FF3A04D0028842F4807245
:101FD000028004E002884FF6FF631A4002807047D7
:101FE00021B1828842F00402828004E082884FF6A8
:101FF000FB731A408280704702884FF2FF731A40C9
:10200000028002880A4302807047018841F48051AF
:102010000180704721B1028842F40052028004E03E
:1020200002884DF6FF731A40028070470246002076
:10203000012901D0108B00E0908A70470146088A80
:102040007047B1F5804F04D1028842F4804202808B
:1020500004E002884BF6FF731A4002807047024684
:10206000002013890B4201D0012000E000207047BE
:10207000CA4302817047F0B50246002000240023C5
:10208000002501F00F070126BE40B4B20B11012656
:102090009E40B3B2968806EA03051689264202D00E
:1020A0000DB1012000E00020F0BD10B5002201F0CC
:1020B0000F040123A3409AB2D343038110BD000053
:1020C0000030014000380040003C004010B504469C
:1020D000FE48844208D10121C014FFF737FD0021DA
:1020E000E014FFF733FDC4E0B4F1804F08D10121C3
:1020F0000846FFF738FD00210120FFF734FDB8E066
:10210000F348844208D101210220FFF72CFD002171
:102110000220FFF728FDACE0EE48844208D10121FF
:102120000420FFF720FD00210420FFF71CFDA0E0A4
:10213000E948844208D101210820FFF714FD00215D
:102140000820FFF710FD94E0E448844208D1012103
:102150001020FFF708FD00211020FFF704FD88E0A4
:10216000DF48844208D101212020FFF7FCFC002138
:102170002020FFF7F8FC7CE0DA48844208D10121F6
:102180004014FFF7E3FC00216014FFF7DFFC70E070
:10219000D548844209D10121C804FFF7D7FC0021AA
:1021A0004FF40020FFF7D2FC63E0D048844209D10D
:1021B00001210805FFF7CAFC00214FF48010FFF74A
:1021C000C5FC56E0CA48844209D101214805FFF701
:1021D000BDFC00214FF40010FFF7B8FC49E0C548F2
:1021E000844208D101214020FFF7BDFC002140209E
:1021F000FFF7B9FC3DE0C048844208D101218020AE
:10220000FFF7B1FC00218020FFF7ADFC31E0BB48B7
:10221000844208D101218015FFF7A5FC0021A015FB
:10222000FFF7A1FC25E0B648844209D1012108044A
:10223000FFF78CFC00214FF48030FFF787FC18E09B
:10224000B048844209D101214804FFF77FFC0021F6
:102250004FF40030FFF77AFC0BE0AB48844208D122
:1022600001218804FFF772FC00214FF48020FFF762
:102270006DFC10BD00220288944B98420ED0994B01
:1022800098420BD0B0F1804F08D0914B984205D0C6
:10229000904B984202D0904B984204D14FF68F73E6
:1022A0001A404B881A438D4B984207D08C4B98426A
:1022B00004D04FF6FF431A40CB881A4302808B8824
:1022C00083850B880385814B98420BD0854B9842C0
:1022D00008D08B4B984205D08A4B984202D08A4B4B
:1022E000984201D10B7A038601238382704770B52F
:1022F000002400220023058C4FF6FE76354005842D
:10230000028C8388048B4FF68F752C40B51E2C40B1
:102310000D882C43751E2A400D892A434D882A4377
:102320006A4DA8420BD06F4DA84208D0744DA84208
:1023300005D0744DA84202D0734DA84213D14FF678
:10234000F7752A404D892A434FF6FB752A408D8840
:102350002A434FF6FF652B404FF6FF552B408D89E2
:102360002B43CD892B4383800483CD8885860284CB
:1023700070BD70B5002400220023058C4FF6EF7667
:1023800035400584028C8388048B48F6FF752C4009
:102390004FF6FF452C400D884FF6FF7606EA0525DF
:1023A0002C434FF6DF752A400D8906EA05152A43AE
:1023B0004D8806EA05152A43444DA84202D0494DEE
:1023C000A8421DD14FF67F752A404D894FF6FF7602
:1023D00006EA05152A434FF6BF752A408D8806EA9E
:1023E00005152A434FF6FF352B404FF2FF752B4062
:1023F0008D8906EA85052B43CD8906EA85052B43A1
:1024000083800483CD880587028470BD70B5002465
:1024100000220023058C4FF6FF6635400584028CB0
:102420008388848B4FF68F752C404FF6FC752C40BB
:102430000D882C434FF6FF552A400D894FF6FF7645
:1024400006EA05252A434D8806EA05252A431F4D3D
:10245000A84202D0234DA8421DD14FF2FF752A4059
:102460004D894FF6FF7606EA05252A434FF6FF35DC
:102470002A408D8806EA05252A434EF6FF752B4033
:102480004DF6FF752B408D8906EA05152B43CD8946
:1024900006EA05152B4383808483CD8885870284D3
:1024A00070BD70B5002200230024058C4EF6FF7627
:1024B00035400584038C8488828B48F6FF752A405A
:1024C0004FF6FF452A400D8820E00000002C014017
:1024D0000004004000080040000C004000100040D4
:1024E0000014004000340140004C01400050014005
:1024F0000054014000180040001C00400020004033
:102500000040014000440140004801404FF6FF7682
:1025100006EA05252A434DF6FF752B400D8906EA8C
:1025200005352B434D8806EA05352B43FA4DA84265
:1025300002D0FA4DA84208D14BF6FF752C408D8988
:102540004FF6FF7606EA85152C4384808283CD887A
:10255000A0F84050038470BD828B4FF2FF331A40C5
:102560008283828B4FF6FF7303EA01231A4382832F
:102570007047F0B50C461546002200210026078C56
:102580004EF6FF7C07EA0C070784828B018C4FF61E
:10259000FF7707EA043640F6FF473A404FF6FF77E9
:1025A00007EA05273A434FF6FF7707EA03373A432E
:1025B000D94FB8420ED0D94FB8420BD0B0F1804FAE
:1025C00008D0D74FB84205D0D64FB84202D0D64F28
:1025D000B84206D14DF6FF77394046F4805739436B
:1025E00005E047F6FF57394044F48057394382836A
:1025F0000184F0BD828B4FF6F3731A408283828B85
:102600000A4382837047F0B50C461546002200212C
:102610000026078C4FF6FF6C07EA0C070784828BB5
:10262000018C4FF6FF7707EA04264FF60C773A4005
:102630004FF6FF7707EA03172F433A43B64FB842E6
:102640000ED0B64FB8420BD0B0F1804F08D0B44F87
:10265000B84205D0B34FB84202D0B34FB84206D10A
:102660004FF6FF57394046F48077394305E04FF283
:10267000FF57394044F48077394382830184F0BDA9
:10268000028B4FF2FF331A400283028B4FF6FF7327
:1026900003EA01231A4302837047F0B50C4615463E
:1026A000002200210026078C4FF6EF7C07EA0C077A
:1026B0000784028B018C4FF6FF7707EA041640F679
:1026C000FF473A404FF6FF7707EA03373A434FF6A2
:1026D000FF7707EA05273A438F4FB8420ED08F4F56
:1026E000B8420BD0B0F1804F08D08D4FB84205D022
:1026F0008C4FB84202D08C4FB84206D14FF6DF77EC
:10270000394046F01007394305E04FF65F7739400E
:1027100044F01007394302830184F0BD028B4FF669
:10272000F3731A400283028B0A4302837047F0B5A9
:102730000C46154600220021068C4FF6FE773E40DF
:102740000684028B018C4FF60C7632407E1C06EA22
:1027500003162E433243704EB0420ED06F4EB0423D
:102760000BD0B0F1804F08D06D4EB04205D06D4E09
:10277000B04202D06C4EB04206D14FF6FD763140E9
:1027800044F00106314305E04FF6F576314044F060
:102790000106314302830184F0BD70B505460C4645
:1027A0005D4885420ED05D4885420BD0B5F1804F23
:1027B00008D05B48854205D05A48854202D05A4825
:1027C000854200D100E000BF208850B92389A2884B
:1027D00061882846FFF7ABFFE1882846FFF79EFF98
:1027E00025E0208804280AD12389A2886188284608
:1027F000FFF753FFE1882846FFF742FF17E02088E4
:1028000008280AD12389A28861882846FFF7FBFEA1
:10281000E1882846FFF7EEFE09E02389A288618857
:102820002846FFF7A6FEE1882846FFF795FE70BD13
:102830002DE9F04105460C4600260127608808B9BD
:10284000022600E00026A088012801D1022700E02E
:1028500001272088A0B92389A28861882846FFF72C
:1028600066FFE1882846FFF759FF23893A4631463B
:102870002846FFF712FFE1882846FFF701FF13E023
:102880002389A28861882846FFF707FFE188284648
:10289000FFF7F6FE23893A4631462846FFF747FF01
:1028A000E1882846FFF73AFFBDE8F0810A884B88A7
:1028B0001A438B881A43CB881A430B891A434B89D6
:1028C0001A438B891A43A0F8442070474FF6FF71D2
:1028D000818000210180C180418001727047002108
:1028E000018041808180C180018141818181C181DC
:1028F0007047002101804180012181800021C18039
:10290000018170470021018041808180C180018167
:102910004181818170470000002C0140003401405A
:102920000004004000080040000C004021B1028873
:1029300042F00102028004E002884FF6FE731A4062
:102940000280704731B1B0F8442042F40042A0F850
:10295000442005E0B0F84420C2F30E02A0F8442061
:1029600070471AB183890B43838102E083898B43CB
:10297000838170478182704741EA0203A0F84830A2
:1029800070471AB183890B43838102E083898B43AB
:102990008381704701894FF6F872114001817047B9
:1029A0000A46002101894FF68F73194011430181B6
:1029B000704730B504460D4629462046FFF7F0FF24
:1029C000208940F00700208130BD2DE9F041044608
:1029D0000D4616461F46602D06D13B460122314664
:1029E0002046FFF75AFE05E03B46012231462046CD
:1029F000FFF79DFE29462046FFF7D2FF208940F0D1
:102A000007002081BDE8F08130B50C460021018926
:102A1000C9B24FF6FF7505EA03251543254329433F
:102A2000018130BD2DE9F04105460E461746984616
:102A3000002443463A4631462846FFF7E5FF2C89F5
:102A40004FF6F870044044F007044FF68F700440CE
:102A500044F070042C81BDE8F081F0B504460D46C9
:102A600016461F463B46324629462046FFF7CCFF16
:102A7000208940F480402081F0BD0185828270472A
:102A80000A46002101884FF68F73194011430180D7
:102A90007047F0B50C4615461E4600210022002363
:102AA0000189028B038C4FF6F877394021434FF6AA
:102AB000FC473A4040F201173A434FF6DD773B407E
:102AC0004FF6FF7707EA06172F433B430181028346
:102AD0000384F0BD0A460021018B4FF68F73194025
:102AE0001143018370470A460021018B48F6FF73AA
:102AF00019404FF6FF7303EA02231943018370471D
:102B00000A460021818B4FF68F7319401143818350
:102B100070470A460021818B48F6FF7319404FF633
:102B2000FF7303EA022319438183704721B10288AE
:102B300042F08002028004E002884FF67F731A4060
:102B40000280704721B1828842F00402828004E052
:102B500082884FF6FB731A408280704721B18288C9
:102B600042F00802828004E082884FF6F7731A4030
:102B70008280704721B1828842F00102828004E0A5
:102B800082884FF6FE731A40828070470A46002101
:102B9000018B4FF6F77319401143018370470A46C2
:102BA0000021018B4FF2FF7319404FF6FF7303EAC8
:102BB00002231943018370470A460021818B4FF697
:102BC000F77319401143818370470A460021818BB6
:102BD0004FF2FF7319404FF6FF7303EA02231943C4
:102BE000818370470A460021018B4FF6FB73194021
:102BF0001143018370470A460021018B4FF6FF33D2
:102C000019404FF6FF7303EA02231943018370470B
:102C10000A460021818B4FF6FB73194011438183D3
:102C200070470A460021818B4FF6FF3319404FF65B
:102C3000FF7303EA02231943818370470A46002188
:102C4000018B4FF67F7319401143018370470A4689
:102C50000021018BC1F30E014FF6FF7303EA02233B
:102C60001943018370470A460021818B4FF67F7319
:102C700019401143818370470A460021818BC1F3BB
:102C80000E014FF6FF7303EA022319438183704755
:102C90000A460021018C4FF6FD731940114301844F
:102CA00070470A460021018C4FF6F7731940114313
:102CB000018470470A460021018C4FF6DF731940EA
:102CC0004FF6FF7303EA02131943018470470A4663
:102CD0000021018C4FF67F7319404FF6FF7303EA12
:102CE00002131943018470470A460021018C4FF6F4
:102CF000FF5319404FF6FF7303EA0223194301847F
:102D000070470A460021018C4FF2FF7319404FF6BD
:102D1000FF7303EA02231943018470470A46002126
:102D2000018C4DF6FF7319404FF6FF7303EA02332F
:102D300019430184704730B5002301248C40A3B2AD
:102D4000048C9C430484048C02FA01F5ADB22C433C
:102D5000048430BD30B5002304248C40A3B2048C1D
:102D60009C430484048C02FA01F5ADB22C43048424
:102D700030BD70B5034600200024184618300125E8
:102D80008D40ACB21D8CA5431D8409B1082909D121
:102D900000EB6100056825F07005056005681543C6
:102DA00005600EE00D1FC5F34E052844056825F4A7
:102DB000E045056005684FF6FF7606EA02263543D2
:102DC000056070BD21B1028842F00202028004E079
:102DD00002884FF6FD731A400280704721B10288C5
:102DE00042F00402028004E002884FF6FB731A40AE
:102DF0000280704721B1828842F08002828004E024
:102E000082884FF67F731A408280704702884FF69F
:102E1000F7731A40028002880A4302807047828852
:102E20004FF68F731A40828082880A4382807047EF
:102E300002894FF6F8731A40028102890A4302811F
:102E4000704702894FF67F731A40028102890A4354
:102E50000281704781847047818570478186704701
:102E60000187704781877047A0F84010704702883B
:102E70004FF6FF431A40028002880A4302807047DF
:102E80000146888E70470146088F70470146888F3B
:102E900070470146B1F8400070470146888C704782
:102EA0000146088D704702460020138A0B4201D06C
:102EB000012000E000207047CA430282704730B50D
:102EC0000246002000230024158A05EA01039589A3
:102ED00005EA010413B10CB1012000E0002030BD6F
:102EE000CA4302827047000010B50446FB48844282
:102EF00009D101218803FEF729FE00214FF480400B
:102F0000FEF724FE32E0F648844209D1012148044C
:102F1000FEF729FE00214FF40030FEF724FE25E0E5
:102F2000F048844209D101218804FEF71CFE0021EB
:102F30004FF48020FEF717FE18E0EB48844209D1D9
:102F40000121C804FEF70FFE00214FF40020FEF718
:102F50000AFE0BE0E548844208D101210805FEF78E
:102F600002FE00214FF48010FEF7FDFD10BD2DE99B
:102F7000F04786B005460E460024A24600BFA14693
:102F80000027B08900B100BF2F462C8A4CF6FF7095
:102F90000440F08804432C82AC894EF6F3100440C0
:102FA000B08831890843718908430443AC81AC8AF5
:102FB0004FF6FF400440B0890443AC8201A8FEF7FD
:102FC0003EFDC648874202D1DDF810A001E0DDF8E1
:102FD0000CA0A88910F4004F08D00AEBCA0000EB3F
:102FE0000A1031684900B0FBF1F807E00AEBCA00AB
:102FF00000EB0A1031688900B0FBF1F86420B8FBDF
:10300000F0F004012009642101FB1089A88910F463
:10301000004F08D0322000EBC900B0FBF1F000F007
:103020000700044308E0322000EB09106421B0FBE4
:10303000F1F000F00F0004432C8106B0BDE8F087EA
:103040004FF41651016000218180C18001810C2163
:10305000418100218181704710B502460020108A0D
:103060004FF2FF0318400B884C8823438C8823437E
:10307000CC8823431843108210BD00210180418079
:103080008180C180704721B1828942F400528281DF
:1030900004E082894DF6FF731A4082817047F0B5D3
:1030A00003460024002600250020A1F510676A3F92
:1030B00000D100BF1846C1F3421401F01F060127DA
:1030C00007FA06F5012C01D10C3004E0022C01D1E5
:1030D000103000E014301AB107682F43076002E097
:1030E0000768AF430760F0BD1AB1838A0B43838240
:1030F00002E0838A8B4383827047028A4FF6F07323
:103100001A400282028A0A430282704782894FF281
:10311000FF731A40828182890A438281704721B1FC
:10312000828942F00202828104E082894FF6FD73B7
:103130001A4082817047028A4FF6DF731A4002827A
:10314000028A0A430282704721B1028A42F4804215
:10315000028204E0028A4BF6FF731A400282704733
:10316000C1F308028280704701468888C0F30800D6
:103170007047818941F0010181817047028BD2B291
:103180000283028B42EA012202837047028B02F41F
:103190007F420283028B0A430283704721B1828AF5
:1031A00042F02002828204E0828A4FF6DF731A40E6
:1031B0008282704721B1828A42F01002828204E04A
:1031C000828A4FF6EF731A408282704721B1828A59
:1031D00042F00802828204E0828A4FF6F7731A40B6
:1031E0008282704721B1828942F40042828103E0E9
:1031F0008289C2F30E028281704721B1828A42F431
:103200000062828204E0828A4FF2FF731A40828257
:103210007047828A4FF6FB731A408282828A0A4381
:103220008282704721B1828A42F00202828204E0E7
:10323000828A4FF6FD731A40828270470246002050
:10324000B1F5007F00D100BF13880B4201D00120EF
:1032500000E00020704701F40072B2F5007F00D159
:1032600000BFCA430280704770B5024600240023A5
:1032700000250020A1F510666A3E00D100BFC1F311
:10328000421501F01F03012606FA03F3012D02D1B6
:103290009689334006E0022D02D1168A334001E0C0
:1032A000968A33400C12012606FA04F4168834403C
:1032B00013B10CB1012000E0002070BD10B5002258
:1032C0000023A1F510646A3C00D100BF0A1201245A
:1032D0009440A3B2DC43048010BD000000380140DC
:1032E0000044004000480040004C004000500040B6
:1032F00010B50121C802FEF736FC00214FF4006032
:10330000FEF731FC10BD0021194A126822F4C07189
:103310000143174A1160704708B500210091144914
:10332000096821F07F01009100F07F01009A1143AC
:1033300000910F4A0099116008BD01200D490860F5
:10334000704700F07F010A4A121F1160704740F079
:103350008001074A121F116070470548001D006870
:10336000C0B2704700200249091D08607047000084
:10337000042C0040A480054208B54FF4A060FCF77F
:10338000E1FF25208DF8000002208DF801008DF866
:10339000020001208DF803006846FCF7D8FF0D20DD
:1033A0008DF8000002208DF8010000208DF8020049
:1033B00001208DF803006846FCF7C9FF14208DF842
:1033C000000000208DF8010001208DF802008DF82A
:1033D00003006846FCF7BBFF00208DF800008DF865
:1033E00001008DF8020001208DF803006846FCF70B
:1033F000AEFF1C208DF8000001208DF80100002098
:103400008DF8020001208DF803006846FCF79FFF4D
:103410001E208DF8000000208DF8010002208DF89C
:10342000020001208DF803006846FCF790FF0B2096
:103430008DF8000001208DF8010002208DF80200B7
:1034400001208DF803006846FCF781FF3B208DF8D2
:10345000000001208DF8010003208DF802000120FA
:103460008DF803006846FCF772FF31208DF80000EC
:1034700003208DF8010000208DF8020001208DF856
:1034800003006846FCF763FF08BD70B505460C46AF
:1034900045F25550FEF7B6F92846FEF7B6F9204634
:1034A000FEF7B6F9FEF7B7F9FEF7BAF970BD10B539
:1034B000FEF7B1F910BD70B506460C461546012160
:1034C000C802FEF736FB2846FFF71DFF2046FFF730
:1034D00023FF3046FFF73BFFFFF744FFFFF72DFFC9
:1034E00070BD10B504462046FFF731FF10BD08B58A
:1034F00000208DF8000002208DF8010003208DF8D7
:1035000002006846FCF723FF08BD10B57F20FFF7D7
:1035100018FFFFF727FF10BD00B585B0012144F269
:103520000500FEF7F9FA4FF40070ADF8100018200E
:103530008DF8130003208DF8120004A93D48FEF712
:1035400015F84FF48060ADF8100004208DF81300DA
:1035500004A93848FEF70AF84FF4E1300090002043
:10356000ADF80400ADF80600ADF80800ADF80C00A9
:103570000C20ADF80A0069462F48FFF7F8FC01213E
:103580002D48FFF780FD05B000BD704770B50446BB
:103590000D46E1B22848FFF7E3FD00BF4021264871
:1035A000FFF74CFE0028F9D0204670BD10B5044648
:1035B00000BF20212048FFF741FE0028F9D01E4817
:1035C000FFF7D2FD10BD70B505460E46002400BFC2
:1035D0000BE0295D1848FFF7C3FD00BF80211648A6
:1035E000FFF72CFE0028F9D0641CB442F1DB70BD5B
:1035F00010B512480078FF2811DA40F22551104822
:10360000FFF732FE58B10E48FFF7AEFD0D490B4AE9
:103610001278885409480078401C0849087010BD89
:1036200001460648007808700648704700200349A4
:103630000870704700080140003801403100002048
:10364000004400400002002001B502E00098401E46
:10365000009000980028F9D108BD00B587B001217D
:103660002820FEF759FA01218803FEF762FA4FF489
:103670006040ADF8040001208DF8060018208DF898
:10368000070001A9F448FDF771FF4FF4C060ADF8E1
:10369000040001208DF8060010208DF8070001A914
:1036A000EE48FDF763FF4FF48050ADF804000120B1
:1036B0008DF8060048208DF8070001A9E648FDF7BF
:1036C00055FF4FF40071E548FDF7FBFF0020ADF812
:1036D00008004FF48270ADF80A000020ADF80C002D
:1036E000ADF80E00ADF810004FF40070ADF8120008
:1036F0001020ADF814000020ADF816000720ADF83A
:10370000180002A9D648FEF781FB0121D448FEF734
:1037100022FC07B000BD10B5044600BF0221D0480E
:10372000FEF79DFC0028F9D02146CD48FEF744FC69
:1037300000BF0121CA48FEF792FC0028F9D0C84812
:10374000FEF73CFCC0B210BD70B505460C464FF408
:103750008061C248FDF7B7FF4FF40071BF48FDF725
:10376000B2FF2846FFF7D7FF06462046FFF7D3FFF4
:103770004FF40071B948FDF7A4FF304670BD70B535
:1037800004464FF48061B548FDF79DFF4FF400718A
:10379000B248FDF798FF2046FFF7BDFFFF20FFF777
:1037A000BAFF05464FF40071AC48FDF78AFF284682
:1037B00070BD2DE9F04107460D4616464FF4806175
:1037C000A648FDF780FF4FF40071A448FDF77BFF8A
:1037D0003846FFF7A0FF8046002405E0FF20FFF7F2
:1037E0009AFF2855601CC4B2B442F7DB4FF4007155
:1037F0009A48FDF766FF4046BDE8F0812DE9F041AB
:1038000007460C4615464FF480619448FDF75BFF70
:103810004FF400719148FDF756FF3846FFF77BFFE4
:103820008046002605E014F8010BFFF774FF701CBA
:10383000C6B2AE42F7DB4FF400718848FDF741FF96
:103840004046BDE8F08110B54FF480618348FDF734
:103850003AFF052283492A20FFF7D0FF01212120CA
:10386000FFF772FF01212220FFF76EFF05212520BF
:10387000FFF76AFF20213120FFF766FF0F21262086
:10388000FFF762FF0F212020FFF75EFF4FF48061FA
:103890007248FDF716FF10BD10B54FF480616F48F8
:1038A000FDF711FF052270493020FFF7A7FF052221
:1038B0006C492A20FFF7A2FF01212120FFF744FFD6
:1038C00001212220FFF740FF1A212420FFF73CFFAF
:1038D00005212520FFF738FF0F212620FFF734FFB1
:1038E0000E212020FFF730FF4FF480615B48FDF789
:1038F000E8FE4FF6FF70FFF7A7FE10BD1FB55BA1F6
:1039000003C9CDE90201052202A93020FFF776FFA5
:10391000052269461020FFF74CFF002406E01DF841
:103920000400C22800D003E0601CC4B2052CF6DB02
:1039300000BF052C02D1012004B010BD0020FBE720
:1039400070B5054600264FF480614448FDF7BBFE84
:1039500020222946A020FFF751FF4FF480613F4805
:10396000FDF7AFFE05E0761CA6F57F40FF3800D1DD
:1039700070BD4FF480513848FDF789FE0028F2D120
:103980000720FFF7FCFE044621462720FFF7DCFE58
:10399000FF21E120FFF7D8FE14F0100F01D0102016
:1039A000E6E714F0200F01D02020E1E70020DFE758
:1039B00070B505464FF480612848FDF782FE00BFD0
:1039C0004FF480512448FDF762FE0028F8D14FF4EF
:1039D00080612248FDF777FE0720FFF7D0FE0446FE
:1039E00021462720FFF7B0FE14F0400F0AD0202216
:1039F00029466120FFF7DDFEFF21E220FFF7A4FE4C
:103A0000402070BD0020FCE7F0B589B006460F46A7
:103A10000024002514E0305D01A94855681CC5B29A
:103A2000202D0BD1002501A8FFF78AFF40F6FF707B
:103A3000FFF70AFE202101A80BF008FA601CC4B2AF
:103A4000BC42E8DB01A8FFF77BFF40F6FF70FFF701
:103A5000FBFD09B0F0BD0000000C01400014014066
:103A600000380040400000203B000020C2C2C2C21B
:103A7000C200000030B52A4800684FF47A72B0FBEB
:103A8000F2F1B1F1807F01D301201DE021F07F40F0
:103A9000401E4FF0E022506150170F22002807DA35
:103AA00013071D0E1F4B00F00F04241F1D5503E0CC
:103AB00013071C0E1C4B1C5400BF00204FF0E022CB
:103AC000906107201061002008B100BFFEE74FF0B1
:103AD000E020006920F001004FF0E021086130BDD6
:103AE00001B51249009808604FF0E020006940F0ED
:103AF00001004FF0E021086104E00C480068401E1E
:103B00000A490860094800680028F6D108BD07483E
:103B1000006820B105480068401E044908607047ED
:103B20000000002018ED00E000E400E05400002058
:103B300000B585B001211520FDF7EEFFF020ADF8AE
:103B4000100000208DF8130003208DF8120004A946
:103B50006148FDF70BFD3F20ADF8100000208DF807
:103B6000130003208DF8120004A95C48FDF7FEFC49
:103B700001214802FDF7D0FF4FF40040FDF733FF6D
:103B80000020009001208DF804008DF805004FF40E
:103B900060200290002003900A208DF810006946F2
:103BA0004F48FCF764FC0523012204214C48FCF734
:103BB000F6FC0523022219464948FCF7F0FC0523D0
:103BC000032206214648FCF7EAFC052304220721CC
:103BD0004348FCF7E4FC05231A460A214048FCF759
:103BE000DEFC052306220B213D48FCF7D8FC05230B
:103BF00007220C213A48FCF7D2FC052308220D21AC
:103C00003748FCF7CCFC052309220E213448FCF789
:103C1000C6FC05230A220F213148FCF7C0FC012114
:103C20002F48FCF75BFC01212D48FCF74CFC2C488D
:103C3000FCF76BFC00BF2A48FCF76CFC0028FAD1AB
:103C40002748FCF771FC00BF2548FCF772FC0028F0
:103C5000FAD101212248FCF776FC05B000BD00B581
:103C60008BB001210846FDF74AFF1E48FDF7F6FA22
:103C70001B484C3000901C480190002002901420FA
:103C80000390002004908020059040000690800062
:103C90000790202008900002099000200A906946B1
:103CA0001048FDF77DFB01210E48FDF7A4FB022023
:103CB000FDF7CFFB012202210A48FDF7A8FB0BB05C
:103CC00000BD10B5FFF7CBFFFFF732FF10BD10B5F9
:103CD0000220FDF7DCFB10BD000801400010014090
:103CE00000240140080002400003002000B589B014
:103CF00001210846FDF71DFF01210520FDF70CFFFE
:103D00000F20ADF8200018208DF8230003208DF837
:103D1000220008A93A48FDF729FC40F2E730ADF847
:103D200018000020ADF81400ADF81A00ADF8160028
:103D300005A94FF08040FEF79DFA6020ADF8040021
:103D40000120ADF806002F480088ADF80A000020D9
:103D5000ADF80C0001A94FF08040FEF7C8FA082129
:103D6000C806FEF713FF6020ADF804000120ADF88F
:103D7000060025480088ADF80A000020ADF80C00C8
:103D800001A94FF08040FEF7F4FA0821C806FEF7BB
:103D900006FF6020ADF804000120ADF806001B48C6
:103DA0000088ADF80A000020ADF80C0001A94FF022
:103DB0008040FEF72BFB0821C806FEF7FDFE6020C1
:103DC000ADF804000120ADF8060011480088ADF8F8
:103DD0000A000020ADF80C0001A94FF08040FEF76A
:103DE00060FB0821C806FEF7F0FE01218807FEF7F8
:103DF0009DFE01218807FEF799FD09B000BD000076
:103E000000080140620000206400002066000020DD
:103E10006800002030B587B005460C46012104201B
:103E2000FDF787FE01210820FDF776FE4FF4707044
:103E3000ADF8180048208DF81B0003208DF81A00FB
:103E400006A9EE48FDF792FB4021EC48FDF739FC4E
:103E50008021EA48FDF735FC4FF48071E748FDF713
:103E600030FC4FF40071E548FDF72BFCADF8105025
:103E7000ADF80C400020ADF81200ADF80E0003A91B
:103E8000DF48FEF7F7F90020ADF800000220ADF89A
:103E900002000120ADF804000020ADF80600082063
:103EA000ADF808006946D648FEF777FC0420ADF867
:103EB00000000220ADF802000120ADF8040000204F
:103EC000ADF806000820ADF808006946CC48FEF7BA
:103ED00064FC0820ADF800000220ADF802000120CB
:103EE000ADF804000020ADF806000820ADF8080089
:103EF0006946C348FEF751FC0C20ADF800000220D3
:103F0000ADF802000120ADF804000020ADF8060075
:103F10000820ADF808006946B948FEF73EFC0122CA
:103F20001F21B748FEF71DFD0121B548FEF7FEFC35
:103F300007B030BDB24910310888B249097811F094
:103F4000800F51D110F0010F1AD0AE49097811F04D
:103F5000400F15D0AB49097801F03F013F290AD144
:103F6000A849097841F08001A64A11704FF6FF7107
:103F7000A54A118004E0A3490978491CA14A11709F
:103F800010F0020F30D09F49097811F0400F13D084
:103F90009C49097841F080019A4A1170984934315E
:103FA0000988994A118096492031098821F0020137
:103FB000934A2032118017E00021924A1170924AF0
:103FC00011809049097841F040018E4A11708C4966
:103FD000343109888D4A118089492031098841F09E
:103FE0000201874A203211808949097811F0800F37
:103FF00051D110F0010F1AD08549097811F0400F06
:1040000015D08349097801F03F013F290AD1804941
:10401000097841F080017E4A11704FF6FF717D4AA8
:10402000118004E07A490978491C794A117010F02E
:10403000040F30D07649097811F0400F13D074493D
:10404000097841F08001724A11706D493831098850
:10405000704A11806A492031098821F02001684A9C
:104060002032118017E00021694A1170694A1180DD
:104070006749097841F04001654A1170604938315B
:104080000988654A11805E492031098841F0200184
:104090005B4A203211806149097811F0800F51D1BB
:1040A00010F0010F1AD05D49097811F0400F15D0BA
:1040B0005A49097801F03F013F290AD15749097847
:1040C00041F08001554A11704FF6FF71544A11803A
:1040D00004E052490978491C504A117010F0080F49
:1040E00030D04E49097811F0400F13D04B49097870
:1040F00041F08001494A117041493C310988484AE0
:1041000011803F492031098821F400713C4A203256
:10411000118017E00021414A1170414A11803F4946
:10412000097841F040013D4A117035493C31098818
:104130003C4A118032492031098841F40071304AEB
:10414000203211803849097811F0800F51D110F0D8
:10415000010F1AD03449097811F0400F15D03249B7
:10416000097801F03F013F290AD12F49097841F030
:1041700080012D4A11704FF6FF712C4A118004E026
:1041800029490978491C284A117010F0100F30D0C5
:104190002549097811F0400F13D02349097841F0DF
:1041A0008001214A11701649403109881F4A118047
:1041B00013492031098821F40051114A203211801D
:1041C00017E00021184A1170184A11801649097821
:1041D00041F04001144A1170094940310988144ADC
:1041E000118007492031098841F40051044A2032E6
:1041F00011800021024A103211807047000C0140EA
:10420000000800407300002080000020780000209B
:1042100074000020820000207A0000207500002039
:10422000840000207C000020760000208600002012
:104230007E00002000B589B001210420FDF76CFC50
:1042400001214806FDF775FC4FF40060ADF804004D
:1042500003208DF8060004208DF8070001A95248BC
:10426000FDF784F94FF48050ADF8040018208DF864
:10427000070001A94C48FDF779F94C48FCF7F8FA1A
:1042800006A8FCF719FC00208DF81E0001208DF80F
:104290001F0000208DF820008DF821008DF82200ED
:1042A00001208DF8230000208DF81A008DF81B00E6
:1042B00002208DF81C0001208DF81D000620ADF8AD
:1042C000180006A93948FCF7ECFA10B938A00BF031
:1042D00087FD00208DF812008DF8130001208DF865
:1042E00014000020ADF80800ADF80A00ADF80C008D
:1042F000ADF80E00ADF8100001208DF81500012278
:1043000002212A48FCF756FE02A8FCF754FB09B02C
:1043100000BD10B586B0002401AA00212348FCF797
:104320002EFD29490198086008460068E82829D12F
:1043300026E00DF10F00005D822811D10DF10F0074
:10434000611C405C81280BD10DF10F00A11C405C69
:10435000802805D100201D49087001201C490870E3
:104360001B480078012809D10DF10F010A5D17499A
:104370000878411C154B197016490A54601CC4B2C8
:10438000082CD6DB11480078B02807D100200F494F
:1043900008700F49087001200F4908700221034876
:1043A000FCF709FF06B010BD0008014000640040A2
:1043B00043414EC4A3BFE9B3F5CABCBBAFCAA7B063
:1043C000DC210D0A0000000094000020A100002064
:1043D000A200002028030020BF0000200021FF22AF
:1043E00006E001E0531EDAB2002AFBDC4B1CD9B216
:1043F0008142F6DB704708B50820ADF800001020B8
:104400008DF8030003208DF802006946FE48FDF791
:10441000ADF808BD70B50446FFF7EDFF0421FA487A
:10442000FDF751F900251FE00520FFF7D7FF14F035
:10443000010F04D00821F448FDF743F903E00821F7
:10444000F148FDF740F90520FFF7C8FF0421EE48C9
:10445000FDF737F90520FFF7C1FF0421EA48FDF712
:1044600032F96410681CC5B2082DDDDB70BD70B573
:1044700005460C461021E448FDF725F90520FFF715
:10448000ADFF0421E048FDF71EF90520FFF7A6FF68
:104490001021DD48FDF715F90520FFF79FFF28469D
:1044A000FFF7B8FF2046FFF7B5FF0520FFF796FF9F
:1044B0000421D548FDF705F90520FFF78FFF1021EE
:1044C000D148FDF700F970BD08B50820ADF800002F
:1044D00048208DF803006946CB48FDF747F808BD32
:1044E00070B5FFF7F1FF00240421C748FDF7EBF892
:1044F0000520FFF773FF002517E064100821C2486C
:10450000FDF7C5F808B144F080040520FFF766FF09
:104510000421BD48FDF7D5F80520FFF75FFF042112
:10452000B948FDF7D0F8681CC5B2082DE5DB204678
:10453000E11704EB1171C1F30716E11704EB1171D8
:104540000911A4EB0111CCB206EB860004EB40008C
:10455000C4B2204670BD70B504461021AA48FDF7CC
:10456000B2F80520FFF73AFF0421A748FDF7ABF8A2
:104570000520FFF733FF1021A348FDF7A2F805201F
:10458000FFF72CFF2046FFF745FFFFF7A9FF054681
:104590000520FFF723FF04219B48FDF792F8052033
:1045A000FFF71CFF10219848FDF78DF8284670BDD5
:1045B00008B501214020FDF7AFFA1C20ADF800003E
:1045C00010208DF8030003208DF8020069468E4804
:1045D000FCF7CCFF00218E20FFF749FF0A20FFF7F0
:1045E000FDFE9120FFF7B7FFA62809D00A20FFF7AC
:1045F000F5FEA6219020FFF73AFF84A00BF0F0FB18
:104600000A20FFF7EBFE80218E20FFF730FF08BD68
:1046100010B5044600218E20FFF729FFA1798C20D8
:10462000FFF725FF61798820FFF721FF2179862098
:10463000FFF71DFFE1788A20FFF719FFA17884209A
:10464000FFF715FF61788220FFF711FF21788020A6
:10465000FFF70DFF80218E20FFF709FF10BD70B519
:10466000044625462846FFF776FF0646304670BDCD
:1046700070B50546002410216348FDF724F8052095
:10468000FFF7ACFE04216048FDF71DF80520FFF799
:10469000A5FE10215C48FDF714F80520FFF79EFEEB
:1046A000BF20FFF7B7FE00BF03E0FFF719FF285553
:1046B000641C072CF9DB0520FFF790FE042152480B
:1046C000FCF7FFFF0520FFF789FE10214E48FCF79D
:1046D000FAFF70BD00B585B003A8FFF7C9FF9DF8CC
:1046E0000C009DF80D109DF80E20CDE900210290E0
:1046F0009DF80F309DF810209DF8121045A00BF08A
:104700006FFB05B000BD1CB504466846FFF7B0FF5F
:104710009DF80600A0719DF8040060719DF80300EB
:1047200020719DF80200A0709DF8010060709DF856
:10473000000020701CBD32213D4A117030215170A3
:1047400081790A2291FBF2F13031394A91708179F5
:104750000A2291FBF2F302FB13113031344AD1707B
:104760002D21117141790A2291FBF2F13031304A49
:10477000517141790A2291FBF2F302FB131130319E
:104780002B4A91712D21D17101790A2291FBF2F10D
:104790003031274A117201790A2291FBF2F302FBB0
:1047A00013113031224A51722021917281780A22EC
:1047B00091FBF2F130311E4AD17281780A2291FBCD
:1047C000F2F302FB13113031194A11733A2151737C
:1047D00041780A2291FBF2F13031154A9173417808
:1047E0000A2291FBF2F302FB13113031104AD1730C
:1047F0003A21117401780A2291FBF2F130310C4A0E
:10480000517401780A2215E0001801403F3F0D0A5B
:104810000000000074696D653A25642D25642D251E
:10482000642025643A25643A25640D0A00000000DE
:104830001403002091FBF2F302FB13113031024A02
:1048400091740021D17470471403002010B5FE4804
:1048500000684FF4FA71B0FBF1F201FB120010B9DD
:10486000FAA00BF0BDFA10BDF7480068704710B50C
:10487000FE48007801286FD10020FC490870FC48F0
:104880000078822868D1FA484078812864D1F848B5
:104890008078802860D100220221F648FCF78AFB4C
:1048A000F3484079F249097940EA0120F249088049
:1048B000EF48C07BEE49897B40EA0120EF49088040
:1048C000EB48C079EA49897940EA0120EC4908803F
:1048D000E748407BE649097B40EA0120E949088036
:1048E000E34890F83100E24991F8301040EA0120A5
:1048F000E5490880DE4890F83500DD4991F834102C
:1049000040EA0120E1490880D94890F83700D849A9
:1049100091F8361040EA0120DD490880D44890F82B
:104920003900D34991F8381040EA0120D94908806C
:10493000CF4890F83B00CE4991F83A1040EA012068
:10494000D54908800020D5490870D5490870012252
:104950000221C848FCF72EFB10BD2DE9F04F89B0AD
:10496000B94800680521B0FBF1F201FB12000028F4
:104970007ED1CC48CC49CD4BCD4ACDE90010CD49B4
:10498000CD4802F0ABF9C848008810F4807F6FD0A2
:10499000C74908680AF01EFD04464FF09D410AF021
:1049A00051FBC6490860C24948680AF013FD044635
:1049B0004FF09D410AF046FBC1490860BC49886838
:1049C0000AF008FD04464FF09D410AF03BFBBD494B
:1049D0000860B749C8680AF0FDFC04464FF09D41E5
:1049E0000AF030FBB8490860B44801684FF08040D5
:1049F0000AF0F2FA0690B348016806980AF0ECFA59
:104A00008246AF4801684FF040400AF0E5FA069050
:104A1000AD48016806980AF0DFFA834651460AF06D
:104A200083FA07900AF041FD06460BF019FF804615
:104A30004FF06632A54B0AF0ECFB04460AF05CFD31
:104A4000A34908609F4801684FF080400AF0C4FA0B
:104A500003909C48016803980AF0BEFA8246984881
:104A600001684FF040400AF0B7FA0390944800E024
:104A700094E0016803980AF0AFFA834651460AF0C1
:104A8000A5FA81464FF07E510AF04EFA04460AF02C
:104A90000CFDCDE90401894801684FF080400AF01F
:104AA0009BFA83468648016858460AF095FA814683
:104AB000844801684FF080400AF08EFA83468248AD
:104AC000016858460AF088FA824649460AF02CFAEC
:104AD00004460AF0EAFC0746DDE904230CF010F96D
:104AE0004FF06632794BCDE906010AF092FB05469C
:104AF0000AF002FD774908607348016800680AF00F
:104B00006BFA03906F48016800680AF065FA02903A
:104B10006B48016800680AF05FFA834667480168DD
:104B200000680AF059FA594601900AF0FDF98246E8
:104B300002990AF04BFA814603990AF047FA0446B3
:104B40000AF0B3FCCDE904015F4801685B480068E6
:104B50000AF042FA82465B480168594800680AF048
:104B60003BFA834651460AF0DFF981464FF0804117
:104B70000AF032FA04460AF098FC0746DDE90423FD
:104B80000CF0BEF84FF06632504BCDE906010AF04A
:104B900040FB05460AF0B0FC4F49086009B0BDE88B
:104BA000F08F10B508F0B6FF10BDFEF7E5FB00F082
:104BB00068FA4AA00BF014F90DE0FFF7F2FF01F0DC
:104BC00091F8FFF7CAFEFFF752FEFFF74DFEFFF721
:104BD0003DFE01F036F8F0E701460A2091FBF0F2C5
:104BE00000FB121291FBF0F002EB0010C0B2704714
:104BF00010B53D494969C8B2FFF7EEFF3B4908705F
:104C000039490969C8B2FFF7E7FF384948703649A2
:104C1000C968C8B2FFF7E0FF344988703249896833
:104C2000C8B2FFF7D9FF314908712F494968C8B2A6
:104C3000FFF7D2FF2D4948712B490968C8B2FFF729
:104C4000CBFF2A49887153E0E40000200D0A2D2D86
:104C50002D2D2D2D2D2D2D2D2D2D2D2D2D2D2D2D84
:104C60002D2D2D2D2D2D2D2D0D0A0000BF000020E6
:104C70002803002000640040A4000020B6000020AB
:104C8000AC000020A6000020A8000020AE000020FC
:104C9000B0000020B2000020B4000020A1000020DD
:104CA000A2000020620100206001002064010020B9
:104CB0005C0400205A01002054010020180100204B
:104CC0001C010020200100202401002066A64C4089
:104CD0006C0100206801002014010020496E6974F5
:104CE000204F4B21200D0A0010040020B8000020A6
:104CF0000020C8700846FFF78BFC10BD2DE9F04F6F
:104D000089B081460C46372148460AF09FF8012CAD
:104D100004D0022C2ED0032C68D139E05F480088E3
:104D20000AF061FB83465E490AF08CF982460AF07C
:104D3000BCFB05460E465B4800880AF054FB8346E0
:104D400059490AF07FF982460AF0AFFB04AA63C210
:104D50005648018856480088564A1288CDE90020F6
:104D60000291554803885548028855A148460BF0E2
:104D70005BF83CE05B48C0885A498988CDE900105F
:104D800058484388028858A148460BF04DF82EE059
:104D900043495A4800680AF01FF982460AF085FB29
:104DA00005460E463E49564800680AF015F9824607
:104DB0000AF07BFB04AA63C25248B0F904005149CF
:104DC000B1F902104F4AB2F900204F4BB3F9043049
:104DD000CDE90032CDE902104B48B0F90230B0F90C
:104DE00000204AA148460BF01FF800E000BF00BFBA
:104DF00009B0BDE8F08F10B54F4800681421B0FB32
:104E0000F1F201FB1200002833D14C480078002851
:104E10002FD04B480078401C49490870084601785B
:104E20004848FFF76BFF46480078012804D0022865
:104E30000AD0032818D10FE03723424A42A145483F
:104E4000006808F0ECFB13E037233E4A42A14148DA
:104E5000006808F0E4FB0BE037233A4A40A13D48E4
:104E6000006808F0DCFB03E000203549087000BF53
:104E700000BF10BD10B501460A46C81701EB1070FF
:104E80000011A1EB00100B46CC1701EB1474241198
:104E900004EB840400EB4400C0B210BDA800002065
:104EA0000000C842AC00002000002041B4000020F7
:104EB000B2000020B0000020AE000020A4000020BE
:104EC000253464202534642025346420253464206E
:104ED0002534642025352E31662025352E31660D8A
:104EE0000A000000000300202534642025346420DB
:104EF000253464202534640D0A0000006801002078
:104F00006C010020540100205A0100202535642046
:104F100025356420253564207C2025356420253501
:104F20006420253564207C2025342E3166202534EC
:104F30002E31660D0A000000E4000020B1010020BF
:104F4000A3000020D80300204D6F7465632E747891
:104F500074000000BC0100204144432E74787400AA
:104F60004D5055363035302E74787400704723A07C
:104F70000AF036FF00BFFEE700BFFEE700BFFEE716
:104F800000BFFEE770477047704710B520480068C3
:104F9000401C1F4908600846006808460068052153
:104FA000B0FBF1F201FB120030B901201949087081
:104FB00019490870194908701548006814480068B4
:104FC000134800686421B0FBF1F201FB120010B934
:104FD0000120134908700E4800684FF47A71B0FB45
:104FE000F1F201FB120008B9FFF702FE00F099FF91
:104FF00010BD10B508F0EFFB10BD00000D0A2068D1
:105000006172646661756C74206572720D0A0000CD
:10501000E4000020EA000020E9000020E800002071
:10502000EB00002001464906304A926942F0010235
:105030002E4B9A612E4A526822F0E0622C4B5A6045
:105040001A4652680A435A60704710B529A00AF000
:10505000C7FEFEF753FC0446012C08D1FEF71CFCEA
:1050600028A00AF0BDFE01202D49087005E00020AF
:105070002B4908702BA00AF0B3FE30A00AF0B0FE56
:1050800010BD10B50120FFF7CDFFFEF7F3FCFEF7D2
:1050900043FAFFF7CFF8FFF78BFA2948FFF733FB06
:1050A00003F0E3FB03F0E3FAFEF7D7FAFEF709FE9D
:1050B000FEF71CFE00F086FE0221012000F0DCFE5F
:1050C0000221084600F0D8FE47214FF6FF70FEF798
:1050D000A1FE4FF0E020006940F001004FF0E02118
:1050E0000861FFF7B2FF08F000FC10BD001002409D
:1050F000000001400D0AB4AEBFDAB2E2CAD40D0A14
:10510000000000000D0A4E5246D3EB4D4355C1AC92
:10511000BDD3B3C9B9A6A3A10D0A0D0A00000000B2
:10512000F50000200D0A20204E5246C1ACBDD3CA66
:10513000A7B0DCA3A1A3A10D0A0000000D0A000086
:10514000B800002070B505460E46002400BF0CE0F4
:10515000295DFE48FEF704F800BF4021FB48FEF73A
:105160006DF80028F9D0601CC4B2B442F0DB70BD09
:1051700010B586B0F4200090F54800788DF80B004B
:10518000F44801788DF80C10F349F448006809F0F0
:1051900023FF04460AF03DF900B205909DF8151072
:1051A0008DF80D109DF814108DF80E10EA49EC489A
:1051B000006809F011FF04460AF02BF900B20590CF
:1051C0009DF815108DF80F109DF814108DF8101023
:1051D000E449E548006809F0FFFE04460AF032F9A8
:1051E00080B205909DF815108DF811109DF81410DF
:1051F0008DF812106946DD48FBF7CCFC06B010BDF7
:1052000010B586B0F5200090D949DA48006809F059
:10521000E3FE04460AF0FDF805909DF817008DF8AE
:105220000B009DF816108DF80C109DF815108DF8D8
:105230000D109DF814108DF80E10CD49CE48006861
:1052400009F0CAFE04460AF0E4F805909DF817102C
:105250008DF80F109DF816108DF810109DF8151090
:105260008DF811109DF814108DF812106946BF4882
:10527000FBF790FC06B010BD00B587B0F22001909E
:10528000BE48008806909DF819008DF80F009DF823
:1052900018108DF81010B948408806909DF8191024
:1052A0008DF811109DF818108DF81210B3488088F1
:1052B00006909DF819108DF813109DF818108DF8B0
:1052C0001410AE48C08806909DF819108DF815107E
:1052D0009DF818108DF8161001A9A448FBF75AFC88
:1052E00007B000BD00B587B0F3200190A348008946
:1052F00006909DF819008DF80F009DF818108DF894
:1053000010109E48408906909DF819108DF81110D4
:105310009DF818108DF812109848808906909DF815
:1053200019108DF813109DF818108DF8141093486B
:10533000C08906909DF819108DF815109DF8181069
:105340008DF8161001A98948FBF724FC07B000BDB1
:10535000F0B589B0002400260025AA222146641C4D
:105360000DF801202146641C0DF801200122214680
:10537000641C0DF8012000222146641C0DF8012058
:1053800078497F48006809F027FE07460AF041F88F
:1053900000B208909DF821202146641C0DF80120E0
:1053A0009DF820202146641C0DF801206D497548A8
:1053B000006809F011FE07460AF02BF800B20890C9
:1053C0009DF821202146641C0DF801209DF8202025
:1053D0002146601CC4B20DF8012062496A48006889
:1053E00009F0FAFD07460AF014F800B208909DF89B
:1053F00021202046611CCCB20DF800209DF8202011
:105400002046611CCCB20DF8002000222046611C11
:10541000CCB20DF800202146601CC4B20DF801206A
:105420002046611CCCB20DF800202146601CC4B29D
:105430000DF801202046611CCCB20DF8002020465A
:10544000611CCCB20DF800202046611CCCB20DF8D6
:105450000020201FC0B28DF8030000BF05E01DF83A
:1054600005003044C6B2681CC5B2A542F7DB204631
:10547000611CCCB20DF800604448007810B1684659
:10548000FEF75EFA09B0F0BD70B58AB000240026C0
:105490000025AA222146641C01A842542146641C0E
:1054A000425402222146641C425400222146641CBC
:1054B00042543748008809909DF825202146641CF5
:1054C00001A842549DF824202146641C42543048CF
:1054D000808809909DF825202146641C01A842542B
:1054E0009DF824202046611CCCB201A90A5428480A
:1054F000408809909DF825202046611CCCB201A966
:105500000A549DF824202046611CCCB201A90A54FB
:105510002048008809909DF825202046611CCCB2C7
:1055200001A90A549DF824202046611CCCB201A98F
:105530000A541848808809909DF825202046611C4F
:10554000CCB201A90A549DF8242025E0003801407E
:10555000D4000020D500002000002041D000002011
:10556000CC0000200000C842C000002000640040C1
:105570008096184BC8000020C400002000030020C3
:10558000680100206C01002014010020F5000020BB
:105590005A010020540100202046611CCCB201A910
:1055A0000A54FE48408809909DF825202046611C39
:1055B000CCB201A90A549DF824202046611CCCB22B
:1055C00001A90A54002009909DF825202146601C5D
:1055D000C4B201A842549DF824202046611CCCB2DC
:1055E00001A90A549DF825202046611CCCB201A9CE
:1055F0000A549DF824202046611CCCB201A90A540B
:105600009DF825202046611CCCB201A90A549DF8C2
:1056100024202046611CCCB201A90A54201FC0B22C
:105620008DF8070000BF05E001A8405D3044C6B218
:10563000681CC5B2A542F7DB2046611CCCB201A9AB
:105640000E54D748007810B101A8FEF779F90AB0D6
:1056500070BD70B588B00024002600BFAA22214684
:10566000641C0DF801202146641C0DF80120F12274
:105670002146641C0DF8012000222146641C0DF80F
:105680000120C84802792146641C0DF801204279A6
:105690002146641C0DF8012082792146641C0DF816
:1056A0000120C2792046611CCCB20DF80020BD4813
:1056B000027A2046611CCCB20DF80020B948427A2B
:1056C0002046611CCCB20DF80020B648827A2046F4
:1056D000611CCCB20DF80020B248C27A2046611C91
:1056E000CCB20DF80020AF48027B2046611CCCB242
:1056F0000DF80020AB48427B2046611CCCB20DF86F
:105700000020A848827B2046611CCCB20DF8002006
:10571000A448C27B2046611CCCB20DF80020A148F1
:1057200090F830202046611CCCB20DF800209D4836
:1057300090F831202046611CCCB20DF80020994829
:1057400090F834202046611CCCB20DF8002095481A
:1057500090F835202046611CCCB20DF8002091480D
:1057600090F836202046611CCCB20DF800208D4800
:1057700090F837202046611CCCB20DF800208948F3
:1057800090F838202046611CCCB20DF800208548E6
:1057900090F839202046611CCCB20DF800208148D9
:1057A00090F83A202046611CCCB20DF800207D48CC
:1057B00090F83B202046611CCCB20DF800207948BF
:1057C00090F840202046611CCCB20DF800207548AE
:1057D00090F841202046611CCCB20DF800207148A1
:1057E00090F874202046611CCCB20DF800206D4862
:1057F00090F8750000EB80004006020E2046611C08
:10580000CCB20DF80020201FC0B28DF80300002597
:1058100005E01DF805003044C6B2681CC5B2A542BB
:10582000F7DB2046611CCCB20DF800605C480078C4
:1058300010B16846FEF784F808B070BD70B58AB044
:10584000002400260025AA222146641C01A84254F7
:105850002146641C4254F2222146641C4254002218
:105860002146641C42545048008800B209909DF8BB
:1058700025202146641C01A842549DF8242021467D
:10588000641C42544848408800B209909DF8252085
:105890002146641C01A842549DF824202046611C26
:1058A000CCB201A90A544048808800B209909DF802
:1058B00025202046611CCCB201A90A549DF8242061
:1058C0002046611CCCB201A90A543748C08800B2F6
:1058D00009909DF825202046611CCCB201A90A54EC
:1058E0009DF824202046611CCCB201A90A542E4800
:1058F000008900B209909DF825202046611CCCB299
:1059000001A90A549DF824202046611CCCB201A9AB
:105910000A542548408900B209909DF82520204668
:10592000611CCCB201A90A549DF824202046611CB8
:10593000CCB201A90A541C48808900B209909DF894
:1059400025202046611CCCB201A90A549DF82420D0
:105950002046611CCCB201A90A541348C08900B288
:1059600009909DF825202046611CCCB201A90A545B
:105970009DF824202046611CCCB201A90A540A4893
:10598000008A00B209909DF825202046611CCCB207
:1059900001A90A549DF82420204607E05401002064
:1059A000F50000202803002000030020611CCCB279
:1059B00001A90A54BA48408A00B209909DF82520EE
:1059C0002046611CCCB201A90A549DF8242020462F
:1059D000611CCCB201A90A54201FC0B28DF8070087
:1059E00000BF05E001A8405D3044C6B2681CC5B2E6
:1059F000A542F7DB2046611CCCB201A90E54A94890
:105A0000007810B101A8FDF79BFF0AB070BDF0B59A
:105A100089B0002400260025AA222146641C0DF826
:105A200001202146641C0DF8012004222146641C3B
:105A30000DF8012000222146641C0DF801209A482F
:105A400002782146641C0DF801209848027821460E
:105A5000641C0DF8012096499648006809F0BCFACC
:105A6000074609F0D6FC08909DF823202146641CC7
:105A70000DF801209DF822202046611CCCB20DF8C3
:105A800000209DF821202046611CCCB20DF800209A
:105A90009DF820202046611CCCB20DF800208449DE
:105AA0008548006809F098FA074609F0B2FC0890AA
:105AB0009DF823202046611CCCB20DF800209DF8F3
:105AC00022202046611CCCB20DF800209DF8212038
:105AD0002146601CC4B20DF801209DF8202020460C
