:020000040800F2
:10000000104C0020450100086B390008A13200089F
:10001000013900082D1D0008D583000800000000EC
:10002000000000000000000000000000B77200089F
:10003000552A000800000000EB010008AD4C000844
:10004000E58300085F0100085F0100085F01000808
:100050005F0100085F0100085F0100085F01000800
:100060005F0100085F0100085F010008DD2600084D
:100070005F0100085F0100085F0100085F010008E0
:100080005F0100085F0100085F0100085F010008D0
:10009000118300085F0100085F0100085F0100088C
:1000A0005F0100085F0100085F0100085F010008B0
:1000B0005F0100085F010008E97800085F0100089F
:1000C0005F0100085F0100085F0100085F01000890
:1000D0005F010008258100085F0100085F0100083A
:1000E0005F0100085F0100085F0100085F01000870
:1000F0005F0100085F0100085F0100085F01000860
:100100005F0100087D5A00085F0100085F010008D8
:100110005F0100085F0100085F0100085F0100083F
:100120005F0100085F0100085F0100085F0100082F
:10013000DFF80CD000F04EFD0048004749BA000837
:10014000104C00200648804706480047FEE7FEE7BF
:10015000FEE7FEE7FEE7FEE7FEE7FEE7FEE7FEE777
:100160001D7400083101000872B6704762B670470E
:10017000EFF3108072B6704780F31088704730BF7D
:10018000704720BF7047B0FA80F0704790FAA0F037
:10019000B0FA80F0704790FAA0F07047EFF310804B
:1001A00072B6704780F31088704720484FF0FF0107
:1001B0000170002080F3098804F054FA1C4801689B
:1001C00081F308881B48012101701B484FF08051C2
:1001D000016062B6FEE718484FF080510160704739
:1001E00015484FF080510160704772B6EFF30980F7
:1001F00028B1203880E8F00F10490968086000B580
:100200000F4880475DF804EB0E480F490A780270EA
:100210000A480E490A680260106890E8F00F203022
:1002200080F309884EF0040E62B6704722ED00E0BC
:1002300034020020F601002004ED00E0FC01002063
:1002400065460008EB010020EC01002004020020BC
:100250002DE9F05F0546002092469B4688460646FB
:10026000814640241BE0284641464746224600F08E
:100270007AFB53465A46C01A914110D3114618468C
:10028000224600F061FB2D1A67EB01084F4622461B
:100290000120002100F058FB17EB00094E41201E01
:1002A000A4F10104DFDC484631462A464346BDE856
:1002B000F09F2DE9F04100242546002905DA0124AC
:1002C0000027D0EB070067EB0101002B05DA0027C0
:1002D000D2EB0702012567EB0303FFF7B9FF864660
:1002E0000E4617469C46AC4204D00025D0EB050EC6
:1002F00065EB010624B10020D2EB000760EB030C94
:10030000704631463A466346BDE8F081D2B201E01C
:1003100000F8012B491EFBD270470022F6E710B50A
:1003200013460A4604461946FFF7F0FF204610BD63
:1003300030B504460020034600E05B1C934203D224
:10034000E05CCD5C401BF8D030BDF0B480EA010227
:10035000D40F4200B2EB410F02D2024608461146CA
:100360004A0042D0C30DDDB2C1F3C752AD1A202DF1
:1003700035DAC1F3160141F4000204B15242C5F16D
:10038000200602FA06F12A411044B3EBD05F23D0D5
:10039000C4B1012DA0EBC35009DCF0BC4FF000420A
:1003A00002EAC35200F50000DBB200F007BB4000D8
:1003B00000F1807000EBC350A0F1807040EAD17072
:1003C000490009E0490841EAC071A0EBC35000F5BB
:1003D0000000400800EBC350F0BC00F0E6BA6142F8
:1003E000012202EB4101001BF6E7F0BC704781F0EF
:1003F0000041AAE780F00040A7E780EA010210B5BB
:1004000002F00043400026D04A0023D04FEA10619A
:1004100001EB1261C0F35600C2F3560240F4000033
:1004200042F40002A0FB0220A1F17F014FEA00404C
:10043000140401D000F1010050EA124001D4400040
:10044000491EC2B20C0604EBD010401C4008802AA2
:1004500002D003E0002010BD20F00100002900DAE6
:100460000020184310BD30B480EA010202F00045BC
:1004700030F0004221F0004015D0A0B1C0F3C753C6
:10048000C2F3C754C2F31601C0F31600E41A41F4D4
:10049000000140F400027D34914201D3641C00E06D
:1004A0004900002C02DA30BC002070474FF40000F5
:1004B0000023914201D3891A034340084FEA4101C6
:1004C000F7D151B1914202D14FF0004105E002D283
:1004D0004FF0010101E06FF0010103EBC45028442B
:1004E00030BC00F062BA2DE9FE4F804681EA03007D
:1004F000C00F0C46009021F0004123F00045B8EBFE
:100500000200A94105D24046214690461C460B46B2
:10051000024623F00040104304D14046214603B078
:10052000BDE8F08F270DC7F30A00C3F30A5102900C
:10053000401A0190402866DAC3F3130040F4801B90
:100540000098924620B10023D2EB030A63EB0B0B19
:1005500001985946C0F14002504600F0F5F90646B0
:100560000D4650465946019A00F00DFA10EB08006E
:100570006141002487EA115284EAE7731A433BD0B1
:10058000009A3AB3019A012A4FEA075210DC001B85
:1005900061EB02014FF0004202EA0752CDE900424E
:1005A000001C41F5801132462B4600F041FAB6E7B7
:1005B000001B61EB0201001C41F5801300185B4138
:1005C0002018A2F5001747EB030140EAD570B619D1
:1005D0006D4111E06D084FEA360645EAC0754FEAF5
:1005E0000752001B61EB0201001C41F58011490814
:1005F0004FEA30000019514132462B4603B0BDE8A6
:10060000F04F00F008BA0098012240000023D0EB20
:10061000020263EBE073009821464FEAE074B8EB06
:10062000000061EB0401E9E783F000435BE781F040
:10063000004158E72DE9FE4F81EA030404F000442D
:1006400021F0004100944FF0000B23F0004350EAEA
:10065000010402D052EA030404D10020014603B091
:10066000BDE8F08FC3F30A54C1F30A552C44A4F239
:10067000F3340194A0FB0254C1F3130141F480113F
:10068000C3F3130343F4801301FB024400FB034E46
:10069000840A970A44EA815447EA8357A4FB07680F
:1006A00002958D0A05FB07854FEA932C04FB0C5439
:1006B0002705029D4FEA065847EA1637B5EB0805AD
:1006C0006EEB070C870E920E47EA811742EA8312FF
:1006D000A7FB0201B6EB0B0164EB00042B0D43EA10
:1006E0000C335E1844EB1C50DA465146E7FB02011E
:1006F000C5F313044FEA0B3343EA14534FEA0432B1
:10070000019C43EA0603A4F10C040294009CCDE989
:1007100000B400F08DF9A2E72DE9F04D81EA030461
:1007200004F0004B21F0004514464FF0000A23F07E
:10073000004150EA050220D054EA01021DD0C5F361
:100740000A570246C5F31303C1F31300C1F30A5657
:1007500040F4801543F48013A7EB0608101BD6461F
:1007600008F2FD3873EB050002D308F1010801E03F
:1007700092185B41B8F1000F03DA00200146BDE892
:10078000F08D00204FF48011064684460EE0171BC2
:1007900073EB050705D3121B63EB050306434CEA15
:1007A000010C49084FEA300092185B4150EA0107FA
:1007B000EDD152EA030012D082EA040083EA050177
:1007C000084303D100224FF0004308E0101BAB4167
:1007D00002D20122002302E06FF0010253101AEB53
:1007E00006004CEB085110EB0A0041EB0B01BDE891
:1007F000F04D00F010B9C10F80EAE0700844CA075C
:100800009623002100F0DAB896230022114600F06A
:10081000D5B800F0004220F00040C10DC0F3160032
:1008200040F400007F2901DA00207047962903DC9C
:10083000C1F19601C84001E096398840002AF4D001
:100840004042704720F00040C10DC0F3160040F454
:1008500000007F2901DA00207047962903DCC1F1EE
:100860009601C840704796398840704700F00042B2
:1008700030F000400AD0C10D01F56071C0F31600E0
:1008800042EA0151C2084007114370470020014667
:100890007047000030B5002904DB4FF000444042AF
:1008A00064EB0101002B04DB4FF00044524264EB87
:1008B0000303994208BF904230BD000001F000439D
:1008C00030B421F0004150EA010206D00A0DA2F531
:1008D0006072C1F31301002A02DC30BC00207047B3
:1008E000440F44EAC104C100E01830BC00EBC25020
:1008F00000F05BB8002801DBC0F10040002901DBFB
:10090000C1F1004181427047002801DBC0F1004085
:10091000002901DBC1F100418842704730B50B4628
:10092000014600202022012409E021FA02F59D421F
:1009300005D303FA02F5491B04FA02F52844151EF3
:10094000A2F10102F1DC30BD202A04DB203A00FADA
:1009500002F1002070479140C2F1200320FA03F316
:10096000194390407047202A04DB203A21FA02F014
:100970000021704721FA02F3D040C2F120029140D9
:10098000084319467047202A06DBCB17203A41FA64
:1009900002F043EAE07306E041FA02F3D040C2F10C
:1009A000200291400843194670470029A8BF7047AC
:1009B000401C490008BF20F00100704710B4B0FA95
:1009C00080FC00FA0CF050EA010404BF10BC704730
:1009D00049B1CCF1200421FA04F411FA0CF118BF4A
:1009E000012121430843A3EB0C01CB1D0106000AA2
:1009F000002BBEBF002010BC704700EBC35010445A
:100A00000029A4BF10BC7047401C490008BF20F05B
:100A1000010010BC704710B5002B08DA401C41F1F2
:100A2000000192185B411A4301D120F0010010BD72
:100A30002DE9F04D92469B4611B1B1FA81F202E0E8
:100A4000B0FA80F220329046FFF77EFF04460F4650
:100A500040EA0A0041EA0B0153465A46084303D1D3
:100A600020463946BDE8F08D114653EA010015D005
:100A7000C8F140025046FFF776FF05460E46504645
:100A800059464246FFF760FF084301D0012000E0CD
:100A90000020054346EAE0762C4337430A984FEAA4
:100AA0004453A0EB08004FEAD4240A304FF0000270
:100AB00044EA47544FEAD72502D500200146D1E742
:100AC000010510196941DDE9084500196941BDE8D2
:100AD000F04DA0E770B521F0004303430CD0C1F303
:100AE0000A550024D5EB040564EB0403D617AD1AB0
:100AF000B34102DB0020014670BD201841EB0251DA
:100B000070BD2DE9F04D00231A461B1A8A4103DB04
:100B100000200146BDE8F08DC1F30A52C1F3130174
:100B200041F480154FF0000BD10702D100186D4140
:100B3000521E0027044640F2FF11384601EB620ABC
:100B40003E468046024600204FF48011FFF70BFF1F
:100B5000C2197141BB1846EB0100B4EB030C75EBF5
:100B6000000C04D3E41A65EB000517460E46241961
:100B700008F101006D4180463428E3DDF91946EBA8
:100B80000600091BA84103D24FF0FF32134601E0D3
:100B9000002213461BEB070046EB0A51BDE8F04D5F
:100BA000FFF739BFC1F30A52C1F3130140F2FF331B
:100BB00041F480119A4202DA00200146704740F267
:100BC00033439A42A2F2334202DC5242FFF7CBBED9
:100BD000FFF7BABE064C074D06E0E06840F001039F
:100BE00094E8070098471034AC42F6D3FFF7A4FA14
:100BF00050DB000870DB000870B501EB020410F850
:100C0000015B15F0070301D110F8013B2A1106D151
:100C100010F8012B03E010F8016B01F8016B5B1E6B
:100C2000F9D12B0705D40023521E0FD401F8013B44
:100C3000FAE710F8013B02F10202A1EB030303E023
:100C400013F8015B01F8015B521EF9D5A142D6D31E
:100C5000002070BD00B585B00121152004F05CFDB9
:100C6000F020ADF8100000208DF8130003208DF85F
:100C7000120004A9434802F033FA3F20ADF81000F7
:100C800000208DF8130003208DF8120004A93E48BF
:100C900002F026FA0121480204F03EFD4FF4004024
:100CA00004F0FEFC0020009001208DF804008DF877
:100CB00005004FF460200290002003900A208DF878
:100CC00010006946314800F08DF805230122042107
:100CD0002E4800F0AFF80523022219462B4800F0F9
:100CE000A9F8052303220621284800F0A3F80523CC
:100CF00004220721254800F09DF805231A460A2101
:100D0000224800F097F8052306220B211F4800F027
:100D100091F8052307220C211C4800F08BF80523CD
:100D200008220D21194800F085F8052309220E211B
:100D3000164800F07FF805230A220F21134800F01F
:100D400079F80121114800F02EF801210F4800F038
:100D50001FF80E4800F0CAF800BF0C4800F038F841
:100D60000028FAD1094800F0D1F800BF074800F088
:100D700025F80028FAD10121044800F0BCF805B09C
:100D800000BD0000000801400010014000240140A7
:100D900021B1826842F00102826003E0826822F0A1
:100DA00001028260704721B1826842F480728260E1
:100DB00003E0826822F4807282607047014600205E
:100DC0008A6812F0040F01D0012000E00020704773
:100DD000014600208A6812F0080F01D0012000E0CF
:100DE0000020704730B502460020002350680F4CA9
:100DF00020400D790C6844EA052420435060906837
:100E00000B4C2040D1E902542C434D7944EA45046F
:100E100020439060D06A20F470000C7C641EE4B221
:100E2000234340EA0350D06230BD0000FFFEF0FFD4
:100E3000FDF7F1FFF0B504460D4600200021092D15
:100E400011DDE068A5F10A0606EB4607072606FA5B
:100E500007F18843A5F10A0606EB460603FA06F1F8
:100E60000843E0600CE0206905EB4507072606FA19
:100E700007F1884305EB450603FA06F108432061B4
:100E8000072A0FDA606B561E06EB86071F2606FA46
:100E900007F18843561E06EB860605FA06F108435D
:100EA000606322E00D2A0FDA206BD61F06EB86075F
:100EB0001F2606FA07F18843D61F06EB860605FAB9
:100EC00006F10843206310E0E06AA2F10D0606EB8C
:100ED00086071F2606FA07F18843A2F10D0606EBE6
:100EE000860605FA06F10843E062F0BD816841F02C
:100EF00008018160704721B1826842F4A0028260DB
:100F000003E0826822F4A00282607047816841F0A9
:100F1000040181607047000008B50121082004F039
:100F2000FBFB0320ADF8000002208DF80200142026
:100F30008DF8030069460E4802F0D2F84FF40040E5
:100F4000ADF8000002208DF8020004208DF80300A7
:100F50006946084802F0C4F80121054802F09DF9ED
:100F60000221034802F099F9034800F007F808BD90
:100F7000000C014000080140A086010000BF411E96
:100F80000800FCD17047000070B50221144802F03F
:100F900084F90121124802F07EF90024002518E0AE
:100FA00001210F4802F079F90A20FFF7E7FF6006F8
:100FB000040E02210A4802F065F908B144F0010468
:100FC0000121074802F067F90A20FFF7D7FF681CE4
:100FD000C5B2082DE4DB00F0E3F8204670BD000048
:100FE000000C014070B50221144802F056F90121AD
:100FF000124802F050F90024002518E001210F48A2
:1010000002F04BF90A20FFF7B9FF6006040E022137
:101010000A4802F037F908B144F0010401210748F9
:1010200002F039F90A20FFF7A9FF681CC5B2082DA4
:10103000E4DB00F04FF8204670BD0000000C0140DA
:1010400010B50221154802F028F90A20FFF796FF93
:101050000121124802F021F90A20FFF78FFF022137
:101060000E4802F00FF908B9012010BD02210B480B
:1010700002F011F90A20FFF781FF0121074802F071
:101080000AF90A20FFF77AFF0221044802F0FAF871
:1010900008B10220E9E70020E7E70000000C01406A
:1010A00010B502210A4802F0F6F80A20FFF766FFA1
:1010B0000121074802F0F1F80A20FFF75FFF022143
:1010C000034802F0EAF80A20FFF758FF10BD0000BD
:1010D000000C014010B502210A4802F0DCF80A2099
:1010E000FFF74CFF0121074802F0D7F80A20FFF76D
:1010F00045FF0121034802F0CEF80A20FFF73EFF2A
:1011000010BD0000000C014070B5044601212348C9
:1011100002F0C1F8002520E014F0800F04D0022175
:101120001E4802F0BAF803E002211C4802F0B3F8AE
:101130006006040E0A20FFF721FF0121174802F084
:10114000ACF80A20FFF71AFF0121144802F0A3F8B7
:101150000A20FFF713FF681CC5B2082DDCDB022153
:101160000E4802F09AF80A20FFF708FF01210B4809
:1011700002F093F80A20FFF701FF0221074802F06E
:1011800081F828B10121054802F085F8002070BDE2
:101190000121024802F07FF80120F8E7000C01402D
:1011A00010B502210A4802F078F80A20FFF7E6FE9F
:1011B0000121074802F071F80A20FFF7DFFE012144
:1011C000034802F068F80A20FFF7D8FE10BD0000BF
:1011D000000C014010B5044603E04FF47A7000F0B3
:1011E00005F82000A4F10104F7D110BD014605E087
:1011F000002001E0421CD0B20A28FBDB0A00A1F16A
:101200000101F5D170472DE9F04106460F4614461D
:101210001D46FFF715FF002141EA4601C8B2FFF75E
:1012200073FF3846FFF770FFFFF70AFF012101EB5C
:101230004601C8B2FFF768FF0BE0012C03D1FFF7AE
:10124000A3FE287002E0FFF7CDFE28706D1C601E23
:10125000C4B2002CF1D1FFF723FF0020BDE8F081DC
:101260002DE9F04105460E4617469846FFF7E8FE81
:10127000002141EA4501C8B2FFF746FF3046FFF7BB
:1012800043FF002405E018F80400FFF73DFF601C51
:10129000C4B2BC42F7DBFFF703FF0020BDE8F081DA
:1012A0001CB56E4A126811786C4A526810786B4609
:1012B0000122FFF7A8FF08B101201CBD9DF8000026
:1012C000682809D066A007F067F99DF800106EA0A5
:1012D00007F062F90220F0E780208DF800005F4AF5
:1012E0001268917C5D4A526810786B460122FFF7C4
:1012F000B7FF08B10320E0E76420FFF76BFF002091
:101300008DF80000554A1268917C544A5268107852
:101310006B460122FFF7A4FF08B10420CDE74F4A36
:101320001268917D4D4A526810786B460622FFF78D
:101330006AFF08B10520C0E79DF80500C007400F0F
:101340009DF8031001F0010140EA41009DF80110F1
:1013500001F0010140EA010484B1012C03D1012113
:101360003E48C1742DE0022C03D100213B48C174DA
:1013700027E047A007F010F906209EE7374A1268D9
:10138000D178364A526810786B460122FFF73BFF4E
:1013900008B1072091E79DF8000000F00F0424B980
:1013A00042A007F0F9F8052087E7042C06D144A0F5
:1013B00007F0F2F801212948C17402E00021274812
:1013C000C174FF2125488172FF2024490872FF2142
:1013D00022484172C1724FF6FF71C181FF21017431
:1013E00081740121017380F82210002180F82310FC
:1013F000417501751630016041608160163880F8D2
:10140000241080F82510C1844FF4FA600BF0D6F850
:1014100008B1102051E702200AF0A0FF08B1112006
:101420004BE72A200BF044F908B1122045E732209F
:101430000BF080F908B113203FE700200AF09EFB73
:1014400008B1142039E700200AF0CAFF08B11520BE
:1014500033E700200BF0BCF900202EE76C000020E1
:10146000493243B4D3BBFAB5D8D6B7C9E8D6C3B46A
:10147000EDCEF3A3ACC7EBBDAB414430B6CBBFDA86
:10148000BDD3B5D80D0A000025640D0A0000000088
:10149000556E737570706F727465642076657273C3
:1014A000696F6E3D312E300D0A00000050726F647E
:1014B000756374204944206572726F720D0A0000D2
:1014C00048616C662053656E7369746976697479D6
:1014D00020506172740D0A0010B5FFF7E1FE21A0E3
:1014E00007F05AF878200BF073F910B121A007F03B
:1014F00053F878200AF042FB10B123A007F04CF813
:1015000064200BF017F910B124A007F045F808F09B
:1015100007FF10B126A007F03FF82B480AF058FA51
:10152000044609F053F910B128A007F035F840F24D
:10153000731008F09DFD10B12BA007F02DF864206A
:1015400009F074F810B12CA007F026F80BF0A1FAFE
:1015500001200AF0EBFF10B12DA007F01DF80020CC
:1015600010BD0000444D50B3F5CABCBBAFB3C9B900
:10157000A60D0A00444D50C9E8D6C3B4ABB8D0C6D6
:10158000F7B4EDCEF30D0A00444D50C9E8D6C3467A
:1015900049464FCAA7B0DC0D0A000000444D50C9AF
:1015A000E8D6C3B2C9D1F9C2CACAA7B0DC0D0A00D5
:1015B000444D50BCD3D4D8D4CBB6AFB9CCBCFECA02
:1015C000A7B0DC0D0A0000004C000020444D50B3D1
:1015D000F5CABCB7BDCFF2C9E8B6A8C6ABB2EEB388
:1015E000F6B4ED0D0A000000444D50CAB9C4DCB396
:1015F000F6B4ED0D0A000000444D50C9E8D6C346CC
:1016000049464FCBD9C2CACAA7B0DC0D0A000000B8
:10161000444D50C6F4B6AFCAA7B0DC0D0A000000B6
:1016200088B01AE18D488E498E4B8F4ACDE9001063
:101630008E498F4808F080FE8948008810F4807F2A
:101640007DD089490868FFF7D6F804464FF09D41E0
:10165000FEF709FF8749086083494868FFF7CBF820
:1016600004464FF09D41FEF7FEFE834908607E4927
:101670008868FFF7C0F804464FF09D41FEF7F3FE7F
:101680007E4908607849C868FFF7B5F804464FF00E
:101690009D41FEF7E8FE7A490860764801684FF000
:1016A0008040FEF7AAFE0690744801680698FEF78F
:1016B000A4FE8246704801684FF04040FEF79DFE50
:1016C00006906F4801680698FEF797FE83465146DC
:1016D000FEF73BFE0790FFF7C9F8064607F0DAFC75
:1016E00080464FF06632674BFEF7A4FF0446FFF7D3
:1016F000E5F865490860614801684FF08040FEF7F1
:101700007CFE03905D4801680398FEF776FE8246F2
:10171000594801684FF04040FEF76FFE039056486D
:1017200001680398FEF769FE83465146FEF75FFEA7
:1017300081464FF07E51FEF708FE044600E086E049
:10174000FFF794F8CDE904014A4801684FF0804062
:10175000FEF753FE8346484801685846FEF74DFEA3
:101760008146464801684FF08040FEF746FE8346BA
:10177000434801685846FEF740FE82464946FEF758
:10178000E4FD0446FFF772F80746DDE9042307F09D
:10179000D1FE4FF066323B4BCDE90601FEF74AFF22
:1017A0000546FFF78BF8394908603548016800683D
:1017B000FEF723FE0390314801680068FEF71DFE26
:1017C00002902D4801680068FEF717FE83462948FD
:1017D00001680068FEF711FE59460190FEF7B5FD5D
:1017E00082460299FEF703FE81460399FEF7FFFD4C
:1017F0000446FFF73BF8CDE90401214801681D4884
:101800000068FEF7FAFD82461C4801681A48006825
:10181000FEF7F3FD83465146FEF797FD81464FF0F4
:101820008041FEF7EAFD0446FFF720F80746DDE9B0
:10183000042307F07FFE4FF06632124BCDE906011C
:10184000FEF7F8FE0546FFF739F811490860052351
:1018500000221146104602F045FFE3E6A6000020F4
:10186000A4000020A8000020C01A00209E00002034
:10187000980000205C000020600000206400002030
:101880006800002066A64C40B0000020AC0000209C
:101890005800002079E03D48007801286FD10020F1
:1018A0003A4908703A480078822868D13848407828
:1018B000812864D136488078802860D100220221B6
:1018C000344800F0A9FB324840793149097940EAAF
:1018D0000120314908802E48C07B2D49897B40EA90
:1018E00001202E4908802A48C0792949897940EA8F
:1018F00001202B4908802648407B2549097B40EA86
:10190000012028490880224890F83100204991F8A8
:10191000301040EA0120244908801D4890F8350025
:101920001B4991F8341040EA0120204908801848EA
:1019300090F83700164991F8361040EA01201C490A
:101940000880134890F83900114991F8381040EA9E
:101950000120184908800E4890F83B000C4991F886
:101960003A1040EA01201449088000201349087009
:101970001349087001220221064800F04DFB05239F
:1019800000221146104602F0ADFE84E7EC00002074
:10199000D01A0020006400402C0000203E000020EF
:1019A000340000202E0000203000002036000020EF
:1019B000380000203A0000203C000020E500002014
:1019C000E60000205BE000242D48007810F0800F36
:1019D0000FD02B48007800F03F04240429480088E9
:1019E000044429480088241A284804600020244917
:1019F00008702748007810F0800F0FD02448007836
:101A000000F03F042404234800880444224800884E
:101A1000241A1E48446000201D4908701F480078A1
:101A200010F0800F0FD01D48007800F03F04240410
:101A30001B48008804441B480088241A134884600B
:101A40000020164908701848007810F0800F0FD059
:101A50001548007800F03F0424041448008804442A
:101A600013480088241A0948C46000200E490870F1
:101A7000052300221146104602F034FE00BFA2E703
:101A800017010020240100201C0100204402002036
:101A900018010020260100201E010020190100204D
:101AA00028010020200100201A0100202A01002026
:101AB0002201002000B587B0032000214FF480727E
:101AC000494BCDE90132CDE9031001200346474AD5
:101AD0000090474802F05EFB06AA46A1012002F0F2
:101AE00077FC032000214FF48072464BCDE90310B0
:101AF000CDE9013200900346434A444802F04AFBD4
:101B000006AA43A1032002F063FC032000214FF446
:101B10008072424BCDE90132CDE903100420034627
:101B20003F4A00903F4802F035FB06AA3EA1042040
:101B300002F04EFC032000214FF400723D4BCDE932
:101B40000132CDE90310052003463B4A00903B4893
:101B500002F020FB06AA3AA1052002F039FC06A8F3
:101B60003AA100223B4BCDE9002102900222012143
:101B7000084602F095FE384908609DF8180020B923
:101B800006A93548006802F0E7FE06A833A1002246
:101B9000344BCDE90021029002220121084602F0D7
:101BA0007FFE2D4908609DF8180020B906A92A4833
:101BB000006802F0D1FE06A82BA100222C4BCDE933
:101BC0000021029002221146012002F069FE224902
:101BD00008609DF8180020B906A91F48006802F0A7
:101BE000BBFE07B000BD000054060020500A0020D4
:101BF000C519000843617074757265204465616C95
:101C000000000000540A0020500E00209518000823
:101C100043414E204465616C00000000540E0020DA
:101C20005012002021160008415454204465616C74
:101C30000000000054120020501A0020751C0008FB
:101C4000475053204465616C000000006E7266745A
:101C50006D7200001D6F00081800002066696C6539
:101C6000746D7200ED2B00086C6564746D72000079
:101C70002D35000805E0052300221146104602F02C
:101C800031FDF8E707F016FD00F0E1FA00F042F848
:101C900002F054FAFFF70EFF06E04FF4FA73002249
:101CA0001146104602F01EFDF7E700000FB400B524
:101CB00097B019A80190512102A8019B189A06F02B
:101CC0008FFC002001906A4600210848006802F05D
:101CD00065F902A906A006F05FFC0448006802F05E
:101CE000D9F9009017B05DF814FB0000280000201F
:101CF0002573000070477047704770477047704702
:101D00007047704700B585B0684603F015FD01982F
:101D100005B000BD70B5FFF7F5FF04464FF47A70CB
:101D2000B4FBF0F5284602F0CFFF70BD00BFFEE720
:101D3000B1F5007F3AD00FDC202928D006DC01293C
:101D40001CD004291DD0082940D11DE0402921D0F4
:101D5000B1F5807F3AD126E0B1F5004F31D006DCF5
:101D6000B1F5806F25D0B1F5006F2FD124E0B1F52A
:101D7000803F12D0B1F5003F28D111E0154A8260B2
:101D800025E00822C26022E01022C2601FE0082283
:101D900002611CE01022026119E00822426016E094
:101DA0001022426013E00422426010E004224260EC
:101DB0000DE0042242600AE00022826104224260B7
:101DC00005E0002282610422426000E000BF00BF03
:101DD000704700000101010000B589B00121042015
:101DE00003F09AFC0121480603F076FC4FF40060F2
:101DF000ADF8040003208DF8060004208DF80700DC
:101E000001A92D4801F06CF94FF48050ADF80400A1
:101E100018208DF8070001A9274801F061F927482B
:101E200000F05AF806A800F002FA00208DF81E0013
:101E300001208DF81F0000208DF820008DF8210072
:101E40008DF8220001208DF8230000208DF81A0063
:101E50008DF81B0002208DF81C0001208DF81D005C
:101E60000620ADF8180006A9144800F0DEF810B9F5
:101E700013A006F091FB00208DF812008DF81300DE
:101E800001208DF814000020ADF80800ADF80A001C
:101E9000ADF80C00ADF80E00ADF8100001208DF883
:101EA000150001220221054800F0B6F802A800F052
:101EB0002FF809B000BD0000000801400064004098
:101EC00043414EC4A3BFE9B3F5CABCBBAFCAA7B078
:101ED000DC210D0A0000000010B504460B488442C6
:101EE00009D10121480603F007FC00214FF00070E2
:101EF00003F002FC08E00121880603F0FDFB00214D
:101F00004FF0806003F0F8FB10BD0000006400405B
:101F100010B50021837A012202FA03F13D4A1268CA
:101F200042F001023B4B1A603A4A1C3212688A4363
:101F3000384B1C331A60027BCAB9364A0C3212681D
:101F40008A43344B0C331A604288C38842EA034305
:101F5000304A4032847A42F834300288838842EA38
:101F600003432C4A4032847A02EBC4025360027B62
:101F7000012A19D1274A0C3212680A43254B0C3327
:101F80001A604288038842EA0343224A4032847A34
:101F900042F83430C288838842EA03431D4A403203
:101FA000847A02EBC4025360C27A3AB9194A121D0C
:101FB00012688A43174B1B1D1A6006E0154A121D52
:101FC00012680A43134B1B1D1A60028932B9114A69
:101FD000143212688A430F4B14331A600289012AA3
:101FE00006D10C4A143212680A430A4B14331A60A1
:101FF000427B012A06D1074A1C3212680A43054B6C
:102000001C331A60034A126822F00102014B1A6065
:1020100010BD0000006600401AB143690B434361E4
:1020200002E043698B434361704730B502460020AC
:102030000023146824F002041460146844F00104BE
:10204000146000E05B1C546814F0010F03D1A3F589
:102050007F44FF3CF6D1546814F0010F01D10020F9
:102060006CE08C79012C04D1146844F08004146075
:1020700003E0146824F080041460CC79012C04D1AE
:10208000146844F04004146003E0146824F0400431
:1020900014600C7A012C04D1146844F020041460FC
:1020A00003E0146824F0200414604C7A012C04D15D
:1020B000146844F01004146003E0146824F0100461
:1020C00014608C7A012C04D1146844F00804146064
:1020D00003E0146824F008041460CC7A012C04D1C5
:1020E000146844F00404146003E0146824F0040449
:1020F00014608C78A407CD7844EA05640D7944EA2D
:1021000005444D7944EA05540D886D1E2C43D46175
:10211000146824F001041460002300E05B1C546880
:1021200014F0010F03D0A3F57F44FF3CF6D15468AF
:1021300014F0010F01D0002000E0012030BD10B5E7
:1021400000F5D87303EB01131B6803F0040313724B
:10215000137A53B900F5D87303EB01131B6840F2EF
:10216000FF7404EA5353136009E000F5D87303EBDE
:1021700001131B686FF0604404EAD303536000F559
:10218000D87303EB01131B6803F00203537200F5CD
:10219000D87303EB01135B6803F00F03937200F530
:1021A000D87303EB01135B681B0AD37400F5D87373
:1021B00003EB01139B68D37200F5D87303EB011393
:1021C0009B681C0A147300F5D87303EB01139B681A
:1021D0001C0C547300F5D87303EB01139B681B0EA2
:1021E000937300F5D87303EB0113DB68D37300F529
:1021F000D87303EB0113DB681C0A147400F5D87361
:1022000003EB0113DB681C0C547400F5D87303EB6B
:102210000113DB681B0E937421B9C36843F02003DC
:10222000C36003E0036943F02003036110BD002194
:102230008171C171017241728172C1728170C1700C
:10224000032101710221417101210180704710B504
:1022500000F0ACF800F004F800F0A4F810BD0000A5
:1022600070B50026002018490880184908801849D0
:10227000086018490860184908601849086018493A
:102280000860002400BFFDF773FF064600BF00256D
:102290000BE000201049086000F024F800F03CF842
:1022A0000D4800680444681C85B2002DF1D00C482C
:1022B00004600020084908600849086000BF3046F3
:1022C000FDF75AFF00BF70BDBC010020BE01002019
:1022D000C0010020C4010020CC010020D00100205A
:1022E000C801002010B509480088401C0749088033
:1022F0000748008818B900F083F8064908600448C8
:102300000088401C0249088010BD0000BC0100206C
:10231000BE010020C001002010B50F480088401EFB
:102320000D49088008460088A0B900F069F80B49FB
:102330000860084600680A490968441A09480068A4
:10234000A04201D20748046007480068A04201D2B9
:102350000548046010BD0000BE010020C40100203B
:10236000C0010020CC010020D001002010B50024C5
:1023700000BF00BFFDF7FCFE044600BFFFF7B2FF41
:1023800000BF1021064801F0BDFA00BFFFF7C4FFEF
:1023900000BF2046FDF7F0FE00BF00BF10BD0000EB
:1023A0007822002010B5FFF7E1FF10BD10B5002026
:1023B0000249086000F00AF810BD0000B8010020D2
:1023C0000149086070470000B801002010B5FFF710
:1023D00099FC04460848006840F08070064908608F
:1023E0000020064948600846006840F00100086087
:1023F0002046FFF7E5FF10BDFCED00E0001000E017
:102400000149486870470000001000E070B52A25B7
:102410004FF4803400E0641E24B1802003F002FBFE
:102420000028F8D014B90325284670BD40F2FF50AB
:1024300003F0B0FA2846F8E72DE9F04106462A27CE
:102440004748456B01E04648456B15F0450FFAD00B
:1024500015F0040F06D00327042003F09BFA38463A
:10246000BDE8F08115F0010F05D00127012003F030
:1024700091FA3846F4E703F0CFFAB04202D01027C1
:102480003846EDE740F2FF5003F084FA002003F0F5
:10249000E9FA04463348044201D13846E0E714F033
:1024A000004F01D01C20DBE714F0804F01D0092041
:1024B000D6E714F0005F01D00A20D1E714F0805F66
:1024C00001D00B20CCE714F0006F01D00C20C7E73F
:1024D00014F0806F01D00D20C2E714F0807F01D08E
:1024E0000E20BDE714F4000F01D00F20B8E714F45C
:1024F000800F01D01020B3E714F4001F01D0112089
:10250000AEE714F4801F01D01220A9E714F4002FC5
:1025100001D01320A4E714F4802F01D014209FE7EA
:1025200014F4003F01D015209AE714F4803F01D045
:10253000162095E714F4004F01D0172090E714F40B
:10254000804F01D018208BE714F4005F01D01920D0
:1025500086E714F0080F01D01A2081E738467FE79C
:102560000080014008E0FFFD70B52A250F48446B4C
:1025700001E00E48446B14F0450FFAD014F0040F3C
:1025800005D00325042003F005FA284670BD14F099
:10259000010F05D00125012003F0FCF92846F5E7DD
:1025A00040F2FF5003F0F6F92846EFE700800140C3
:1025B00070B52A250B48446B01E00A48446B14F0BF
:1025C000450FFAD014F0040F05D00325042003F0C2
:1025D000E1F9284670BD40F2FF5003F0DBF92846D0
:1025E000F8E70000008001402DE9F04106460F4663
:1025F0004FF02A082248456B01E02148456B15F051
:10260000450FFAD015F0040F07D04FF0030804204F
:1026100003F0C0F94046BDE8F08115F0010F06D087
:102620004FF00108012003F0B5F94046F3E703F04D
:10263000F3F9B04203D04FF010084046EBE740F208
:10264000FF5003F0A7F9002003F00CFA044614F43D
:10265000604F03D1200C38804046DCE714F4005F63
:1026600001D01320D7E714F4804F01D01020D2E717
:1026700014F4004F01D00F20CDE74046CBE7000017
:102680000080014070B52A264FF480350F48446B16
:1026900002E06D1E0D48446B14F0450F01D1002D72
:1026A000F7D115B114F0040F05D00326042003F070
:1026B00071F9304670BD14F0400F05D02A26402035
:1026C00003F068F93046F5E73046F3E70080014053
:1026D00010B500F009F8FEF7BDFA10BD10B50220E4
:1026E00000F048F810BD000000B58BB0012108468D
:1026F00002F0E2FF154800F057F815480090154821
:10270000019000200290142003900020049080206B
:10271000059040000690800007902020089000025D
:10272000099000200A906946084800F002F901214A
:10273000064800F02DF8022000F00EF801220221D8
:10274000024800F0EDF80BB000BD000008000240A8
:102750004C2401408C1A002010F0805F02D0034905
:10276000086001E00249486070470000040402402C
:102770000000024010F0805F02D00349086001E0D1
:102780000249486070470000040402400000024013
:1027900021B1026842F00102026004E002684FF6D3
:1027A000FE731A400260704701684FF6FE721140D6
:1027B00001600021016041608160C1604B49884235
:1027C00008D14A490839496841F00F01474A083A97
:1027D00051608AE045491431884208D1434908399B
:1027E000496841F0F001414A083A51607DE03F49B3
:1027F0002831884208D13D490839496841F470615F
:102800003A4A083A516070E038493C31884208D170
:1028100036490839496841F47041344A083A5160F0
:1028200063E032495031884208D13049083949685B
:1028300041F470212D4A083A516056E02B49643129
:10284000884208D129490839496841F47001274A6A
:10285000083A516049E025497831884208D1234936
:102860000839496841F07061204A083A51603CE0FB
:102870001F49884206D1011F096841F00F01021F5C
:10288000116032E01A491431884208D11849091FF1
:10289000096841F0F001164A121F116025E0144941
:1028A0002831884208D11249091F096841F4706132
:1028B0000F4A121F116018E00D493C31884208D1BF
:1028C0000B49091F096841F47041094A121F116040
:1028D0000BE007495031884207D10549091F0968B3
:1028E00041F47021024A121F116070470800024033
:1028F0000804024001460020002211F0805F02D04F
:10290000054B1A6801E0054B1A680A4201D0012004
:1029100000E0002070470000000402400000024078
:102920001AB103680B43036002E003688B43036042
:10293000704710B50022026847F6F0739A430C6A9C
:102940008B6823430C6923434C6923438C692343DD
:10295000CC6923434C6A23438C6A23431A430260A5
:10296000CB6843600B6883604B68C36010BD000098
:1029700030B50025012412E00B48006810F0200F4C
:1029800000D025430420084908310860322000F0B7
:1029900077F8042004490C3108606006040E002C0E
:1029A000EAD1284630BD00000818014030B5054680
:1029B000012415E0254203D008200B49086003E0FC
:1029C00008200949091D08600420074908603220D1
:1029D00000F056F804200449091D08606006040E42
:1029E000002CE7D130BD00001018014010B50121C6
:1029F000402002F091FE1C20064908801020C8707B
:102A000003208870044800F06BFB1C21024800F092
:102A100042FC10BDF80000200018014010B5202035
:102A2000034908804820C870024800F059FB10BDD7
:102A3000F80000200018014010B52020034908804C
:102A40001020C870024800F04BFB10BDF8000020B9
:102A500000180140704701460A2091FBF0F200FB8C
:102A6000121291FBF0F002EB0010C0B2704701B5FA
:102A700002E00098401E009000980028F9D108BD9F
:102A8000002101E04A1ED1B20200A0F10100F9D1FB
:102A9000704700007FB5194C19A0FFF707F926A071
:102AA000FFF704F930A0FFF701F90A2001F0DEFD7D
:102AB00016E004F11804A07D02A901F0D5FCDDE9BF
:102AC0000210014464225043B0FBF1F5206BCDE9C4
:102AD0000050A17D30A0DDE90232FFF7E7F824685D
:102AE000002CE6D14FF47A7135A005F055FD394838
:102AF000017839A005F050FD7FBD00007828002046
:102B00003D3D3D3D3D3D3D3D3D3D3D3D3D3D3D3DF5
:102B10003D3D3D3D3D3D3D3D3D3D3D3D3D3D3D3DE5
:102B20003D3D3D3D3D3D3D3D3D3D3D3D3D3D3D3DD5
:102B30003D3D0D0A000000002020D3C5CFC8BCB623
:102B4000202020CAB9D3C3D5BB2020CAA3D3E0D547
:102B5000BB2020B0D9B7D6B1C8202020C8CECEF136
:102B6000C3FB0D0A0000000020205072696F202076
:102B70002020205573656420202020467265652042
:102B80002020205065722020202020205461736B6B
:102B90006E616D650D0A0000202020253264202022
:102BA0002020253564202020202535642020202069
:102BB000253032642525202020202025730D0A0091
:102BC0005469636B2052617465203A20256420208B
:102BD0000D0A0000DC010020435055202055736190
:102BE00067653A20256425200D0A000070B504466B
:102BF0000D461A48007800282FD019480078401C4C
:102C00001749087008460178164800F0C9F81448BA
:102C10000078012804D002280AD0032818D10FE038
:102C20003723104A10A11348006805F043FC13E055
:102C300037230C4A10A10F48006805F03BFC0BE05D
:102C40003723084A0EA10B48006805F033FC03E067
:102C500000200349087000BF00BF70BD6D01002057
:102C60001C000020541A00204D6F7465632E747888
:102C700074000000780100204144432E74787400F1
:102C80004D5055363035302E7478740030B50446CA
:102C900004254FF4302000F06FF80546042D17D1BD
:102CA0000C48006940F002000A4908610846446186
:102CB000006940F0400008614FF4302000F05CF8FB
:102CC00005460448006941F6FD7108400149086164
:102CD000284630BD0020024004200B49C96811F08D
:102CE000010F01D001200EE00749C96811F0040F5F
:102CF00001D0022007E00449C96811F0100F01D08B
:102D0000032000E0042070470020024003480069CF
:102D100040F0800001490861704700000020024037
:102D200070B504460D460426F00200F025F806466C
:102D3000042E11D10948006940F0010007490861DB
:102D40002580F00200F018F806460448006941F6B4
:102D5000FE71084001490861304670BD0020024004
:102D600002480349486003484860704723016745AB
:102D700000200240AB89EFCD00B502460423FFF7E7
:102D8000ABFF034603E0FFF7A7FF0346521E012BEC
:102D900001D1002AF7D102B90523184600BD000071
:102DA0002DE9F04F89B081460C4637214846FDF7A2
:102DB000B4FA012C04D0022C2ED0032C68D139E0B7
:102DC00036480088FDF720FD83463549FDF74BFB6B
:102DD0008246FDF74BFD05460E4632480088FDF75A
:102DE00013FD83463049FDF73EFB8246FDF73EFD6D
:102DF00004AA63C22D4801882D4800882D4A1288F4
:102E0000CDE9002002912C4803882C4802882CA18F
:102E1000484605F0D1FB3CE03248C08831498988FA
:102E2000CDE900102F48438802882FA1484605F0BD
:102E3000C3FB2EE01A4931480068FDF7DEFA8246EE
:102E4000FDF714FD05460E4615492D480068FDF7AF
:102E5000D4FA8246FDF70AFD04AA63C22948B0F9F4
:102E600004002849B1F90210264AB2F90020264B85
:102E7000B3F90430CDE90032CDE902102248B0F9AF
:102E80000230B0F9002021A1484605F095FB00E092
:102E900000BF00BF09B0BDE8F08F00003000002087
:102EA0000000C84234000020000020413C00002007
:102EB0003A00002038000020360000202C000020BE
:102EC000253464202534642025346420253464208E
:102ED0002534642025352E31662025352E31660DAA
:102EE0000A0000008C1A0020253464202534642058
:102EF000253464202534640D0A000000AC00002055
:102F0000B0000020980000209E000020253564209D
:102F100025356420253564207C2025356420253521
:102F20006420253564207C2025342E31662025340C
:102F30002E31660D0A0000002DE9FC4180460D4649
:102F400000272A2400200090019008205F49086093
:102F500010204860402088600020C8604FF48060E6
:102F60000861084602F0BCFD1020FFF765FA044630
:102F70002A2C02D02046BDE8FC8155480088000478
:102F80005249086037204860402088600020C860AF
:102F90004FF480600861084602F0A2FD3720FFF779
:102FA0004BFA04462A2C01D02046E4E749484A4916
:102FB000086008204860302088600220C860002037
:102FC000086101204861084602F0FCFC002602E08E
:102FD00000BF701CC6B2142EFADB00203B4908600B
:102FE00033204860402088600020C8604FF4806033
:102FF0000861084602F074FD3320FFF71DFA04460D
:103000002A2C01D02046B6E709E04FF4001002F068
:1030100009FD20B102F05EFD4DF827007F1C2F480E
:10302000406B40F22A610842EFD0082002F0FAFC1F
:1030300028B1082002F0AEFC042420469BE70220C1
:1030400002F0F0FC28B1022002F0A4FC0224204689
:1030500091E7202002F0E6FC28B1202002F09AFC43
:103060000624204687E74FF4007002F0DBFC30B105
:103070004FF4007002F08EFC072420467BE740F2FC
:10308000FF5002F087FC00980006009901F47F4190
:1030900040EA0120009901F47F0140EA11200099E3
:1030A00040EA1160686001980006019901F47F41CF
:1030B00040EA0120019901F47F0140EA11200199C1
:1030C00040EA11602860204655E7000008200020F3
:1030D00030010020FFFF0F001C2000200080014075
:1030E0002DE9F0410246002500260020002300249F
:1030F000002791F803C00CF00F0591F803C01CF0F5
:10310000100F03D091F802C04CEA050591F800C0F9
:10311000BCF1000F31D0146800202BE04FF0010CFF
:103120000CFA00F3B1F800C00CEA03069E4220D16D
:1031300083004FF00F0C0CFA03F7BC4305FA03FCB5
:103140004CEA040491F803C0BCF1280F06D14FF0FB
:10315000010C0CFA00FCC2F814C00AE091F803C09C
:10316000BCF1480F05D14FF0010C0CFA00FCC2F87D
:1031700010C0401C0828D1D31460B1F800C0BCF1C5
:10318000FF0F34DD546800202EE000F1080C4FF0F2
:10319000010808FA0CF3B1F800C00CEA03069E42DD
:1031A00021D183004FF00F0C0CFA03F7BC4305FA52
:1031B00003FC4CEA040491F803C0BCF1280F05D1CC
:1031C00000F1080C08FA0CF8C2F8148091F803C05A
:1031D000BCF1480F07D100F1080C4FF0010808FAC4
:1031E0000CF8C2F81080401C0828CED35460BDE80B
:1031F000F0810000F0B50A460023002400210025DC
:1032000000F00046B6F1004F02D11D4EF16901E019
:103210001B4E7168C0F3034583B200F44016B6F547
:10322000401F08D121F07061154E766826F0706657
:10323000134F7E6012E000F48016B6F5801F06D1B1
:10324000032606FA05F4A14341F0706106E0460D3D
:10325000360103FA06F6B14341F0706122B1460D22
:10326000360103FA06F6314300F00046B6F1004F8E
:1032700002D1034EF16101E0014E7160F0BD00002A
:10328000000001400246002093680B4201D001205B
:1032900000E0002070474161704701617047000005
:1032A00009A100200BE00A5C124B1A8000BF114AF2
:1032B000121F128812F0400FF9D0421CD0B22A28F7
:1032C000F1D300BFFEE700000D0A456E7465722061
:1032D000486172644661756C745F48616E646C65C8
:1032E000722C2053797374656D2048616C742E0DB7
:1032F0000A0000000438014010B5012000F0FEF87B
:1033000004F0CCFEFEF768FDFFF770FB114802F0F9
:103310007DFA02221049114803F028FFFDF7FCFD59
:10332000FEF7DAF803F034FEFFF7D2F902F056F8B0
:1033300000F084FA0221012000F002F903210220AA
:1033400000F0FEF847214FF6FF7004F039FA03F061
:10335000B3FF10BD090000201400002000FC01088C
:103360007CB504462A250020019000905F48008823
:1033700000045F4908600D204860402088600020FC
:10338000C8604FF480600861084602F0A9FB594804
:10339000406B009002E05748406B0090009810F09E
:1033A000450FF8D0009810F0040F05D00325042035
:1033B00002F0F0FA28467CBD009810F0010F05D00D
:1033C0000125012002F0E6FA2846F4E702F024FB8A
:1033D000009000980D2802D010252846EBE740F217
:1033E000FF5002F0D7FA002002F03CFB0190019858
:1033F000C0F34320207040490198084201D128467B
:10340000D9E7019810F0004F01D01C20D3E70198B4
:1034100010F0804F01D00920CDE7019810F0005F37
:1034200001D00A20C7E7019810F0805F01D00B207F
:10343000C1E7019810F0006F01D00C20BBE70198A4
:1034400010F0806F01D00D20B5E7019810F0807F5B
:1034500001D00E20AFE7019810F4000F01D00F202B
:10346000A9E7019810F4800F01D01020A3E701987C
:1034700010F4001F01D011209DE7019810F4801F67
:1034800001D0122097E7019810F4002F01D01320EB
:1034900091E7019810F4802F01D014208BE7019858
:1034A00010F4003F01D0152085E7019810F4803F0B
:1034B00001D016207FE7019810F4004F01D01720AB
:1034C00079E7019810F4804F01D0182073E7019834
:1034D00010F4005F01D019206DE7019810F0080F7B
:1034E00001D01A2067E7284665E700003001002078
:1034F000082000200080014008E0FFFD0146490649
:10350000084A926942F00102064B9A61064A5268E3
:1035100022F0E062044B5A601A4652680A435A602D
:1035200070470000001002400000014070B50446E2
:103530000D4601F0E7FF00F05DF803F09FFF70BD5E
:10354000012825D1062922D2DFE801F0030B11154D
:10355000191D40F2E732244B1A800022234B1A70C7
:1035600015E00022204B1A80204B1A700FE0022237
:103570001E4B1A700BE003221C4B1A7007E004224A
:103580001A4B1A7003E00522184B1A7000BF00BFD7
:10359000022827D1062924D2DFE801F0030C1317F3
:1035A0001B1F40F2E732104B1B1F1A800022104BEA
:1035B0001A7016E000220C4B1B1F1A800C4B1A705D
:1035C0000FE002220A4B1A700BE00322084B1A701C
:1035D00007E00422064B1A7003E00522044B1A7020
:1035E00000BF00BF70470000380400400501002004
:1035F0000601002000210020894A1278022A20D1E9
:10360000884A128811B2884A12781AB1A1F10A02C6
:1036100011B202E001F10A0211B2B1F57A7F06DBC4
:10362000814A1278D243804B1A7040F2E731002968
:1036300005DA7D4A1278D2437B4B1A700021794B10
:1036400019807A4A1278022A22D1764A121F1288E9
:1036500010B2774A12781AB1A0F10A0210B202E051
:1036600000F10A0210B2B0F57A7F06DB704A1278D8
:10367000D2436F4B1A7040F2E730002805DA6C4AEB
:103680001278D2436A4B1A700020664B1B1F1880B9
:10369000634A1278032A1BD1664A1288521C654B72
:1036A0001A801A4612880A2A03DA00225D4B1A8011
:1036B00007E0604A12880A2A03DD40F2E732594BDC
:1036C0001A805C4A1288142A02D10022594B1A80AF
:1036D000564A1278032A1DD1574A1288521C564B5B
:1036E0001A801A4612880A2A04DA00224D4B1B1F40
:1036F0001A8008E0504A12880A2A04DD40F2E732B4
:10370000484B1B1F1A804C4A1288142A02D10022EF
:10371000494B1A80424A1278042A1BD1454A128822
:10372000521C444B1A801A461288142A03DA0022CB
:103730003C4B1A8007E03F4A1288142A03DD40F20E
:10374000E732384B1A803B4A1288282A02D10022DD
:10375000384B1A80354A1278042A1DD1364A12880D
:10376000521C354B1A801A461288142A04DA002299
:103770002C4B1B1F1A8008E02F4A1288142A04DDE4
:1037800040F2E732274B1B1F1A802B4A1288282A47
:1037900002D10022284B1A80214A1278052A1BD117
:1037A000244A1288521C234B1A801A461288322A45
:1037B00003DA00221B4B1A8007E01E4A1288322AC5
:1037C00003DD40F2E732174B1A801A4A1288642A46
:1037D00002D10022174B1A80144A1278052A1DD1F3
:1037E000154A1288521C144B1A801A461288322A23
:1037F00004DA00220B4B1B1F1A8008E00E4A1288C5
:10380000322A04DD40F2E732064B1B1F1A800A4AB7
:103810001288642A02D10022074B1A8070470000E8
:1038200005010020380400400701002006010020A7
:10383000080100200A0100200C01002000B589B019
:103840000121022001F048FF0121112001F064FF55
:1038500001212848FFF7CEFCC020ADF82000182039
:103860008DF8230003208DF8220008A92248FFF7D5
:1038700037FC40F2E730ADF818000020ADF8140036
:10388000ADF81A00ADF8160005A91C4804F0B4FB09
:103890006020ADF804000120ADF806000020ADF86E
:1038A0000A00ADF80C0001A9144804F01DFA082123
:1038B000124804F065FA6020ADF804000120ADF86C
:1038C000060040F2E730ADF80A000020ADF80C0029
:1038D00001A90A4804F05EFA0821084804F0ACFA8D
:1038E0000121064804F088F90121044804F090F908
:1038F00009B000BD000C1A00001001400004004097
:1039000000BFFEE730B505460C462246002128469A
:1039100000F001F830BD2DE9F04105460B46944614
:103920000027002402E03F021F43641C042CFAD34A
:10393000604605F00306294646B1344603E001F827
:10394000013B401E641C08B1042CF8D30A4601E078
:1039500080C2001F0428FBD2114602E001F8013B9F
:10396000401E0028FAD1BDE8F08170471FB510A1B4
:1039700003C9CDE90201052202A9302003F0B0FB02
:1039800005226946102003F083FB002406E01DF8A1
:103990000400C22800D003E0601CC4B2052CF6DB92
:1039A00000BF052C02D1012004B010BD0020FBE7B0
:1039B000C2C2C2C2C200000010B54FF480611748F5
:1039C000FFF769FC05221649302003F089FB052228
:1039D00014492A2003F084FB0121212003F0A8FBD5
:1039E0000121222003F0A4FB1A21242003F0A0FBD4
:1039F0000521252003F09CFB2721262003F098FBBE
:103A00000E21202003F094FB4FF480610348FFF760
:103A100044FC4FF6FF70FFF72AF810BD0014014078
:103A2000CF000020D400002008B54FF4A06000F0C3
:103A3000BFF825208DF8000000208DF8010002203D
:103A40008DF8020001208DF80300684600F076F83A
:103A500010208DF8000002208DF8010000208DF864
:103A6000020001208DF80300684600F067F814207A
:103A70008DF8000000208DF8010001208DF8020073
:103A80008DF80300684600F059F800208DF800001A
:103A90008DF801008DF8020001208DF803006846C2
:103AA00000F04CF81C208DF8000001208DF801007A
:103AB00000208DF8020001208DF80300684600F018
:103AC0003DF81E208DF8000000208DF80100022036
:103AD0008DF8020001208DF80300684600F02EF8F2
:103AE0000B208DF8000001208DF8010003208DF8D7
:103AF000020001208DF80300684600F01FF83B200B
:103B00008DF8000001208DF8010002208DF80200E0
:103B100001208DF80300684600F010F831208DF880
:103B2000000002208DF8010000208DF80200012025
:103B30008DF80300684600F001F808BD70B500215B
:103B400000230F22C4780CB3164C246804F4E064FC
:103B5000C4F5E064210AC1F10403CA40447804FAC0
:103B600003F184781440214309010F4C0678A155D4
:103B7000047804F01F050124AC4005786D114FF066
:103B8000E02606EB8505C5F8004109E0047804F05D
:103B90001F050124AC40054D0678761145F82640F6
:103BA00070BD00000CED00E000E400E080E100E00A
:103BB00002490143024A1160704700000000FA0503
:103BC0000CED00E01D481E481E481F481F482048B5
:103BD0002048214821482248224823482348244895
:103BE0002448254825482648264827482748284865
:103BF0002848294829482A482A482B482B482C4835
:103C00002C482D482D482E482E482F482F48304804
:103C100030483148314832483248334833483448D4
:103C200034483548354836483648374837483848A4
:103C300038483948394800BF70470000E8D90008C3
:103C4000ECD90008F2D90008F4D90008F0D900082E
:103C5000F6D90008F8D90008FAD90008FCD90008FC
:103C6000FED9000800DA000802DA000804DA0008C9
:103C700006DA000808DA00080ADA00080CDA000898
:103C80000EDA000810DA000812DA000814DA000868
:103C900016DA000818DA00081ADA00081CDA000838
:103CA0001EDA000820DA000822DA000824DA000808
:103CB00026DA000828DA00082ADA00082CDA0008D8
:103CC0002EDA000830DA000832DA000834DA0008A8
:103CD00036DA000838DA00083ADA00083CDA000878
:103CE0003EDA000840DA000842DA0008582F0020C7
:103CF000D833002046DA000848DA00084ADA00081B
:103D00004CDA00084EDA000850DA000852DA0008EF
:103D100054DA000856DA000844DA000858DA0008D5
:103D20002DE9F04105460E46144600271DB9042032
:103D30002070BDE8F08116B90C202070F9E7114819
:103D4000007810B112202070F3E72878012808D0FD
:103D5000022807D0032802D0042804D100E000BFC5
:103D600000BF00BF02E001202070E2E700BFFCF7C7
:103D700015FA07466E613846FCF714FA00202070E9
:103D800000BFD6E7E901002010B500F013F801F0FC
:103D9000B1F801F0DDF801F0FDF801F07BF801F079
:103DA00033F901F059F900F03FFE00F021F8FFF778
:103DB00009FF10BD0A484FF4007102E0491E0022BD
:103DC00004C00029FAD1074A074B1A601A46126844
:103DD00022F007021A600022044B1A80704700008C
:103DE00010340020103C0020340200203802002053
:103DF0007047000006480078012808D1054800787F
:103E0000FF2804D203480078401C0249087070471C
:103E1000F6010020E901002010B500241A480078BE
:103E2000012830D1FCF7BAF904461848007820B1CF
:103E300016480078401E1549087014480078F8B9F3
:103E400013480078E0B901F073F912481249097873
:103E500050F82100114908600F480078104909788E
:103E600088420DD00D480068406B401C0B49096822
:103E700048630C480068401C0A490860FCF7B0F928
:103E80002046FCF78FF910BDF6010020E901002063
:103E9000EA01002078270020EC0100200402002025
:103EA000EB010020D401002010B500240B4800785D
:103EB000012811D1FCF772F904460948007840B98D
:103EC00008480078FF2804D206480078401C0549BD
:103ED00008702046FCF766F910BD0000F6010020CE
:103EE000E9010020EA01002010B500241348007801
:103EF000012821D1FCF752F9044611480078C0B9D5
:103F00001048007888B10F480078401E0D490870AD
:103F10000846007828B92046FCF744F901F0CEF8AD
:103F20000AE02046FCF73EF906E02046FCF73AF9A5
:103F300002E02046FCF736F910BD0000F601002033
:103F4000E9010020EA01002070B50546002610486E
:103F5000007808B1002070BDFCF720F906460D4836
:103F60000468006820B10B4800684068094908608F
:103F70003046FCF717F94CB1032020702581002052
:103F8000606005A06061204600F076FF2046E2E711
:103F9000E9010020D80100203F0000002DE9F04198
:103FA00005460E46144600271DB904202070BDE8C2
:103FB000F0812878032802D001202070F7E73248EA
:103FC000007810B102202070F1E73048007810B17D
:103FD0000D202070EBE7FCF7E1F80746288940B197
:103FE0002889401E28813846FCF7DCF80020207024
:103FF000DDE72748006890F82C0040F001002449D4
:10400000096881F82C0000202149096881F82D00F9
:104010001F4800688662284600F0F0FE3846FCF72C
:10402000C1F801F04BF8FCF7B9F8074618480068EA
:1040300090F82D0020B1012809D0022806D102E015
:10404000002020700BE00E20207008E000BF294601
:104050000F48006800F09CFE0A20207000BF00BFDF
:1040600000200B49096881F82C000949096881F88A
:104070002D0007490968C861054909680862384682
:10408000FCF790F800BF92E7E9010020EA01002068
:10409000FC01002070B5044600250CB9042070BD59
:1040A0002078032801D00120F9E7FCF777F80546CE
:1040B000A07A60B1002301221946204600F01EFEBE
:1040C0002846FCF76FF800F0F9FF0020E7E72089A9
:1040D0004FF6FF71884207D22089401C2081284674
:1040E000FCF760F80020DAE72846FCF75BF833209D
:1040F000D5E7000010B50B48007890B901F018F82A
:10410000094800780949087009480749097850F8B2
:104110002100084908600846006807490860FCF764
:1041200044F810BDF6010020EC010020EB01002056
:104130007827002004020020FC01002010B5002494
:10414000022000F093FAFCF729F8044600200B49FE
:1041500008602046FCF726F8642000F087FAFCF798
:104160001DF8044605480068054908600120054916
:1041700008702046FCF716F810BD0000F80100207A
:10418000E0010020E801002010B504462046FDF7BC
:10419000B1FD10BD2DE9F04F85B081468A469346AA
:1041A0001C46DDE90F78129D002003903F2C03D9B7
:1041B0002A2005B0BDE8F08FFBF7F0FF03902248FE
:1041C000007820B10398FBF7EDFF3C20F1E71F4892
:1041D00050F8240088BB01201C4941F824000398B2
:1041E000FBF7E0FF2A464146384601F0E9F82B4646
:1041F0005A465146484600F085F904901198CDE999
:10420000008002953A4620460E9B049900F0A6FFD6
:10421000064636B90E48007801280CD100F04EFF52
:1042200009E0FBF7BBFF03900020084941F8240098
:104230000398FBF7B7FF3046BBE7FFE70398FBF7B0
:10424000B1FF2820B5E70000E90100207827002011
:10425000F601002010B504462046FDF74CFD10BDC8
:1042600070B5054600264A48007808B1402070BD68
:104270003F2D01D13E20FAE73F2D03D3FF2D01D082
:104280002A20F4E7FBF78AFF0646FF2D03D14148B9
:10429000006890F82E50404850F8254024B9304628
:1042A000FBF780FF4320E2E7012C04D13046FBF707
:1042B00079FF3D20DBE714F8300F3849085C61785E
:1042C00088432178354A505414F830091146085C67
:1042D00030B994F832103248007888433049087079
:1042E000E06918B12046E16900F052FD206A18B17A
:1042F0002046216A00F063FD0020A06284F82C00B3
:1043000084F82D0027480078FF2804D2254800783B
:10431000401C244908703046FBF744FF00F0ECFCD9
:10432000FBF73CFF06461F48007820B11D48007887
:10433000401E1C490870204600F040F81A480078DA
:10434000401E194908700020134941F82500A06952
:1043500030B900206169886114496069086005E02E
:10436000D4E905014861D4E9051088611048006866
:1043700060610F4804600FA0A0643046FBF712FF95
:104380000D480078012801D100F098FE00206EE76A
:10439000E9010020FC01002078270020EE01002028
:1043A000ED010020EA010020F701002008020020B2
:1043B000000200203F000000F601002010B5044676
:1043C0002046FDF799FC10BD10B5FDF796FC10BD19
:1043D0002DE9F04105460F4614464FF000083F2DE9
:1043E00005D9FF2D03D02A202070BDE8F08117B930
:1043F0000C202070F9E71448007810B112202070CA
:10440000F3E7FBF7CBFE8046FF2D03D10F48006892
:1044100090F82E500E4850F825602EB94046FBF714
:10442000C1FE43202070E0E7012E05D14046FBF796
:10443000B9FE43202070D8E7B7644046FBF7B2FED0
:104440000020207000BFD0E7E9010020FC0100201F
:104450007827002010B504462046FDF74FFC10BD1C
:1044600010B5FDF74CFC10BD2DE9F04706460C4693
:104470004FF0000A3F2E04D9FF2E02D02A20BDE8BB
:10448000F0870CB90920FAE7002020606060FBF794
:1044900085FE8246FF2E03D11848006890F82E60F2
:1044A000174850F8265025B95046FBF77BFE4320AD
:1044B000E5E7012D04D15046FBF774FE4320DEE70B
:1044C000287C10F0010F04D15046FBF76BFE45200D
:1044D000D5E70027D5F80C90D5F808805046FBF7B3
:1044E00061FE00E07F1C58F8041B0029FAD0276009
:1044F000A9EB070060600020C1E70000FC0100207C
:104500007827002070B50446101D20F007004FF0FA
:104510008076051F28462E60051F28462C60214EF8
:10452000051F28462E604FF01236051F28462E60C4
:104530004FF00336051F28462E604FF00236051F48
:1045400028462E607610051F28462E60051F284637
:1045500029604FF01136051F28462E604FF01036A7
:10456000051F28462E604FF00936051F28462E608D
:104570004FF00836051F28462E604FF00736051FFE
:1045800028462E604FF00636051F28462E604FF055
:104590000536051F28462E604FF00436051F2846B5
:1045A0002E6070BDCD5200082DE9F04105464FF058
:1045B00000083F2D02D14720BDE8F0813F2D03D3F5
:1045C000FF2D01D02A20F7E7FBF7E8FD8046FF2DFD
:1045D00005D12048006890F82E50012608E01D48BB
:1045E000006890F82E00A84201D1012600E00026C4
:1045F000194850F8254024B94046FBF7D3FD482020
:10460000DAE7012C04D14046FBF7CCFD4320D3E789
:1046100094F830701148C05D94F8311088430F4908
:10462000C8550846C05D30B994F832100C4800787F
:1046300088430B49087094F82C0040F0080084F877
:104640002C004046FBF7AEFD012E01D100F036FDF7
:104650000020B1E7FC01002078270020EE010020B7
:10466000ED01002010B5FDF74BFB10BD70B5054600
:1046700000261748007800B170BD1648007800B1D8
:10468000FAE71DB3FBF78AFD06461348006890F869
:1046900030401248005D1049096891F83110884394
:1046A0000E4908550846005D40B90B48006890F86F
:1046B00032100B48007888430949087006480068A2
:1046C00085623046FBF76EFD00F0F8FC00BFD3E7D3
:1046D000E9010020EA010020FC010020EE01002099
:1046E000ED0100202DE9F04107460D4616461C4617
:1046F0001B48007810B15520BDE8F08119480078BA
:1047000008B13220F8E727B91DB916B90CB9542001
:10471000F2E73B2D01D95120EEE73B2E01D9522083
:10472000EAE7B4F57A7F01D35320E5E74FF47A70D6
:1047300060434FF47A71B0FBF1F14FF4616078435C
:10474000C5EB051200EB8200304400EB4002C2EBE7
:10475000C01001EBC0084046FFF788FF0020CBE700
:10476000E9010020EA01002070B504460025FBF7AE
:1047700015FD0546024804602846FBF713FD70BD91
:104780001002002070B5002600F076F8FBF706FD59
:10479000064633480068401C314908603046FBF744
:1047A00001FD30480078012857D12F48007820B10A
:1047B000012804D0022809D103E001250BE00025DF
:1047C00009E0012501202849087004E001250020A6
:1047D0002549087000BF00BF05B970BD23480468B3
:1047E00037E0FBF7DBFC0646A06A70B3A06A401E08
:1047F000A062A06A48BB94F82C0010F0370F09D0D3
:1048000014F82C0F00F0C800207001206070A4F193
:104810002C0402E0002084F82D0094F82C0010F005
:10482000080F12D104F13004A0781149097840EA48
:1048300001000F49087020780E49085C617840EA51
:10484000010014F830190B4A505464693046FBF7E4
:10485000A9FC94F82E003F28C3D100BFBDE700009B
:1048600010020020F60100200C02002008020020A7
:10487000ED010020EE01002010B5FDF742FA0748D7
:104880000088401C0549088008460088052803D395
:104890000020088000F056F810BD0000380200200B
:1048A0002DE9F05F06460F4690469946DDE90ABAC3
:1048B0000C9DB8F1010F09D0B8F1020F0CD127B946
:1048C000832028700020BDE8F09F09E01EB98220F7
:1048D00028700020F7E703E0842028700020F2E72A
:1048E00000BF1648007818B18B2028700020EAE736
:1048F000FFF7DAFA00F078F804462CB9FFF7F4FA7B
:10490000862028700020DEE7012084F82500A661BB
:10491000E76184F82480C4F80490C4F808B0BAF1C0
:10492000000F02D106A0206201E0C4F820A0FFF72A
:10493000DBFA002028702046C5E70000E9010020CE
:104940003F00000010B503480068FFF7A3FB0446D2
:10495000204610BD2002002070B505460C461DB94A
:104960008A202070002070BD2878642803D0892018
:1049700020700020F7E71B48007818B18B202070CA
:104980000020F0E7FFF790FA95F82500E8B101283C
:1049900010D002280FD003281DD1284600F062F95C
:1049A0000021284600F0E2F8FFF79EFA0020207070
:1049B0000120D8E700BF0021284600F0D7F8FFF714
:1049C00093FA002020700120CDE7FFF78DFA8720B1
:1049D00020700020C7E7FFF787FA8D2020700020A5
:1049E000C1E70000E90100200C48006808B9002078
:1049F00070470A480168094AC86810600020C8600A
:104A0000086107480088401C054A10800548008856
:104A1000401E044A10800846EAE7000024020020F5
:104A20001602002014020020F8B54FF42071284827
:104A300000F03AFB3821274800F036FB002514E04F
:104A4000681C86B205EB8500214901EBC00406EB2A
:104A5000860001EBC00764202070002084F8250048
:104A6000E7601DA02062681C85B20F2DE8D305EB1E
:104A70008500174901EBC00464202070002084F8F1
:104A80002500E06014A02062002014490860144949
:104A900008801020134908800D4813490860012040
:104AA000FFF752FA114908600020FFF74DFA10494C
:104AB00008606A460FA10D480068FFF731F96A46A1
:104AC00011A10B480068FFF72BF900F027F8F8BD9B
:104AD000582F0020D83300203F000000180200208B
:104AE0001602002014020020240200201C020020D4
:104AF0002002002075432F4F532D494920546D72D9
:104B00004C6F636B0000000075432F4F532D4949D4
:104B100020546D725369676E616C000000B587B0F8
:104B20000320002180220A4BCDE90132CDE9031098
:104B30004FF6FD703C23074A00900748FFF72AFB19
:104B400006AA06A13C20FFF743FC07B000BD000009
:104B5000D8310020D4330020E14B000875432F4F9B
:104B6000532D494920546D7200000000F0B50B46EA
:104B7000032580F82550012B05D1174EC5693668ED
:104B8000354445610CE085692DB9134EC569366819
:104B90003544456104E0104E856936683544456109
:104BA00007264569B5FBF6F706FB17540B4D05EBD9
:104BB000C4010D682DB908600025C56001258D80F0
:104BC00006E00A680860C26010618D886D1C8D80E7
:104BD00000250561F0BD000018020020D833002038
:104BE00008B500BF00BF6A4600211B480068FFF7F8
:104BF000D5F9FFF759F919480068401C17490860B2
:104C0000084600680721B0FBF1F201FB12081448C6
:104C100000EBC8073C681AE0E6681049606909685B
:104C2000884213D1204600F01DF894F82400022891
:104C300004D101212046FFF799FF02E0022084F809
:104C40002500656815B12046A168A8473446002CA8
:104C5000E2D1FFF749F9C6E7200200201802002040
:104C6000D8330020F0B507264569B5FBF6F706FBFB
:104C700017540D4D05EBC4021568854205D1C16876
:104C8000116039B100250D6104E00169C368CB6092
:104C900003B11961012580F825500025C560056123
:104CA00095886D1E9580F0BDD833002010B5FBF7B8
:104CB00075FA0446FFF79EF82046FBF773FAFFF7F4
:104CC00061FDFFF7A9F810BD411E4FF0E0225161D0
:104CD000FF21084A11704FF0E021096941F00501F8
:104CE0004FF0E02211611146096941F002011161A2
:104CF0007047000023ED00E0704700002DE9F04F01
:104D000005460F4690469946A87A1D490E5C05F166
:104D10000B00805D11F800B00BEBC60000F0FF0A3D
:104D2000184850F82A40002004F1240460602760ED
:104D3000207A20EA0800207284F80990207AA4F1F1
:104D4000240410F0080F0DD194F832000E490978B0
:104D500008430D4908700D48805D94F831100843F0
:104D60000A4988552946204600F012F8206A20B1E9
:104D70002046216A00F023F8E5615046BDE8F08F37
:104D8000E8D8000878270020ED010020EE0100207F
:104D900010B590F8302001F10B039B5C90F8314086
:104DA000A34301F10B04A35423469B5C23B98B7AE4
:104DB00090F83240A3438B720023C36110BDF0B55D
:104DC000024612F8304F95785678A2F130020B4621
:104DD00018680FE000F10B073F5DB74300F10B0CC3
:104DE0000CF8047067463F5D17B9877AAF43877246
:104DF0001B1D18680028EDD1F0BD000010B51B4A3E
:104E00001268D061194A126892F8303000F10B0232
:104E1000D25C164B1B6893F831301A43134B1B6856
:104E200093F8304000F10B031A55827A0F4B1B6840
:104E300093F832301A4382720C4A126892F830109A
:104E40000B4A525C094B1B6893F831309A43084B6C
:104E50005A541A46525C42B9044A126892F83230E7
:104E6000044A12789A43034B1A7010BDFC010020CB
:104E7000EE010020ED010020014600228A72002090
:104E800005E0002301F10B021354421CD0B20828A4
:104E9000F7D3704770B5F021134800F005F90024EE
:104EA00011E0601C85B204EB44000F4901EBC00324
:104EB00005EB450001EBC006002018705E600BA0FA
:104EC0005861601C84B2092CEBD304EB4400064902
:104ED00001EBC00300201870586004A05861084618
:104EE0000349086070BD0000882200203F000000D8
:104EF000D801002000200B4908600B4908700B49BD
:104F000008700B4908700B4908700B4908600B4981
:104F100008600B4908600B4908600B4908700B4991
:104F20000870704710020020E9010020EA0100200B
:104F3000F7010020F6010020D4010020F801002034
:104F4000E4010020E0010020E80100200D02002023
:104F500000210A4A1170002004E00021084A11547F
:104F6000411CC8B20828F8D30021064A1170064A2D
:104F70001170064A1160064A11607047ED01002069
:104F8000EE010020EB010020EC01002004020020D3
:104F9000FC01002070B54FF4DC61164800F084F885
:104FA0004FF48071144800F07FF800230FE0581C84
:104FB000C5B203EB83000F4901EB001405EB85003C
:104FC00001EB001666610DA0A064581CC3B2152B3E
:104FD000EDD303EB8300074901EB0014002060616F
:104FE00006A0A06400200649086002480549086040
:104FF00070BD000078280020782700203F000000C6
:10500000080200200002002000B587B00320002124
:1050100080220A4BCDE90132CDE903104FF6FF7033
:105020003F23074A00900748FFF7B4F806AA06A1F5
:105030003F20FFF7CDF907B000BD00007825002024
:1050400074270020A552000875432F4F532D49495E
:105050002049646C6500000000B587B00320002182
:1050600080220A4BCDE90132CDE903104FF6FE70E4
:105070003E23074A00900748FFF78CF806AA06A1CE
:105080003E20FFF7A5F907B000BD000078230020FF
:1050900074250020E552000875432F4F532D4949D0
:1050A000205374617400000004E0002200F8012B1A
:1050B0004A1E91B20029F8D17047000010B50024B3
:1050C000FBF76CF8044613480078F8B912480078EA
:1050D000E0B900F02DF811481149097850F8210085
:1050E000104908600E4800780F49097888420DD0B1
:1050F0000C480068406B401C0A49096848630B482B
:105100000068401C09490860FBF765F82046FBF77A
:1051100049F810BDE9010020EA01002078270020AD
:10512000EC01002004020020EB010020D40100204B
:105130000649074A1278885C0649095C034A515CB3
:1051400001EBC001044A117070470000E8D8000864
:10515000ED010020EE010020EC0100202DE9F84FC8
:1051600005460F4690469946DDE90AAB00200090BF
:10517000FBF714F8009044480468002C7FD054F8E2
:10518000140F414908600098FBF70CF844F8147CB0
:10519000A576002020766076606144F810BC44F863
:1051A00008AC44F80C8C0C9824F8040C24F8029CED
:1051B0000020E077E810207705F00700E076217FF7
:1051C00001208840A077E17E0120884060770020A0
:1051D000A060E06020612062A0626062E062206303
:1051E0002AA06063A4F114044FF0000606E0002139
:1051F00004F14C0040F82610701CC6B2002EF6D008
:105200002046FEF7C1FFFAF7C9FF0090204840F89A
:1052100025400098FAF7C6FF2046FFF71BF8FAF77B
:10522000BDFF00901B48006860610020A061194824
:10523000006810B11748006884611648046004F1E2
:105240003004A0781449097840EA01001249087036
:1052500020781249085C617840EA010014F830199E
:105260000E4A50540E48007800F101000C490870B5
:105270000098FAF797FF0020BDE8F88FFFE7009845
:10528000FAF790FF4220F7E7000200203F000000FD
:105290007827002008020020ED010020EE01002008
:1052A000F7010020002400BF00BFFAF777FF044693
:1052B00005480068401C044908602046FAF772FF60
:1052C000FFF782F8F1E70000F801002010B504486C
:1052D0000068FFF7BFF8FF20FEF7C2FF10BD000017
:1052E000FC01002000BF00BF02E0C820FFF7BEF9AC
:1052F0001F4800780028F8D01E4800686421B0FBE1
:10530000F1F01C4908600846006828B900201A49D5
:105310000870FF20FFF748F9FAF740FF04461548E8
:10532000006864214843154908602046FAF73AFFAF
:1053300000BFFAF733FF04461048006810490860C0
:1053400000200E4908602046FAF72CFF0C48006840
:1053500008490968B0FBF1F0C0F164000649087023
:10536000FFF77EF800F00EF86420FFF77FF9E0E722
:10537000E8010020E0010020DC010020F80100200D
:10538000E40100207CB5002514E069462846FFF7BB
:105390006BF8064666B9094850F8254044B1012C1F
:1053A00006D0D4E9020100EB81002064019860641A
:1053B000681CC5B23F2DE8D97CBD000078270020CD
:1053C00012F0010F08D012F0020F05D002E0491EC2
:1053D000002308C00029FAD17047000000B589B049
:1053E0000121084600F078F90121052000F094F928
:1053F0000F20ADF8200018208DF8230003208DF831
:10540000220008A93A48FDF76BFE40F2E730ADF8FC
:1054100018000020ADF81400ADF81A00ADF8160021
:1054200005A94FF0804002F0E7FD6020ADF80400D0
:105430000120ADF806002F480088ADF80A000020D2
:10544000ADF80C0001A94FF0804002F04DFC08219E
:10545000C80602F095FC6020ADF804000120ADF80C
:10546000060025480088ADF80A000020ADF80C00C1
:1054700001A94FF0804002F08DFC0821C80602F01F
:10548000DBFC6020ADF804000120ADF806001B48ED
:105490000088ADF80A000020ADF80C0001A94FF01B
:1054A000804002F0D7FC0821C80602F023FD6020EE
:1054B000ADF804000120ADF8060011480088ADF8F1
:1054C0000A000020ADF80C0001A94FF0804002F066
:1054D0001BFD0821C80602F055FD0121880702F0D6
:1054E0008BFB0121880702F093FB09B000BD00008F
:1054F00000080140BE000020C0000020C2000020C3
:10550000C400002010B55A480088401C5849088043
:1055100008460088642190FBF1F201FB120000288C
:105520007ED154480068B0F5FC6F07D151484068FF
:105530000A2803DC4F48806808280BDB4E480078B7
:1055400016280CD14C484078102808DC4A4880784E
:10555000082804DA002049494870888008704848C3
:10556000007804281CDD474947480068FBF7C2F96A
:1055700011D3464944480068FBF7C6F90BD34449A8
:1055800044480068FBF7B6F905D343494148006831
:10559000FBF7BAF904D20020384988708880087077
:1055A0003648007878B93548807810B93348407863
:1055B00048B132488088401C30498880052102204B
:1055C000FDF7BEFF03E002210846FDF7B9FF2848BA
:1055D00000884FF47A7190FBF1F201FB1200A0BB3E
:1055E00002222649091D2D4801F0D4FD2348807868
:1055F00040BB20490878FDF72EFA1F4908701D4965
:105600000879FDF728FA1C4948701A49087AFDF70D
:1056100022FA194988701749087BFDF71CFA00E047
:1056200025E01549C8701349087CFDF714FA1249A2
:1056300008711049087DFDF70EFA0F4948710846B8
:1056400002F000FF00200A4908800C488088B0F56D
:10565000E16F0CDD094880884FF6FF71884206DA59
:1056600001200649087003210220FDF769FF10BDE3
:105670001E0000205C2200200900002010000020F5
:10568000A10100200000DC42940100200000E4425F
:105690000000F041900100200000044200FC0108DD
:1056A00001460020034A506820F4404008435060FF
:1056B000704700000010024029B1064A52690243B7
:1056C000044B5A6104E0034A52698243014B5A6118
:1056D000704700000010024029B1064AD269024317
:1056E000044BDA6104E0034AD2698243014BDA6178
:1056F000704700000010024029B1064A12690243B7
:10570000044B1A6104E0034A12698243014B1A6197
:10571000704700000010024029B1064A9269024316
:10572000044B9A6104E0034A92698243014B9A61F7
:10573000704700000010024030B500210022002414
:1057400000232D4D6D6805F00C0121B1042905D011
:10575000082923D105E0294D056022E0274D056089
:105760001FE0254D6D6805F47012234D6D6805F43A
:105770008034022505EB92421CB9214D554305604A
:105780000BE01D4D6D6815F4003F03D01C4D5543D3
:10579000056002E0194D5543056002E0174D0560B4
:1057A00000BF00BF144D6D6805F0F0010909154DEB
:1057B0006B5C0568DD4045600F4D6D6805F4E06188
:1057C000090A104D6B5C4568DD4085600A4D6D68C7
:1057D00005F46051C90A0B4D6B5C4568DD40C5603E
:1057E000054D6D6805F44041890B074D6B5CC5683C
:1057F000B5FBF3F5056130BD0010024000127A00E0
:1058000000093D00A2010020B201002010B50446AD
:10581000FDF712F9102016490860042008601020D6
:10582000091F08606420FDF72BF9BF20FDF7BEF8C3
:10583000FDF7F4F8FDF79CF86071FDF799F8207119
:10584000FDF796F8E070FDF793F8A070FDF790F87B
:105850006070FDF78DF8FDF78BF82070FDF788F884
:105860006420FDF70DF910200149086010BD00000B
:10587000141801407CB505462A24002000900190B0
:1058800000F0F0F810F0007F02D00E2420467CBD1E
:105890003E49098888B26946FDF74EFB04462A2C2A
:1058A00001D02046F3E7012D37D1019810F4802F65
:1058B00030D03648008800043549086037204860F9
:1058C000402088600020C860A8020861084600F0F7
:1058D00007F93720FCF7B0FD04462A2C01D02046FA
:1058E000D5E702202A4908600620486040208860E9
:1058F0000020C8604FF480600861084600F0F0F8AE
:105900000620FCF799FD04462A2C01D02046BEE76C
:105910002046BCE725242046B9E7019810F4803FD3
:1059200031D01A48008800041949086037204860BF
:10593000402088600020C8604FF4806008610846FD
:1059400000F0CEF83720FCF777FD04462A2C01D072
:1059500020469CE700200E49086006204860402051
:1059600088600020C8604FF480600861084600F03D
:10597000B7F80620FCF760FD04462A2C01D020462B
:1059800085E7204683E72524204680E73001002074
:105990000820002001498863704700000080014012
:1059A0000149886370470000008001400149086098
:1059B00070470000A00030420149086070470000B5
:1059C0008C05304200210A4B02685A6242689A6292
:1059D0001A46D16A21F0F701D0E902231A4303697C
:1059E0001A4343691A431143014AD16270470000C8
:1059F0000080014000200649086048608860C86057
:105A000048628862C862034888630020C8637047A0
:105A100000800140FF07C00001480069C0B2704724
:105A20000080014001460020034A526B0A4201D027
:105A3000012000E000207047008001400146002066
:105A4000034A526B0A4201D0012000E00020704757
:105A5000008001400248006800F003007047000029
:105A60000080014008B5014600200090024808442B
:105A700000900098006808BD1480014010B500F047
:105A800061FC10BD29B1064AD26B0243044BDA63B4
:105A900004E0034AD26B8243014BDA637047000093
:105AA0000080014000210A4A516847F6FF62914395
:105AB000027D83681A4343681A43C3681A43036824
:105AC0001A4303691A431143014A516070470000A9
:105AD000008001400148006870470000808001405C
