:020000040800F2
:1000000050350020450100084558000847580008B1
:1000100051580008555800085958000800000000C1
:100020000000000000000000000000005D58000813
:100030005F5800080000000061580008635800087D
:10004000C73A00085F0100085F0100085F0100086F
:100050005F0100085F0100085F0100085F01000800
:100060005F0100085F0100085F0100088B42000883
:100070005F010008CB5800085F0100085F0100081D
:100080005F0100085F0100085F0100085F010008D0
:10009000CF4800085F0100085F0100085F01000809
:1000A0005F0100085F0100085F0100085F010008B0
:1000B0005F0100085F010008F14400085F010008CB
:1000C0005F0100085F0100085F0100085F01000890
:1000D0005F010008473B00085F0100085F0100085E
:1000E0005F0100085F0100085F0100085F01000870
:1000F0005F0100085F0100085F0100085F01000860
:100100005F01000883BA00085F0100085F01000872
:100110005F0100085F0100085F0100085F0100083F
:100120005F0100085F0100085F0100085F0100082F
:10013000DFF80CD010F0DAF800480047F952000858
:10014000503500200648804706480047FEE7FEE796
:10015000FEE7FEE7FEE7FEE7FEE7FEE7FEE7FEE777
:1001600045020008310100080CB500200190009004
:100170006B48006840F480306949086000BF6848F7
:10018000006800F4003000900198401C0190009835
:1001900018B90198B0F5A06FF1D16148006810F46A
:1001A000003F02D00120009001E000200090009864
:1001B000012842D15B48006840F0100059490860AE
:1001C0000846006820F0030008600846006840F018
:1001D000020008605248406851494860084640683B
:1001E00048600846406840F48060486008464068BF
:1001F00020F47C1048600846406840F4E8104860ED
:100200000846006840F08070086000BF44480068FD
:1002100010F0007FFAD04248406820F003004049C7
:1002200048600846406840F00200486000BF3C4813
:10023000406800F00C000828F9D10CBD10B5FFF79C
:1002400093FF10BD10B53648006840F001003449F6
:10025000086008464068344908403149486008460B
:100260000068324908402E4908600846006820F4BA
:10027000802008600846406820F4FE0048604FF483
:100280001F008860FFF7DAFF4FF000602849086020
:1002900010BD10B5002100200022214B5B6803F047
:1002A0000C0121B1042906D0082928D107E0214BEF
:1002B000214C236027E01F4B1F4C236023E0184B89
:1002C0005B6803F47010164B5B6803F48032022302
:1002D00003EB904022B9194B4343174C23600DE0C8
:1002E0000F4B5B6813F4003F04D0144B4343124C94
:1002F000236003E00F4B43430F4C236003E00D4B9F
:100300000D4C236000BF00BF054B5B68C3F30313B4
:100310000B4CE15C084B1B68CB40074C236010BDC5
:1003200000100240002002400000FFF8FFFFF6FE30
:1003300008ED00E000127A000000002000093D00F6
:100340000400002031490143314A1160704770B503
:10035000002100230F22C4780CB32D4C246804F430
:10036000E064C4F5E064210AC1F10403CA404478A2
:1003700004FA03F18478144021430901254C0678DE
:10038000A155047804F01F050124AC4005786D11D7
:100390004FF0E02606EB8505C5F8004109E004783A
:1003A00004F01F050124AC401B4D0678761145F87A
:1003B000264070BD194A0A400243154B1B1F1A60A4
:1003C000704739B1124A121D12680243104B1B1DAF
:1003D0001A6006E00E4A121D126882430C4B1B1D68
:1003E0001A607047042808D14FF0E021096941F0F4
:1003F00004014FF0E022116107E04FF0E0210969AC
:1004000021F004014FF0E022116170470000FA056D
:100410000CED00E000E400E080E100E080FFFF1F61
:1004200010B50446FA48844208D10121401501F074
:100430006BFE0021601501F067FE17E0F54884426D
:1004400008D10121001501F05FFE0021201501F007
:100450005BFE0BE0F048844208D10121C80301F0A3
:1004600053FE00214FF4004001F04EFE10BD30B5A8
:100470000246002000235068E84C20400D790C68AB
:1004800044EA0524204350609068E54C2040D1E9BF
:1004900002542C434D7944EA450420439060D06ACD
:1004A00020F470000C7C641EE4B2234340EA035045
:1004B000D06230BD00210160017141718160C16075
:1004C00001210174704721B1826842F0010282600B
:1004D00003E0826822F001028260704721B18268E5
:1004E00042F48072826003E0826822F4807282604B
:1004F000704710B50023CBB21AB144681C43446066
:1005000002E044689C43446010BD816841F00801EA
:1005100081607047014600208A6812F0080F01D000
:10052000012000E000207047816841F004018160F3
:100530007047014600208A6812F0040F01D00120A4
:1005400000E00020704721B1826842F4A00282607E
:1005500003E0826822F4A002826070470146002016
:100560008A6812F4800F01D0012000E0002070475B
:1005700010B50A4600210023416821F46041531E52
:1005800041EA4331416010BD21B1426842F400624A
:10059000426003E0426822F4006242607047F0B5B6
:1005A00004460D4600200021092D11DDE068A5F16B
:1005B0000A0606EB4607072606FA07F18843A5F167
:1005C0000A0606EB460603FA06F10843E0600CE073
:1005D000206905EB4507072606FA07F1884305EB76
:1005E000450603FA06F108432061072A0FDA606B1B
:1005F000561E06EB86071F2606FA07F18843561E8D
:1006000006EB860605FA06F10843606322E00D2A30
:100610000FDA206BD61F06EB86071F2606FA07F1B6
:100620008843D61F06EB860605FA06F108432063C9
:1006300010E0E06AA2F10D0606EB86071F2606FA17
:1006400007F18843A2F10D0606EB860605FA06F1CE
:100650000843E062F0BD21B1826842F480128260FA
:1006600003E0826822F48012826070470146C86C01
:1006700080B2704766484C300068704721B14268CC
:1006800042F48062426003E0426822F48062426089
:10069000704721B1426842F48052426003E04268F0
:1006A00022F48052426070470A460021816821F49A
:1006B000E04111438160704721B1826842F40042F9
:1006C000826003E0826822F400428260704721B1B8
:1006D000826842F40212826003E0826822F402120D
:1006E00082607047014600208A6812F4001F01D022
:1006F000012000E000207047F0B5044615460020B8
:1007000000220026092911DDE068A1F10A0707EBA4
:10071000470C072707FA0CF29043A1F10A0707EBF1
:10072000470703FA07F21043E0600CE0206901EB91
:10073000410C072707FA0CF2904301EB410703FA3B
:1007400007F210432061A06BC0F30156EF1C06F1C5
:10075000010CA7EB0C0707EB870C1F2707FA0CF21D
:100760009043EF1C06F1010CA7EB0C0707EB870782
:1007700001FA07F21043A063F0BD10B50A4600214C
:100780000023816B21F44011531E41EA0351816320
:1007900010BD08B5002300930090009B0B4400930C
:1007A000009B1A6008BD08B5024600200090009228
:1007B00001F12800009B184400900098006880B266
:1007C00008BD0A4600214168164B1940114341609B
:1007D00070474162826270470A460021416821F0F9
:1007E0001F0111434160704740B109490831096850
:1007F00041F40001064A0832116007E0044908315B
:10080000096821F40001024A0832116070470000B3
:100810000024014000280140003C0140FFFEF0FFA1
:10082000FDF7F1FFFFFD3FFF0246002013680B427A
:1008300001D0012000E000207047CA4302607047E9
:1008400070B502460020002300240B125568CEB27A
:1008500005EA060415681D4202D00CB1012000E033
:10086000002070BD00220A12D343036070470000CD
:1008700010B50446FE48844209D10121480601F022
:1008800050FC00214FF0007001F04BFC08E001210A
:10089000880601F046FC00214FF0806001F041FC29
:1008A00010BD30B5024600200023146824F0020475
:1008B0001460146844F00104146000E05B1C546888
:1008C00014F0010F03D1A3F57F44FF3CF6D1546827
:1008D00014F0010F01D100206CE08C79012C04D1BF
:1008E000146844F08004146003E0146824F0800469
:1008F0001460CC79012C04D1146844F040041460D5
:1009000003E0146824F0400414600C7A012C04D134
:10091000146844F02004146003E0146824F02004F8
:1009200014604C7A012C04D1146844F01004146053
:1009300003E0146824F0100414608C7A012C04D1B4
:10094000146844F00804146003E0146824F00804F8
:100950001460CC7A012C04D1146844F004041460AF
:1009600003E0146824F0040414608C78A407CD78A4
:1009700044EA05640D7944EA05444D7944EA055496
:100980000D886D1E2C43D461146824F0010414609A
:10099000002300E05B1C546814F0010F03D0A3F5A2
:1009A0007F44FF3CF6D1546814F0010F01D00020C1
:1009B00000E0012030BD10B50021837A012202FA47
:1009C00003F1AC4A126842F00102AA4B1A60A94A2C
:1009D0001C3212688A43A74B1C331A60027BCAB9C7
:1009E000A44A0C3212688A43A24B0C331A60428824
:1009F000C38842EA03439F4A4032847A42F8343043
:100A00000288838842EA03439A4A4032847A02EB9E
:100A1000C4025360027B012A19D1964A0C32126833
:100A20000A43944B0C331A604288038842EA03431A
:100A3000904A4032847A42F83430C288838842EA4D
:100A400003438C4A4032847A02EBC4025360C27A78
:100A50003AB9884A121D12688A43864B1B1D1A60D8
:100A600006E0844A121D12680A43824B1B1D1A605D
:100A7000028932B97F4A143212688A437D4B14339B
:100A80001A600289012A06D17A4A143212680A438E
:100A9000784B14331A60427B012A06D1754A1C3206
:100AA00012680A43734B1C331A60724A126822F0B0
:100AB0000102704B1A6010BD00218171C171017279
:100AC00041728172C1728170C17003210171022172
:100AD00041710121018070476649096841F00101B7
:100AE000644A11601146096843F60E729143614AE7
:100AF00011601146096841EA002111601146096838
:100B000021F001011160704721B1026842F4803286
:100B1000026003E0026822F4803202607047E1B1B3
:100B2000026842F0800202604FF4C272125842F42E
:100B300080734FF4C27213504FF4CA72125842F4C9
:100B400080734FF4CA7213504FF4D272125842F4A9
:100B500080734FF4D27213501BE0026822F08002BF
:100B600002604FF4C272125822F480734FF4C272C2
:100B700013504FF4CA72125822F480734FF4CA72A1
:100B800013504FF4D272125822F480734FF4D27281
:100B90001350704710B502460020936803F080633D
:100BA000B3F1806F00D110E0936803F00063B3F1FC
:100BB000006F01D1012008E0936803F08053B3F186
:100BC000805F01D1022000E00420042879D002F5E2
:100BD000C07303EB00131B6803F0010402F5C0733C
:100BE00003EB00131C600B7A7BB94B7A0C8843EA49
:100BF000445302F5C07404EB00142468234302F547
:100C0000C07404EB0014236010E00B7A4C6843EAD4
:100C1000C4034C7A234302F5C07404EB0014246827
:100C2000234302F5C07404EB001423608B7A03F0B5
:100C30000F038B7202F5C07303EB00135B6823F0A4
:100C40000F0402F5C07303EB00135C6002F5C07380
:100C500003EB00135B688C7A234302F5C07404EB4A
:100C6000001463608B7B1C064B7B44EA034403E067
:100C700000640040006600400B7B44EA0323CC7A0A
:100C8000234302F5C07404EB0014A3608B7C1C06A4
:100C90004B7C44EA03440B7C44EA0323CC7B234390
:100CA00002F5C07404EB0014E36002F5C07303EBBB
:100CB00000131B6843F0010402F5C07303EB00133B
:100CC0001C6010BD10B50246002321B1012907D0D8
:100CD00002290FD109E09068F84C00EA04030BE008
:100CE0009068F74C00EA040306E09068F54C00EACF
:100CF000040301E0002300BF00BFF34C181BA34214
:100D000016D007DC83B16FF0806018180ED002286F
:100D100018D111E0B0F5007F10D0EC4C001909D0CB
:100D2000B0F5003F0ED10BE002230DE000230BE0F5
:100D3000002309E0002307E0012305E0012303E08D
:100D4000012301E0002300BF00BFD8B210BD21B1D4
:100D5000012907D002290FD109E0826842F0800200
:100D600082600AE0826842F40042826005E08268A4
:100D700042F40002826000E000BF00BF704710B57F
:100D800000F5D87303EB01131B6803F0040313721F
:100D9000137A53B900F5D87303EB01131B6840F2C3
:100DA000FF7404EA5353136009E000F5D87303EBB2
:100DB00001131B686FF0604404EAD303536000F52D
:100DC000D87303EB01131B6803F00203537200F5A1
:100DD000D87303EB01135B6803F00F03937200F504
:100DE000D87303EB01135B681B0AD37400F5D87347
:100DF00003EB01139B68D37200F5D87303EB011367
:100E00009B681C0A147300F5D87303EB01139B68ED
:100E10001C0C547300F5D87303EB01139B681B0E75
:100E2000937300F5D87303EB0113DB68D37300F5FC
:100E3000D87303EB0113DB681C0A147400F5D87334
:100E400003EB0113DB681C0C547400F5D87303EB3F
:100E50000113DB681B0E937421B9C36843F02003B0
:100E6000C36003E0036943F02003036110BD21B9AF
:100E7000C26842F02002C26003E0026942F0200230
:100E8000026170470246002019B9D36803F00300DD
:100E900006E0012903D1136903F0030000E00020FC
:100EA000704710B502460B4600204FF6FF71BBB9E4
:100EB000146824F0020444F00104146000E0491EA8
:100EC000546804F00304012C01D00029F7D15468C0
:100ED00004F00304012C01D0002032E0012030E0B6
:100EE000012B13D1146824F00304146000E0491EA0
:100EF000546814F0030F01D00029F8D1546814F09D
:100F0000030F01D000201CE001201AE0022B17D1B2
:100F1000146824F0010444F00204146000E0491E47
:100F2000546804F00304022C01D00029F7D154685E
:100F300004F00304022C01D0002002E0012000E0B4
:100F4000002010BD014600200A6822F0010242F094
:100F500002020A604A6802F00302022A00D101205C
:100F6000704701464FF6FF7200200B6823F0020322
:100F70000B6000E0521E4B6803F00203022B01D10C
:100F8000002AF7D14B6803F00203022B00D00120A6
:100F90007047014600208A6902F0700070470146E0
:100FA00000208A69100E7047014600208A69C2F34A
:100FB000074070471AB143690B43436102E043693C
:100FC0008B434361704710B50246002011F4700F47
:100FD00008D09369C1F31304234201D001202DE00E
:100FE00000202BE011F0807F08D05368C1F3130478
:100FF000234201D0012021E000201FE011F0006F0A
:1010000008D09368C1F31304234201D0012015E0F6
:10101000002013E011F0007F08D0D368C1F313045F
:10102000234201D0012009E0002007E01369C1F349
:101030001304234201D0012000E0002010BD002253
:10104000234B994202D10023836111E0C1F31302C3
:1010500011F0007F01D0C2600AE011F0806F01D072
:10106000026105E011F0006F01D0826000E0426093
:101070007047024600200A4201D0012000E0002013
:10108000704770B504460D4600266069284272D04C
:10109000B5F5807F69D01DDC082D42D006DC012D1E
:1010A0002DD0022D31D0042D7FD134E0102D3ED033
:1010B000202D42D0402D78D145E0000003000004EF
:1010C0000003000800000310000100080001FFF702
:1010D0007000F030B5F5004F61D009DCB5F5007F48
:1010E0004AD0B5F5806F4DD0B5F5006F5DD150E0B9
:1010F000B5F5803F2DD0B5F5003F56D12FE0A06863
:101100005549FFF7B6FF064651E0E0680321FFF7B7
:10111000B0FF06464BE0E0680821FFF7AAFF06464D
:1011200045E0E0681021FFF7A4FF06463FE0206994
:101130000321FFF79EFF064639E020690821FFF7EB
:1011400098FF064633E020691021FFF792FF06461C
:101150002DE060680821FFF78CFF064627E06068F5
:101160001021FFF786FF064621E0A0690121FFF765
:1011700080FF06461BE01BE0A0690221FFF779FF14
:10118000064614E0A0690421FFF773FF06460EE04F
:101190000BE0A0697021FFF76CFF064607E060686E
:1011A0000421FFF766FF064601E0002600BF00E0CD
:1011B0000026304670BDB1F5007F3AD00FDC202903
:1011C00028D006DC01291CD004291DD0082940D1D3
:1011D0001DE0402921D0B1F5807F3AD126E0B1F55C
:1011E000004F31D006DCB1F5806F25D0B1F5006F2E
:1011F0002FD124E0B1F5803F12D0B1F5003F28D1C6
:1012000011E0154A826025E00822C26022E0102227
:10121000C2601FE0082202611CE01022026119E096
:101220000822426016E01022426013E0042242606D
:1012300010E0042242600DE0042242600AE0002235
:1012400082610422426005E0002282610422426041
:1012500000E000BF00BF70470101010001684FF6C8
:10126000FE72114001600021016041608160C16037
:101270008C49884208D18B490839496841F00F01EF
:10128000884A083A51608AE086491431884208D178
:1012900084490839496841F0F001824A083A5160AE
:1012A0007DE080492831884208D17E490839496863
:1012B00041F470617B4A083A516070E079493C31F1
:1012C000884208D177490839496841F47041754A24
:1012D000083A516063E073495031884208D171493E
:1012E0000839496841F470216E4A083A516056E065
:1012F0006C496431884208D16A490839496841F427
:101300007001684A083A516049E06649783188427C
:1013100008D164490839496841F07061614A083A66
:1013200051603CE06049884206D1011F096841F0E4
:101330000F01021F116032E05B491431884208D16D
:101340005949091F096841F0F001574A121F1160FD
:1013500025E055492831884208D15349091F0968B9
:1013600041F47061504A121F116018E04E493C313F
:10137000884208D14C49091F096841F470414A4A22
:10138000121F11600BE048495031884207D146498D
:10139000091F096841F47021434A121F1160704708
:1013A00010B50022026847F6F0739A430C6A8B6806
:1013B00023430C6923434C6923438C692343CC6941
:1013C00023434C6A23438C6A23431A430260CB684D
:1013D00043600B6883604B68C36010BD00210160EF
:1013E00041608160C160016141618161C1610162EF
:1013F00041628162704721B1026842F001020260DD
:1014000004E002684FF6FE731A40026070471AB19A
:1014100003680B43036002E003688B43036070477B
:10142000416070470146486880B27047014600201D
:10143000002211F0805F03D01B4B083B1A6802E0CA
:10144000184B083B1A680A4201D0012000E0002036
:10145000704710F0805F03D01349091F086002E055
:10146000104908394860704701460020002211F0F9
:10147000805F03D00C4B083B1A6802E0094B083B25
:101480001A680A4201D0012000E00020704710F0E5
:10149000805F03D00449091F086002E00149083950
:1014A00048607047080002400804024001460020DE
:1014B000FE4A106800F03800084310607047FB498E
:1014C000096821F00801F94A1160114609680143D1
:1014D00011607047F549096821F01001F34A116065
:1014E00011460968014311607047F148EF494860AF
:1014F000F04848607047EE48EC494860ED48486065
:101500007047EA48006940F08000E8490861704788
:10151000E648006940F08000E44908617047042013
:10152000E249C96811F0010F01D001200EE0DF4946
:10153000C96811F0040F01D0022007E0DB49C96837
:1015400011F0100F01D0032000E00420704700B517
:1015500002460423FFF7E3FF034603E0FFF7DFFF44
:101560000346521E012B01D1002AF7D102B90523EF
:10157000184600BD30B5044604254FF43020FFF76F
:10158000E6FF0546042D17D1C848006940F0020067
:10159000C649086108464461006940F0400008619E
:1015A0004FF43020FFF7D3FF0546C048006941F6ED
:1015B000FD710840BD490861284630BD10B50424BE
:1015C0004FF43020FFF7C3FF0446042C16D1B74870
:1015D000006940F00400B54908610846006940F020
:1015E000400008614FF43020FFF7B1FF0446AF48D8
:1015F000006941F6FB710840AC490861204610BD06
:1016000000B502460423FFF78AFF034603E0FFF715
:1016100086FF0346521E012B01D1002AF7D102B9E1
:101620000523184600BD10B504244FF43020FFF701
:10163000E7FF0446042C16D19C48006940F00400E2
:101640009A4908610846006940F0400008614FF47B
:101650003020FFF7D5FF04469448006941F6FB713E
:10166000084092490861204610BD00208F49C96991
:1016700011F0020F01D0012000E00020704730B5CA
:10168000A5250424FFF7F1FF00B100254FF4302019
:10169000FFF75DFF0446042C3AD1854883498860F2
:1016A000844888600846006940F0200008610846C8
:1016B000006940F0400008614FF43020FFF747FF19
:1016C0000446042C1BD17948006941F6DF710840BB
:1016D000764908610846006940F0100008617648C4
:1016E0000580E002FFF733FF0446052C10D06F4859
:1016F000006941F6EF7108406C49086108E0052C6B
:1017000006D06A48006941F6EF71084067490861F0
:10171000204630BD78B506460C46042500200090D2
:10172000E802FFF714FF0546042D24D15F48006945
:1017300040F001005D4908613480E802FFF707FFCF
:101740000546042D10D1B01C0090200C0099088093
:10175000E802FFF7FCFE05465448006941F6FE71B9
:1017600008405249086106E05048006941F6FE71A0
:1017700008404E490861284678BD70B504460D46BC
:101780000426F002FFF7E3FE0646042E11D1474877
:10179000006940F00100454908612580F002FFF72B
:1017A000D6FE06464148006941F6FE7108403F49B1
:1017B0000861304670BD70B505460E460424E0024F
:1017C000FFF7C5FE0446042C17D139483749886015
:1017D000384888600846006940F0100008612E8093
:1017E000E002FFF7B4FE0446052C06D02F4800693E
:1017F00041F6EF7108402D490861204670BD2DE982
:10180000F04304464FF6FF763746B046B14604250E
:10181000E443E6B2C4F30727C4F307484FEA146968
:10182000E802FFF794FE0546042D49D120481F49E0
:101830008860204888600846006940F01000086110
:10184000FF2E06D01C4808300680E802FFF77FFE16
:101850000546042D08D1FF2F06D017480A3007800F
:10186000E802FFF774FE0546042D0AD1B8F1FF0F18
:1018700007D011480C30A0F80080E802FFF767FE9F
:101880000546042D0AD1B9F1FF0F07D00A480E30E2
:10189000A0F80090E802FFF75AFE0546052D0FD08C
:1018A0000248006941F6EF71084007E0002002405D
:1018B00023016745AB89EFCD00F8FF1F664908613A
:1018C0002846BDE8F08330B5054604244FF43020A7
:1018D000FFF73DFE0446042C41D160485E49886014
:1018E0005F4888600846006940F0200008610846AB
:1018F000006940F0400008614FF43020FFF727FEF8
:101900000446042C22D15448006941F6DF71084096
:10191000514908610846006940F0100008611DB196
:1019200000205049088002E0A5204E4908804FF46D
:101930003020FFF70CFE0446052C10D04648006905
:1019400041F6EF7108404449086108E0052C06D0D3
:101950004148006941F6DF7108403F49086120466F
:1019600030BDF0B505460E46174604243B483A49BB
:1019700088603B488860E002FFF7E9FD0446042CDC
:1019800019D13548006940F010003349086147F02B
:10199000F800304328433349891C0880E002FFF7F0
:1019A000D6FD0446052C06D02B48006941F6EF71A0
:1019B0000840294908612046F0BD2748C0698008D1
:1019C00070472548006A704700202349096811F0D4
:1019D000200F01D0012000E00020704729B11E4AED
:1019E000126902431C4B1A6104E01B4A12698243CC
:1019F000194B1A61704701460020012908D1164A87
:101A0000D26912F0010F01D0012008E0002006E0A9
:101A1000114AD2680A4201D0012000E0002070473C
:101A20000D49C860704704200B49C96811F0010FC7
:101A300001D001200EE00849C96811F0040F01D05F
:101A4000022007E00449C96811F0100F01D00320FB
:101A500000E0042070470000002002402301674599
:101A6000AB89EFCD00F8FF1F10B50446CA48844289
:101A700008D10121042000F047FB0021042000F0E0
:101A800043FB46E0C548844208D10121082000F00C
:101A90003BFB0021082000F037FB3AE0C0488442BD
:101AA00008D10121102000F02FFB0021102000F0B0
:101AB0002BFB2EE0BB48844208D10121202000F0FE
:101AC00023FB0021202000F01FFB22E0B6488442C7
:101AD00008D10121402000F017FB0021402000F038
:101AE00013FB16E0B148844208D10121802000F0A8
:101AF0000BFB0021802000F007FB0AE0AC48844289
:101B000007D10121801500F0FFFA0021A01500F097
:101B1000FBFA10BD10B50121084600F0F5FA0021CE
:101B2000012000F0F1FA10BD2DE9F0410246002538
:101B30000026002000230024002791F803C00CF0A9
:101B40000F0591F803C01CF0100F03D091F802C0EC
:101B50004CEA050591F800C0BCF1000F31D01468C3
:101B600000202BE04FF0010C0CFA00F3B1F800C09C
:101B70000CEA03069E4220D183004FF00F0C0CFAB2
:101B800003F7BC4305FA03FC4CEA040491F803C0D4
:101B9000BCF1280F06D14FF0010C0CFA00FCC2F882
:101BA00014C00AE091F803C0BCF1480F05D14FF012
:101BB000010C0CFA00FCC2F810C0401C0828D1D35C
:101BC0001460B1F800C0BCF1FF0F34DD5468002090
:101BD0002EE000F1080C4FF0010808FA0CF3B1F800
:101BE00000C00CEA03069E4221D183004FF00F0C87
:101BF0000CFA03F7BC4305FA03FC4CEA040491F821
:101C000003C0BCF1280F05D100F1080C08FA0CF84C
:101C1000C2F8148091F803C0BCF1480F07D100F15D
:101C2000080C4FF0010808FA0CF8C2F81080401CAC
:101C30000828CED35460BDE8F0814FF6FF710180D3
:101C4000022181700421C170704702460020936810
:101C50000B4201D0012000E0002070470146886857
:101C600080B2704702460020D3680B4201D00120A9
:101C700000E0002070470146C86880B270470161EB
:101C80007047416170470AB1016100E041617047EE
:101C9000C16070474FF480320A4382618161826182
:101CA00082698269704702460020424B18684FF6ED
:101CB0008073184040EA021008433E4B186070479A
:101CC0003D49C8617047F0B50A4600230024002151
:101CD000002500F00046B6F1004F02D1354EF16903
:101CE00001E0344E7168C0F3034583B200F440163E
:101CF000B6F5401F08D121F070612E4E766826F0AF
:101D000070662C4F7E6012E000F48016B6F5801FDE
:101D100006D1032606FA05F4A14341F0706106E0FE
:101D2000460D360103FA06F6B14341F0706122B167
:101D3000460D360103FA06F6314300F00046B6F1CF
:101D4000004F02D11B4EF16101E01A4E7160F0BDEF
:101D500030B500228B071C0F0F2303FA04F2154B3A
:101D600008338C1053F824309343124C08348D10F0
:101D700044F8253023468C1053F824308C07240F68
:101D800000FA04F423430B4C08348D1044F825303A
:101D900030BD0A490860704700080140000C01404E
:101DA000001001400014014000180140001C0140D7
:101DB000002001400000014000002042DC002042E1
:101DC0000E49086070470D49486070470B498860AC
:101DD00070474AF6AA200949086070474CF6CC4083
:101DE00006490860704701460020044AD2680A424A
:101DF00001D0012000E000207047000000300040CA
:101E0000DD48006840F00100DB4908600846406892
:101E1000DA490840D849486008460068D84908406F
:101E2000D54908600846006820F48020086008460C
:101E3000406820F4FE0048604FF41F00886070473F
:101E4000CD49096821F48031CB4A116011460968F7
:101E500021F480211160B0F5803F03D0B0F5802FD0
:101E60000ED106E0C449096841F48031C24A1160CC
:101E700007E0C149096841F4A021BF4A116000E0B0
:101E800000BF00BF704710B50146002200230020AC
:101E90004A11012A02D1B84C236806E0022A02D175
:101EA000B54C236A01E0B44C636A01F01F020124BF
:101EB00094401C4201D0012000E0002010BD38B544
:101EC000002000900024002500BF3120FFF7DBFF39
:101ED00005460098401C00900098B0F5A06F01D016
:101EE000002DF2D03120FFF7CEFF08B1012400E031
:101EF0000024204638BD014600209F4A106820F08B
:101F0000F80040EAC100106070479E4908607047C1
:101F100002460020984B586820F47C1042EA0103E6
:101F20001843954B586070479649086670470146BC
:101F30000020914A506820F0030008435060704729
:101F40008D48406800F00C007047014600208A4A26
:101F5000506820F0F00008435060704701460020B0
:101F6000854A506820F4E06008435060704701469D
:101F70000020814A506820F4605040EAC10050605F
:101F8000704729B17C4A527A02437B4B5A7204E073
:101F9000794A527A8243784B5A7270477A4908607C
:101FA000704701460020744A506820F440400843BE
:101FB000506070470021754A11706F4A82F82010F6
:101FC000012802D0042808D103E001216F4A1170D2
:101FD00004E005216D4A117000E000BF00BF7047AA
:101FE0006B49086070476449096A0143624A11629B
:101FF0007047674944390860704730B500210022B6
:10200000002400235C4D6D6805F00C0121B104290A
:1020100005D0082923D105E05E4D056022E05D4D25
:1020200005601FE0544D6D6805F47012524D6D68E7
:1020300005F48034022505EB92421CB9564D5543F8
:1020400005600BE04C4D6D6815F4003F03D0524D18
:102050005543056002E04F4D5543056002E04D4D8C
:10206000056000BF00BF444D6D6805F0F00109092F
:102070004A4D6B5C0568DD4045603F4D6D6805F479
:10208000E061090A454D6B5C4568DD4085603A4D6D
:102090006D6805F46051C90A404D6B5C4568DD40D0
:1020A000C560354D6D6805F44041890B3C4D6B5C56
:1020B000C568B5FBF3F5056130BD29B12E4A5269FB
:1020C00002432D4B5A6104E02B4A526982432A4B4A
:1020D0005A61704729B1284A92690243264B9A6196
:1020E00004E0254A92698243234B9A61704729B1E3
:1020F000214AD2690243204BDA6104E01E4AD269C8
:1021000082431D4BDA61704729B11B4AD2680243F2
:10211000194BDA6004E0184AD2688243164BDA6041
:10212000704729B1144A12690243134B1A6104E043
:10213000114A12698243104B1A61704714494039A1
:10214000086070470F49C86470470B49C8717047F1
:102150000948406A40F0807007494862704701466C
:102160000020054A92680A4201D0012000E00020C8
:102170007047014988727047001002400000FFF864
:10218000FFFFF6FE00004242D8004242201002400B
:102190008004424200127A0000093D001400002031
:1021A0002400002000206C49086048608860C860F6
:1021B00048628862C862694888630020C8637047C3
:1021C0000021654A516847F6FF629143027D8368AA
:1021D0001A4343681A43C3681A4303681A430369DE
:1021E0001A4311435C4A5160704700210175016038
:1021F00041608160C1600161704759490860704762
:102200005549096821F00301534A116011460968D4
:102210000143116070475048006800F003007047A8
:1022200029B14D4AD26B02434B4BDA6304E04A4A70
:10223000D26B8243484BDA6370474A490860704763
:102240000021454B02689A601A46D1686FF30A0173
:10225000D0E901231A43C3681A4303691A4311439F
:102260003D4AD16070470021016041608160C160DA
:102270000161704738480069C0B2704708B501462F
:102280000020009034481430084400900098006802
:1022900008BD0021304B02685A6242689A621A46B1
:1022A000D16A21F0F701D0E902231A4303691A43E6
:1022B00043691A431143284AD16270474FF0FF31F6
:1022C0000160002141608160C1600161416170472E
:1022D0002148006B70472448006870472249086015
:1022E00070471D48806C70471E4914310860704764
:1022F0001C491831086070471A491C310860704742
:10230000184920310860704718490860704718491B
:102310000860704701218143164A116070471649D1
:1023200008607047014600200B4A526B0A4201D0F8
:10233000012000E00020704707498863704701468C
:102340000020054A526B0A4201D0012000E0002023
:10235000704701498863704700800140FF07C00053
:10236000A00030428C05304280800140AC013042F8
:10237000B0013042B4013042B801304210B50446D9
:10238000BE48844208D101218014FFF7BDFE002120
:10239000A014FFF7B9FE16E0B948844208D1012124
:1023A0000014FFF7BEFE00212014FFF7BAFE0AE07A
:1023B000B448844207D10121C013FFF7B2FE0021C7
:1023C000E013FFF7AEFE10BD10B50022028802F444
:1023D00041520B884C8823438C882343CC88234369
:1023E0000C8923434C8923438C892343CC89234381
:1023F0001A430280838B4FF2FF74234083830B8A3E
:10240000038210BD2DE9F04F85B005460C464FF014
:10241000000902274FF000084FF0010B0026B246DA
:10242000A88B4FF240010840A88302202884B5F809
:102430001C90A068022801D100BF38E0A08810B924
:102440004FF0010B01E04FF0020B8D48854200D1A7
:1024500000E000BF6846FFF7D0FDDDF800A0E0888F
:10246000B0F5007F0AD14FEA1A2000EB800040004F
:10247000A168B0FBF1F0401D86B20BE04FEA4B10B3
:10248000BAFBF0F000EB80004000A168B0FBF1F077
:10249000401D86B20A20B6FBF0F606F00108A6EB56
:1024A0000800C0F34F074FF6FF7000EA0828022F1C
:1024B00001DBFF2F02DD02274FF00008E08840EA31
:1024C000080038432884A088A1890843618808430C
:1024D0002188084340F4006040EA0909A5F81C90EF
:1024E00005B0BDE8F08F0021018041808180C1806E
:1024F000018141818181C1810721018270470021D1
:10250000018041808180C180022181600021818120
:10251000704721B1028842F04002028004E0028844
:102520004FF6BF731A400280704721B1828B42F48C
:102530008062828304E0828B4FF6FF331A408283ED
:10254000704730B5002400230C110125A540ABB223
:102550001AB185881D43858002E085889D4385806A
:1025600030BD1AB183880B43838002E083888B439C
:102570008380704781817047014688897047A1F543
:102580007E42FF3A04D0028842F48072028004E066
:1025900002884FF6FF631A400280704721B182889B
:1025A00042F00402828004E082884FF6FB731A40F6
:1025B0008280704702884FF2FF731A4002800288BF
:1025C0000A4302807047018841F4805101807047BE
:1025D00021B1028842F40052028004E002884DF6E4
:1025E000FF731A400280704702460020012901D083
:1025F000108B00E0908A70470146088A7047B1F559
:10260000804F04D1028842F48042028004E00288B4
:102610004BF6FF731A400280704702460020138970
:102620000B4201D0012000E000207047CA43028124
:102630007047F0B50246002000240023002501F079
:102640000F070126BE40B4B20B1101269E40B3B263
:10265000968806EA03051689264202D00DB10120AC
:1026600000E00020F0BD10B5002201F00F040123AE
:10267000A3409AB2D343038110BD00000030014053
:1026800000380040003C004010B50446FE4884423B
:1026900008D10121C014FFF737FD0021E014FFF736
:1026A00033FDC4E0B4F1804F08D101210846FFF7A3
:1026B00038FD00210120FFF734FDB8E0F3488442E3
:1026C00008D101210220FFF72CFD00210220FFF795
:1026D00028FDACE0EE48844208D101210420FFF738
:1026E00020FD00210420FFF71CFDA0E0E948844202
:1026F00008D101210820FFF714FD00210820FFF771
:1027000010FD94E0E448844208D101211020FFF735
:1027100008FD00211020FFF704FD88E0DF48844217
:1027200008D101212020FFF7FCFC00212020FFF729
:10273000F8FC7CE0DA48844208D101214014FFF71C
:10274000E3FC00216014FFF7DFFC70E0D548844211
:1027500009D10121C804FFF7D7FC00214FF4002064
:10276000FFF7D2FC63E0D048844209D1012108057B
:10277000FFF7CAFC00214FF48010FFF7C5FC56E0BC
:10278000CA48844209D101214805FFF7BDFC002158
:102790004FF40010FFF7B8FC49E0C548844208D167
:1027A00001214020FFF7BDFC00214020FFF7B9FCCC
:1027B0003DE0C048844208D101218020FFF7B1FCF0
:1027C00000218020FFF7ADFC31E0BB48844208D1F6
:1027D00001218015FFF7A5FC0021A015FFF7A1FC42
:1027E00025E0B648844209D101210804FFF78CFC9A
:1027F00000214FF48030FFF787FC18E0B048844296
:1028000009D101214804FFF77FFC00214FF400307B
:10281000FFF77AFC0BE0AB48844208D10121880421
:10282000FFF772FC00214FF48020FFF76DFC10BD14
:1028300000220288944B98420ED0994B98420BD0BC
:10284000B0F1804F08D0914B984205D0904B984200
:1028500002D0904B984204D14FF68F731A404B88A8
:102860001A438D4B984207D08C4B984204D04FF6B8
:10287000FF431A40CB881A4302808B8883850B88DC
:102880000385814B98420BD0854B984208D08B4BE7
:10289000984205D08A4B984202D08A4B984201D187
:1028A0000B7A038601238382704770B500240022CF
:1028B0000023058C4FF6FE7635400584028C838814
:1028C000048B4FF68F752C40B51E2C400D882C4381
:1028D000751E2A400D892A434D882A436A4DA84215
:1028E0000BD06F4DA84208D0744DA84205D0744D4E
:1028F000A84202D0734DA84213D14FF6F7752A4073
:102900004D892A434FF6FB752A408D882A434FF69E
:10291000FF652B404FF6FF552B408D892B43CD890A
:102920002B4383800483CD888586028470BD70B577
:10293000002400220023058C4FF6EF7635400584F5
:10294000028C8388048B48F6FF752C404FF6FF45B8
:102950002C400D884FF6FF7606EA05252C434FF6EE
:10296000DF752A400D8906EA05152A434D8806EAD7
:1029700005152A43444DA84202D0494DA8421DD115
:102980004FF67F752A404D894FF6FF7606EA05150A
:102990002A434FF6BF752A408D8806EA05152A435B
:1029A0004FF6FF352B404FF2FF752B408D8906EA1D
:1029B00085052B43CD8906EA85052B438380048357
:1029C000CD880587028470BD70B5002400220023E5
:1029D000058C4FF6FF6635400584028C8388848B16
:1029E0004FF68F752C404FF6FC752C400D882C430C
:1029F0004FF6FF552A400D894FF6FF7606EA05256A
:102A00002A434D8806EA05252A431F4DA84202D0D5
:102A1000234DA8421DD14FF2FF752A404D894FF634
:102A2000FF7606EA05252A434FF6FF352A408D88B2
:102A300006EA05252A434EF6FF752B404DF6FF7535
:102A40002B408D8906EA05152B43CD8906EA05152D
:102A50002B4383808483CD888587028470BD70B5C5
:102A6000002200230024058C4EF6FF7635400584B5
:102A7000038C8488828B48F6FF752A404FF6FF4509
:102A80002A400D8820E00000002C01400004004096
:102A900000080040000C00400010004000140040FE
:102AA00000340140004C01400050014000540140FE
:102AB00000180040001C0040002000400040014081
:102AC00000440140004801404FF6FF7606EA052524
:102AD0002A434DF6FF752B400D8906EA05352B4339
:102AE0004D8806EA05352B43FA4DA84202D0FA4D2F
:102AF000A84208D14BF6FF752C408D894FF6FF7622
:102B000006EA85152C4384808283CD88A0F8405046
:102B1000038470BD828B4FF2FF331A408283828B15
:102B20004FF6FF7303EA01231A4382837047F0B51F
:102B30000C461546002200210026078C4EF6FF7C2D
:102B400007EA0C070784828B018C4FF6FF7707EAB0
:102B5000043640F6FF473A404FF6FF7707EA05276D
:102B60003A434FF6FF7707EA03373A43D94FB84263
:102B70000ED0D94FB8420BD0B0F1804F08D0D74F0C
:102B8000B84205D0D64FB84202D0D64FB84206D18F
:102B90004DF6FF77394046F48057394305E047F654
:102BA000FF57394044F48057394382830184F0BD94
:102BB000828B4FF6F3731A408283828B0A4382839F
:102BC0007047F0B50C461546002200210026078C00
:102BD0004FF6FF6C07EA0C070784828B018C4FF6D7
:102BE000FF7707EA04264FF60C773A404FF6FF7757
:102BF00007EA03172F433A43B64FB8420ED0B64FF9
:102C0000B8420BD0B0F1804F08D0B44FB84205D0D5
:102C1000B34FB84202D0B34FB84206D14FF6FF5778
:102C2000394046F48077394305E04FF2FF57394089
:102C300044F48077394382830184F0BD028B4FF2E4
:102C4000FF331A400283028B4FF6FF7303EA01231E
:102C50001A4302837047F0B50C4615460022002146
:102C60000026078C4FF6EF7C07EA0C070784028BDF
:102C7000018C4FF6FF7707EA041640F6FF473A400B
:102C80004FF6FF7707EA03373A434FF6FF7707EA35
:102C900005273A438F4FB8420ED08F4FB8420BD022
:102CA000B0F1804F08D08D4FB84205D08C4FB8425C
:102CB00002D08C4FB84206D14FF6DF77394046F04C
:102CC0001007394305E04FF65F77394044F01007AD
:102CD000394302830184F0BD028B4FF6F3731A402F
:102CE0000283028B0A4302837047F0B50C461546F7
:102CF00000220021068C4FF6FE773E400684028BB0
:102D0000018C4FF60C7632407E1C06EA03162E43E9
:102D10003243704EB0420ED06F4EB0420BD0B0F185
:102D2000804F08D06D4EB04205D06D4EB04202D0FB
:102D30006C4EB04206D14FF6FD76314044F00106AC
:102D4000314305E04FF6F576314044F0010631435A
:102D500002830184F0BD70B505460C465D4885428E
:102D60000ED05D4885420BD0B5F1804F08D05B484E
:102D7000854205D05A48854202D05A48854200D142
:102D800000E000BF208850B92389A28861882846C6
:102D9000FFF7ABFFE1882846FFF79EFF25E020887C
:102DA00004280AD12389A28861882846FFF753FFA7
:102DB000E1882846FFF742FF17E0208808280AD15B
:102DC0002389A28861882846FFF7FBFEE188284610
:102DD000FFF7EEFE09E02389A28861882846FFF705
:102DE000A6FEE1882846FFF795FE70BD2DE9F0416B
:102DF00005460C4600260127608808B9022600E037
:102E00000026A088012801D1022700E001272088A0
:102E1000A0B92389A28861882846FFF766FFE18868
:102E20002846FFF759FF23893A4631462846FFF7DF
:102E300012FFE1882846FFF701FF13E02389A288EB
:102E400061882846FFF707FFE1882846FFF7F6FE6E
:102E500023893A4631462846FFF747FFE18828464E
:102E6000FFF73AFFBDE8F0810A884B881A438B8848
:102E70001A43CB881A430B891A434B891A438B890F
:102E80001A43A0F8442070474FF6FF71818000215B
:102E90000180C18041800172704700210180418022
:102EA0008180C180018141818181C1817047002180
:102EB00001804180012181800021C1800181704712
:102EC0000021018041808180C18001814181818117
:102ED00070470000002C0140003401400004004015
:102EE00000080040000C004021B1028842F00102BD
:102EF000028004E002884FF6FE731A400280704799
:102F000031B1B0F8442042F40042A0F8442005E07A
:102F1000B0F84420C2F30E02A0F8442070471AB162
:102F200083890B43838102E083898B4383817047CC
:102F30008182704741EA0203A0F8483070471AB115
:102F400083890B43838102E083898B4383817047AC
:102F500001894FF6F8721140018170470A4600213D
:102F600001894FF68F73194011430181704730B5C5
:102F700004460D4629462046FFF7F0FF208940F021
:102F80000700208130BD2DE9F04104460D4616466C
:102F90001F46602D06D13B46012231462046FFF7F1
:102FA0005AFE05E03B46012231462046FFF79DFED2
:102FB00029462046FFF7D2FF208940F007002081F4
:102FC000BDE8F08130B50C4600210189C9B24FF649
:102FD000FF7505EA0325154325432943018130BDCB
:102FE0002DE9F04105460E46174698460024434613
:102FF0003A4631462846FFF7E5FF2C894FF6F87030
:10300000044044F007044FF68F70044044F070040D
:103010002C81BDE8F081F0B504460D4616461F46EA
:103020003B46324629462046FFF7CCFF208940F434
:1030300080402081F0BD0185828270470A460021D0
:1030400001884FF68F731940114301807047F0B526
:103050000C4615461E460021002200230189028BE2
:10306000038C4FF6F877394021434FF6FC473A403E
:1030700040F201173A434FF6DD773B404FF6FF77BA
:1030800007EA06172F433B43018102830384F0BD07
:103090000A460021018B4FF68F73194011430183BB
:1030A00070470A460021018B48F6FF7319404FF61E
:1030B000FF7303EA02231943018370470A46002184
:1030C000818B4FF68F7319401143818370470A46F5
:1030D0000021818B48F6FF7319404FF6FF7303EA16
:1030E000022319438183704721B1028842F0800294
:1030F000028004E002884FF67F731A400280704716
:1031000021B1828842F00402828004E082884FF676
:10311000FB731A408280704721B1828842F0080216
:10312000828004E082884FF6F7731A4082807047ED
:1031300021B1828842F00102828004E082884FF649
:10314000FE731A40828070470A460021018B4FF6B9
:10315000F77319401143018370470A460021018B20
:103160004FF2FF7319404FF6FF7303EA022319432E
:10317000018370470A460021818B4FF6F77319408F
:103180001143818370470A460021818B4FF2FF7300
:1031900019404FF6FF7303EA0223194381837047F6
:1031A0000A460021018B4FF6FB731940114301833E
:1031B00070470A460021018B4FF6FF3319404FF646
:1031C000FF7303EA02231943018370470A46002173
:1031D000818B4FF6FB7319401143818370470A4678
:1031E0000021818B4FF6FF3319404FF6FF7303EA3E
:1031F00002231943818370470A460021018B4FF651
:103200007F7319401143018370470A460021018BE7
:10321000C1F30E014FF6FF7303EA02231943018342
:1032200070470A460021818B4FF67F731940114386
:10323000818370470A460021818BC1F30E014FF64E
:10324000FF7303EA02231943818370470A46002172
:10325000018C4FF6FD7319401143018470470A46F3
:103260000021018C4FF6F773194011430184704718
:103270000A460021018C4FF6DF7319404FF6FF73A9
:1032800003EA02131943018470470A460021018CA6
:103290004FF67F7319404FF6FF7303EA0213194389
:1032A000018470470A460021018C4FF6FF531940F4
:1032B0004FF6FF7303EA02231943018470470A465D
:1032C0000021018C4FF2FF7319404FF6FF7303EAA0
:1032D00002231943018470470A460021018C4DF6F0
:1032E000FF7319404FF6FF7303EA02331943018459
:1032F000704730B5002301248C40A3B2048C9C435A
:103300000484048C02FA01F5ADB22C43048430BD70
:1033100030B5002304248C40A3B2048C9C43048465
:10332000048C02FA01F5ADB22C43048430BD70B5B3
:103330000346002000241846183001258D40ACB209
:103340001D8CA5431D8409B1082909D100EB61003A
:10335000056825F0700505600568154305600EE0F9
:103360000D1FC5F34E052844056825F4E0450560AA
:1033700005684FF6FF7606EA02263543056070BD04
:1033800021B1028842F00202028004E002884FF676
:10339000FD731A400280704721B1028842F0040296
:1033A000028004E002884FF6FB731A4002807047E7
:1033B00021B1828842F08002828004E082884FF648
:1033C0007F731A408280704702884FF6F7731A4065
:1033D000028002880A430280704782884FF68F730A
:1033E0001A40828082880A438280704702894FF6A1
:1033F000F8731A40028102890A43028170470289E8
:103400004FF67F731A40028102890A430281704796
:103410008184704781857047818670470187704736
:1034200081877047A0F84010704702884FF6FF432D
:103430001A40028002880A43028070470146888E43
:1034400070470146088F70470146888F70470146D4
:10345000B1F8400070470146888C70470146088DDE
:10346000704702460020138A0B4201D0012000E081
:1034700000207047CA430282704730B502460020E0
:1034800000230024158A05EA0103958905EA010451
:1034900013B10CB1012000E0002030BDCA4302820C
:1034A0007047000010B50446FB48844209D1012151
:1034B0008803FEF729FE00214FF48040FEF724FE2A
:1034C00032E0F648844209D101214804FEF729FE82
:1034D00000214FF40030FEF724FE25E0F04884423E
:1034E00009D101218804FEF71CFE00214FF4802041
:1034F000FEF717FE18E0EB48844209D10121C80409
:10350000FEF70FFE00214FF40020FEF70AFE0BE04D
:10351000E548844208D101210805FEF702FE00219A
:103520004FF48010FEF7FDFD10BD2DE9F04786B089
:1035300005460E460024A24600BFA1460027B089DA
:1035400000B100BF2F462C8A4CF6FF700440F08873
:1035500004432C82AC894EF6F3100440B0883189C4
:103560000843718908430443AC81AC8A4FF6FF409D
:103570000440B0890443AC8201A8FEF73EFDC64872
:10358000874202D1DDF810A001E0DDF80CA0A88987
:1035900010F4004F08D00AEBCA0000EB0A103168A3
:1035A0004900B0FBF1F807E00AEBCA0000EB0A1093
:1035B00031688900B0FBF1F86420B8FBF0F0040139
:1035C0002009642101FB1089A88910F4004F08D05C
:1035D000322000EBC900B0FBF1F000F0070004431B
:1035E00008E0322000EB09106421B0FBF1F000F09C
:1035F0000F0004432C8106B0BDE8F0874FF416514C
:10360000016000218180C18001810C214181002164
:103610008181704710B502460020108A4FF2FF03E7
:1036200018400B884C8823438C882343CC88234341
:103630001843108210BD0021018041808180C1802B
:10364000704721B1828942F40052828104E082896C
:103650004DF6FF731A4082817047F0B5034600248F
:10366000002600250020A1F510676A3F00D100BFA9
:103670001846C1F3421401F01F06012707FA06F5A8
:10368000012C01D10C3004E0022C01D1103000E0FB
:1036900014301AB107682F43076002E00768AF4390
:1036A0000760F0BD1AB1838A0B43838202E0838AEC
:1036B0008B4383827047028A4FF6F0731A4002826E
:1036C000028A0A430282704782894FF2FF731A40CE
:1036D000828182890A438281704721B1828942F0C6
:1036E0000202828104E082894FF6FD731A408281D2
:1036F0007047028A4FF6DF731A400282028A0A4339
:103700000282704721B1028A42F48042028204E0C0
:10371000028A4BF6FF731A4002827047C1F3080217
:103720008280704701468888C0F30800704781890D
:1037300041F0010181817047028BD2B20283028B7A
:1037400042EA012202837047028B02F47F42028325
:10375000028B0A430283704721B1828A42F0200221
:10376000828204E0828A4FF6DF731A4082827047B9
:1037700021B1828A42F01002828204E0828A4FF6EE
:10378000EF731A408282704721B1828A42F00802A8
:10379000828204E0828A4FF6F7731A408282704771
:1037A00021B1828942F40042828103E08289C2F31E
:1037B0000E028281704721B1828A42F400628282C5
:1037C00004E0828A4FF2FF731A4082827047828A35
:1037D0004FF6FB731A408282828A0A4382827047C4
:1037E00021B1828A42F00202828204E0828A4FF68C
:1037F000FD731A408282704702460020B1F5007FB7
:1038000000D100BF13880B4201D0012000E000204E
:10381000704701F40072B2F5007F00D100BFCA43C7
:103820000280704770B50246002400230025002066
:10383000A1F510666A3E00D100BFC1F3421501F048
:103840001F03012606FA03F3012D02D196893340A6
:1038500006E0022D02D1168A334001E0968A3340F9
:103860000C12012606FA04F41688344013B10CB188
:10387000012000E0002070BD10B500220023A1F55A
:1038800010646A3C00D100BF0A1201249440A3B224
:10389000DC43048010BD00000038014000440040BB
:1038A00000480040004C00400050004010B501218D
:1038B000C802FEF736FC00214FF40060FEF731FC31
:1038C00010BD0021194A126822F4C0710143174A41
:1038D0001160704708B5002100911449096821F072
:1038E0007F01009100F07F01009A114300910F4A7F
:1038F0000099116008BD01200D490860704700F073
:103900007F010A4A121F1160704740F08001074A88
:10391000121F116070470548001D0068C0B2704753
:1039200000200249091D086070470000042C004077
:10393000A480054208B54FF4A060FCF703FD2520E4
:103940008DF8000002208DF801008DF802000120A2
:103950008DF803006846FCF7FAFC0D208DF8000096
:1039600002208DF8010000208DF8020001208DF862
:1039700003006846FCF7EBFC14208DF800000020E3
:103980008DF8010001208DF802008DF803006846D3
:10399000FCF7DDFC00208DF800008DF801008DF8AB
:1039A000020001208DF803006846FCF7D0FC1C20C3
:1039B0008DF8000001208DF8010000208DF8020034
:1039C00001208DF803006846FCF7C1FC1E208DF82D
:1039D000000000208DF8010002208DF80200012077
:1039E0008DF803006846FCF7B2FC0B208DF8000050
:1039F00001208DF8010002208DF8020001208DF8D1
:103A000003006846FCF7A3FC3B208DF80000012072
:103A10008DF8010003208DF8020001208DF80300CD
:103A20006846FCF794FC31208DF8000003208DF8E7
:103A3000010000208DF8020001208DF80300684687
:103A4000FCF785FC08BD70B505460C4645F255509F
:103A5000FEF7B6F92846FEF7B6F92046FEF7B6F9A6
:103A6000FEF7B7F9FEF7BAF970BD10B5FEF7B1F978
:103A700010BD70B506460C4615460121C802FEF77A
:103A800036FB2846FFF71DFF2046FFF723FF304691
:103A9000FFF73BFFFFF744FFFFF72DFF70BD10B5A9
:103AA00004462046FFF731FF10BD08B500208DF811
:103AB000000002208DF8010003208DF80200684606
:103AC000FCF745FC08BD10B57F20FFF718FFFFF796
:103AD00027FF10BD00B585B0012144F20500FEF7B7
:103AE000F9FA4FF40070ADF8100018208DF81300AB
:103AF00003208DF8120004A93D48FEF715F84FF495
:103B00008060ADF8100004208DF8130004A9384837
:103B1000FEF70AF84FF4E13000900020ADF8040001
:103B2000ADF80600ADF80800ADF80C000C20ADF8BB
:103B30000A0069462F48FFF7F8FC01212D48FFF7DE
:103B400080FD05B000BD704770B504460D46E1B27A
:103B50002848FFF7E3FD00BF40212648FFF74CFE51
:103B60000028F9D0204670BD10B5044600BF2021C2
:103B70002048FFF741FE0028F9D01E48FFF7D2FD8C
:103B800010BD70B505460E46002400BF0BE0295D50
:103B90001848FFF7C3FD00BF80211648FFF72CFE31
:103BA0000028F9D0641CB442F1DB70BD10B5124896
:103BB0000078FF2811DA40F225511048FFF732FE55
:103BC00058B10E48FFF7AEFD0D490B4A12788854E4
:103BD00009480078401C0849087010BD0146064895
:103BE0000078087006487047002003490870704745
:103BF000000801400038014031000020004400402E
:103C00000802002001B502E00098401E00900098D4
:103C10000028F9D108BD00B587B001212820FEF7A2
:103C200059FA01218803FEF762FA4FF46040ADF8BB
:103C3000040001208DF8060018208DF8070001A966
:103C4000F448FDF771FF4FF4C060ADF804000120A7
:103C50008DF8060010208DF8070001A9EE48FDF749
:103C600063FF4FF48050ADF8040001208DF806008A
:103C700048208DF8070001A9E648FDF755FF4FF4ED
:103C80000071E548FDF7FBFF0020ADF808004FF498
:103C90008270ADF80A000020ADF80C00ADF80E00FF
:103CA000ADF810004FF40070ADF812001020ADF820
:103CB00014000020ADF816000720ADF8180002A986
:103CC000D648FEF781FB0121D448FEF722FC07B05D
:103CD00000BD10B5044600BF0221D048FEF79DFC90
:103CE0000028F9D02146CD48FEF744FC00BF012151
:103CF000CA48FEF792FC0028F9D0C848FEF73CFC01
:103D0000C0B210BD70B505460C464FF48061C24884
:103D1000FDF7B7FF4FF40071BF48FDF7B2FF28462B
:103D2000FFF7D7FF06462046FFF7D3FF4FF4007199
:103D3000B948FDF7A4FF304670BD70B504464FF496
:103D40008061B548FDF79DFF4FF40071B248FDF763
:103D500098FF2046FFF7BDFFFF20FFF7BAFF05469B
:103D60004FF40071AC48FDF78AFF284670BD2DE97D
:103D7000F04107460D4616464FF48061A648FDF710
:103D800080FF4FF40071A448FDF77BFF3846FFF732
:103D9000A0FF8046002405E0FF20FFF79AFF28558A
:103DA000601CC4B2B442F7DB4FF400719A48FDF7CF
:103DB00066FF4046BDE8F0812DE9F04107460C461C
:103DC00015464FF480619448FDF75BFF4FF4007196
:103DD0009148FDF756FF3846FFF77BFF80460026E7
:103DE00005E014F8010BFFF774FF701CC6B2AE4279
:103DF000F7DB4FF400718848FDF741FF4046BDE80E
:103E0000F08110B54FF480618348FDF73AFF052239
:103E100083492A20FFF7D0FF01212120FFF772FFFD
:103E200001212220FFF76EFF05212520FFF76AFF01
:103E300020213120FFF766FF0F212620FFF762FFC8
:103E40000F212020FFF75EFF4FF480617248FDF7DD
:103E500016FF10BD10B54FF480616F48FDF711FFDC
:103E6000052270493020FFF7A7FF05226C492A2060
:103E7000FFF7A2FF01212120FFF744FF01212220AB
:103E8000FFF740FF1A212420FFF73CFF05212520E2
:103E9000FFF738FF0F212620FFF734FF0E212020E7
:103EA000FFF730FF4FF480615B48FDF7E8FE4FF607
:103EB000FF70FFF7A7FE10BD1FB55BA103C9CDE9D9
:103EC0000201052202A93020FFF776FF052269468C
:103ED0001020FFF74CFF002406E01DF80400C22864
:103EE00000D003E0601CC4B2052CF6DB00BF052C3B
:103EF00002D1012004B010BD0020FBE770B50546DB
:103F000000264FF480614448FDF7BBFE202229467D
:103F1000A020FFF751FF4FF480613F48FDF7AFFE4F
:103F200005E0761CA6F57F40FF3800D170BD4FF448
:103F300080513848FDF789FE0028F2D10720FFF7AD
:103F4000FCFE044621462720FFF7DCFEFF21E1208E
:103F5000FFF7D8FE14F0100F01D01020E6E714F0A0
:103F6000200F01D02020E1E70020DFE770B50546F3
:103F70004FF480612848FDF782FE00BF4FF4805166
:103F80002448FDF762FE0028F8D14FF480612248F2
:103F9000FDF777FE0720FFF7D0FE044621462720D5
:103FA000FFF7B0FE14F0400F0AD02022294661200E
:103FB000FFF7DDFEFF21E220FFF7A4FE402070BDE9
:103FC0000020FCE7F0B589B006460F460024002526
:103FD00014E0305D01A94855681CC5B2202D0BD1F5
:103FE000002501A8FFF78AFF40F6FF70FFF70AFEE1
:103FF000202101A80BF0C8FB601CC4B2BC42E8DB66
:1040000001A8FFF77BFF40F6FF70FFF7FBFD09B04B
:10401000F0BD0000000C01400014014000380040D9
:10402000400000203B000020C2C2C2C2C20000000B
:1040300030B52A4800684FF47A72B0FBF2F1B1F162
:10404000807F01D301201DE021F07F40401E4FF012
:10405000E022506150170F22002807DA13071D0EC7
:104060001F4B00F00F04241F1D5503E013071C0E07
:104070001C4B1C5400BF00204FF0E0229061072031
:104080001061002008B100BFFEE74FF0E02000699A
:1040900020F001004FF0E021086130BD01B5124968
:1040A000009808604FF0E020006940F001004FF0F8
:1040B000E021086104E00C480068401E0A490860DD
:1040C000094800680028F6D108BD0748006820B1FB
:1040D00005480068401E0449086070470000002041
:1040E00018ED00E000E400E05400002000B585B0C9
:1040F00001211520FDF7EEFFF020ADF810000020A3
:104100008DF8130003208DF8120004A96148FDF713
:104110000BFD3F20ADF8100000208DF813000320A8
:104120008DF8120004A95C48FDF7FEFC012148024D
:10413000FDF7D0FF4FF40040FDF733FF0020009063
:1041400001208DF804008DF805004FF460200290E6
:10415000002003900A208DF8100069464F48FCF7B4
:1041600086F90523012204214C48FCF718FA05239F
:10417000022219464948FCF712FA052303220621B8
:104180004648FCF70CFA0523042207214348FCF7B4
:1041900006FA05231A460A214048FCF700FA0523CF
:1041A00006220B213D48FCF7FAF9052307220C21D2
:1041B0003A48FCF7F4F9052308220D213748FCF7AB
:1041C000EEF9052309220E213448FCF7E8F905230E
:1041D0000A220F213148FCF7E2F901212F48FCF7B0
:1041E0007DF901212D48FCF76EF92C48FCF78DF97B
:1041F00000BF2A48FCF78EF90028FAD12748FCF7BF
:1042000093F900BF2548FCF794F90028FAD1012161
:104210002248FCF798F905B000BD00B58BB001212C
:104220000846FDF74AFF1E48FDF718F81B484C30BA
:1042300000901C4801900020029014200390002060
:104240000490802005904000069080000790202078
:1042500008900002099000200A9069461048FDF776
:104260009FF801210E48FDF7C6F80220FDF7F1F88E
:10427000012202210A48FDF7CAF80BB000BD10B5B3
:10428000FFF7CBFFFFF732FF10BD10B50220FDF79F
:10429000FEF810BD0008014000100140002401405C
:1042A000080002400803002000B589B0012108463B
:1042B000FDF71DFF01210520FDF70CFF0F20ADF8D4
:1042C000200018208DF8230003208DF8220008A973
:1042D0003A48FDF729FC40F2E730ADF8180000201D
:1042E000ADF81400ADF81A00ADF8160005A94FF0AE
:1042F0008040FEF79DFA6020ADF804000120ADF883
:1043000006002F480088ADF80A000020ADF80C0028
:1043100001A94FF08040FEF7C8FA0821C806FEF751
:1043200013FF6020ADF804000120ADF80600254819
:104330000088ADF80A000020ADF80C0001A94FF08C
:104340008040FEF7F4FA0821C806FEF706FF602059
:10435000ADF804000120ADF806001B480088ADF858
:104360000A000020ADF80C0001A94FF08040FEF7D4
:104370002BFB0821C806FEF7FDFE6020ADF8040007
:104380000120ADF8060011480088ADF80A000020B1
:10439000ADF80C0001A94FF08040FEF760FB08214A
:1043A000C806FEF7F0FE01218807FEF79DFE0121F9
:1043B0008807FEF799FD09B000BD00000008014024
:1043C00062000020640000206600002068000020D9
:1043D00030B587B005460C4601210420FDF787FE65
:1043E00001210820FDF776FE4FF47070ADF818003B
:1043F00048208DF81B0003208DF81A0006A9EE480E
:10440000FDF792FB4021EC48FDF739FC8021EA489A
:10441000FDF735FC4FF48071E748FDF730FC4FF4B1
:104420000071E548FDF72BFCADF81050ADF80C40DD
:104430000020ADF81200ADF80E0003A9DF48FEF72A
:10444000F7F90020ADF800000220ADF802000120CD
:10445000ADF804000020ADF806000820ADF8080013
:104460006946D648FEF777FC0420ADF8000002202C
:10447000ADF802000120ADF804000020ADF8060000
:104480000820ADF808006946CC48FEF764FC082017
:10449000ADF800000220ADF802000120ADF80400E4
:1044A0000020ADF806000820ADF808006946C348B2
:1044B000FEF751FC0C20ADF800000220ADF8020020
:1044C0000120ADF804000020ADF806000820ADF88A
:1044D00008006946B948FEF73EFC01221F21B74893
:1044E000FEF71DFD0121B548FEF7FEFC07B030BD0B
:1044F000B24910310888B249097811F0800F51D1C2
:1045000010F0010F1AD0AE49097811F0400F15D004
:10451000AB49097801F03F013F290AD1A849097840
:1045200041F08001A64A11704FF6FF71A54A118033
:1045300004E0A3490978491CA14A117010F0020F48
:1045400030D09F49097811F0400F13D09C49097869
:1045500041F080019A4A1170984934310988994A8A
:10456000118096492031098821F00201934A2032B6
:10457000118017E00021924A1170924A11809049EF
:10458000097841F040018E4A11708C493431098814
:104590008D4A118089492031098841F00201874AFA
:1045A000203211808949097811F0800F51D110F023
:1045B000010F1AD08549097811F0400F15D08349B1
:1045C000097801F03F013F290AD18049097841F07B
:1045D00080017E4A11704FF6FF717D4A118004E020
:1045E0007A490978491C794A117010F0040F30D0CB
:1045F0007649097811F0400F13D07449097841F0D9
:104600008001724A11706D4938310988704A1180F1
:104610006A492031098821F02001684A203211803E
:1046200017E00021694A1170694A118067490978C9
:1046300041F04001654A1170604938310988654A86
:1046400011805E492031098841F020015B4A203207
:1046500011806149097811F0800F51D110F0010FDC
:104660001AD05D49097811F0400F15D05A490978E0
:1046700001F03F013F290AD15749097841F08001F3
:10468000554A11704FF6FF71544A118004E05249A7
:104690000978491C504A117010F0080F30D04E496B
:1046A000097811F0400F13D04B49097841F080018F
:1046B000494A117041493C310988484A11803F49B3
:1046C0002031098821F400713C4A2032118017E022
:1046D0000021414A1170414A11803F49097841F057
:1046E00040013D4A117035493C3109883C4A1180EE
:1046F00032492031098841F40071304A203211805A
:104700003849097811F0800F51D110F0010F1AD0FB
:104710003449097811F0400F15D03249097801F079
:104720003F013F290AD12F49097841F080012D4AE4
:1047300011704FF6FF712C4A118004E02949097865
:10474000491C284A117010F0100F30D02549097803
:1047500011F0400F13D02349097841F08001214A1C
:1047600011701649403109881F4A118013492031C0
:10477000098821F40051114A2032118017E00021EC
:10478000184A1170184A11801649097841F0400101
:10479000144A1170094940310988144A11800749A7
:1047A0002031098841F40051044A2032118000214F
:1047B000024A103211807047000C0140000800408E
:1047C000730000208000002078000020740000208A
:1047D000820000207A000020750000208400002064
:1047E0007C00002076000020860000207E00002053
:1047F00000B589B001210420FDF76CFC01214806B9
:10480000FDF775FC4FF40060ADF8040003208DF84F
:10481000060004208DF8070001A95248FDF784F92D
:104820004FF48050ADF8040018208DF8070001A95E
:104830004C48FDF779F94C48FCF71AF806A8FCF744
:104840003BF900208DF81E0001208DF81F0000208C
:104850008DF820008DF821008DF8220001208DF8C0
:10486000230000208DF81A008DF81B0002208DF81F
:104870001C0001208DF81D000620ADF8180006A9C7
:104880003948FCF70EF810B938A00BF047FF0020AC
:104890008DF812008DF8130001208DF8140000200F
:1048A000ADF80800ADF80A00ADF80C00ADF80E0048
:1048B000ADF8100001208DF81500012202212A48D0
:1048C000FCF778FB02A8FCF776F809B000BD10B53C
:1048D00086B0002401AA00212348FCF750FA294998
:1048E0000198086008460068E82829D126E00DF103
:1048F0000F00005D822811D10DF10F00611C405C9A
:1049000081280BD10DF10F00A11C405C802805D13E
:1049100000201D49087001201C4908701B480078C0
:10492000012809D10DF10F010A5D17490878411CD2
:10493000154B197016490A54601CC4B2082CD6DBFA
:1049400011480078B02807D100200F4908700F499E
:10495000087001200F49087002210348FCF72BFC66
:1049600006B010BD000801400064004043414EC441
:10497000A3BFE9B3F5CABCBBAFCAA7B0DC210D0A1F
:104980000000000094000020A1000020A2000020F0
:1049900030070020C70000200021FF2206E001E0D0
:1049A000531EDAB2002AFBDC4B1CD9B28142F6DB83
:1049B000704708B50820ADF8000010208DF80300FE
:1049C00003208DF802006946FE48FDF7ADF808BDEA
:1049D00070B50446FFF7EDFF0421FA48FDF751F9E1
:1049E00000251FE00520FFF7D7FF14F0010F04D0CA
:1049F0000821F448FDF743F903E00821F148FDF7E9
:104A000040F90520FFF7C8FF0421EE48FDF737F90C
:104A10000520FFF7C1FF0421EA48FDF732F96410D1
:104A2000681CC5B2082DDDDB70BD70B505460C46AF
:104A30001021E448FDF725F90520FFF7ADFF04211B
:104A4000E048FDF71EF90520FFF7A6FF1021DD481D
:104A5000FDF715F90520FFF79FFF2846FFF7B8FF80
:104A60002046FFF7B5FF0520FFF796FF0421D54844
:104A7000FDF705F90520FFF78FFF1021D148FDF75D
:104A800000F970BD08B50820ADF8000048208DF889
:104A900003006946CB48FDF747F808BD70B5FFF73E
:104AA000F1FF00240421C748FDF7EBF80520FFF7CC
:104AB00073FF002517E064100821C248FDF7C5F810
:104AC00008B144F080040520FFF766FF0421BD48CB
:104AD000FDF7D5F80520FFF75FFF0421B948FDF782
:104AE000D0F8681CC5B2082DE5DB2046E11704EBC1
:104AF0001171C1F30716E11704EB11710911A4EB51
:104B00000111CCB206EB860004EB4000C4B2204693
:104B100070BD70B504461021AA48FDF7B2F8052013
:104B2000FFF73AFF0421A748FDF7ABF80520FFF790
:104B300033FF1021A348FDF7A2F80520FFF72CFF53
:104B40002046FFF745FFFFF7A9FF05460520FFF7C1
:104B500023FF04219B48FDF792F80520FFF71CFF77
:104B600010219848FDF78DF8284670BD08B5012141
:104B70004020FDF7AFFA1C20ADF8000010208DF8A2
:104B8000030003208DF8020069468E48FCF7CCFF35
:104B900000218E20FFF749FF0A20FFF7FDFE91203C
:104BA000FFF7B7FFA62809D00A20FFF7F5FEA621D8
:104BB0009020FFF73AFF84A00BF0B0FD0A20FFF72A
:104BC000EBFE80218E20FFF730FF08BD10B50446B4
:104BD00000218E20FFF729FFA1798C20FFF725FF08
:104BE00061798820FFF721FF21798620FFF71DFFDB
:104BF000E1788A20FFF719FFA1788420FFF715FFDD
:104C000061788220FFF711FF21788020FFF70DFFE8
:104C100080218E20FFF709FF10BD70B504462546A0
:104C20002846FFF776FF0646304670BD70B505464C
:104C3000002410216348FDF724F80520FFF7ACFE9F
:104C400004216048FDF71DF80520FFF7A5FE10219F
:104C50005C48FDF714F80520FFF79EFEBF20FFF724
:104C6000B7FE00BF03E0FFF719FF2855641C072CAF
:104C7000F9DB0520FFF790FE04215248FCF7FFFF07
:104C80000520FFF789FE10214E48FCF7FAFF70BDA2
:104C900000B585B003A8FFF7C9FF9DF80C009DF88B
:104CA0000D109DF80E20CDE9002102909DF80F30E7
:104CB0009DF810209DF8121045A00BF02FFD05B0B7
:104CC00000BD1CB504466846FFF7B0FF9DF806001E
:104CD000A0719DF8040060719DF8030020719DF89B
:104CE0000200A0709DF8010060709DF80000207027
:104CF0001CBD32213D4A11703021517081790A2248
:104D000091FBF2F13031394A917081790A2291FB9D
:104D1000F2F302FB13113031344AD1702D2111719D
:104D200041790A2291FBF2F13031304A51714179D7
:104D30000A2291FBF2F302FB131130312B4A9171DD
:104D40002D21D17101790A2291FBF2F13031274AEC
:104D5000117201790A2291FBF2F302FB1311303137
:104D6000224A51722021917281780A2291FBF2F13C
:104D700030311E4AD17281780A2291FBF2F302FB94
:104D800013113031194A11733A21517341780A22B3
:104D900091FBF2F13031154A917341780A2291FB6F
:104DA000F2F302FB13113031104AD1733A2111741E
:104DB00001780A2291FBF2F130310C4A51740178EA
:104DC0000A2215E0001801403F3F0D0A00000000D4
:104DD00074696D653A25642D25642D25642025644C
:104DE0003A25643A25640D0A000000001C030020E7
:104DF00091FBF2F302FB13113031024A917400214E
:104E0000D17470471C0300200146088870472DE9C3
:104E1000F04105460E461746002407E036F8141008
:104E20002846FCF7AAFCAD1C601C84B2BC42F5DB32
:104E3000BDE8F08130B503460C461546002207E078
:104E40001846FFF7E1FF24F812009B1C501C82B2A9
:104E5000AA42F5DB30BD2DE9F05F80468A46174651
:104E6000B8F1006F02D33948804504D338A00BF065
:104E700055FCBDE8F09FFCF738FBA8F1006B4FEA4A
:104E80009B25CBF34809C9F50074A74200DC3C46DA
:104E90004DE04FF0006101EB85208A143049FFF7A7
:104EA000C9FF00260BE009EB06002D4931F8100080
:104EB000A0F57F41FF3900D003E0701C86B2A64206
:104EC000F1DB00BFA6421BDA4FF0006101EB852049
:104ED000FCF750FB002608E03AF8160006EB090143
:104EE0001F4A22F81100701C86B2A642F4DB4FF074
:104EF000006101EB85208A141949FFF788FF04E05F
:104F0000224651464046FFF782FFA74200D10FE0FC
:104F10006D1C4FF000090AEB440AA044381B87B20D
:104F2000B7F5007F02DD4FF4007400E03C46B0E7C7
:104F300000BFFCF7E6FA00BF9BE713B50446012269
:104F400001A92046FFF787FF1CBD000000000208F2
:104F5000B7C7B7A8B5D8D6B7A3A10D0A00000000FF
:104F60003003002010B5F64800684FF4FA71B0FB2A
:104F7000F1F201FB120000281CD1F248808820B118
:104F8000F0488188F0A00BF0C9FBEE48807810B1A2
:104F9000F1A00BF0C3FBEB48407810B1F2A00BF08E
:104FA000BDFBE848007810B1F3A00BF0B7FBF6A00A
:104FB0000BF0B4FB10BDE2480068704710B5FA482A
:104FC000007801286FD10020F7490870F748007871
:104FD000822868D1F5484078812864D1F3488078E8
:104FE000802860D100220221F148FBF7E3FFEF485F
:104FF0004079EE49097940EA0120EE490880EB4802
:10500000C07BEA49897B40EA0120EB490880E748F8
:10501000C079E649897940EA0120E8490880E348F7
:10502000407BE249097B40EA0120E5490880DF48EE
:1050300090F83100DD4991F8301040EA0120E14953
:105040000880DA4890F83500D84991F8341040EAE1
:105050000120DD490880D54890F83700D34991F800
:10506000361040EA0120D9490880D04890F839002C
:10507000CE4991F8381040EA0120D5490880CB4844
:1050800090F83B00C94991F83A1040EA0120D14913
:1050900008800020D0490870D04908700122022100
:1050A000C348FBF787FF10BD2DE9F04F89B0A44836
:1050B00000680521B0FBF1F201FB120000287DD150
:1050C000C748C849C84BC94ACDE90010C849C948B2
:1050D00002F0A2FAC348008810F4807F6ED0C34962
:1050E00008680AF015FE04464FF09D410AF048FC9E
:1050F000C1490860BD4948680AF00AFE04464FF0FD
:105100009D410AF03DFCBD490860B84988680AF035
:10511000FFFD04464FF09D410AF032FCB84908609B
:10512000B249C8680AF0F4FD04464FF09D410AF008
:1051300027FCB4490860B04801684FF080400AF08D
:10514000E9FB0690AE48016806980AF0E3FB824648
:10515000AA4801684FF040400AF0DCFB0690A948DD
:10516000016806980AF0D6FB834651460AF07AFB9E
:1051700007900AF038FE06460CF010F880464FF013
:105180006632A14B0AF0E3FC04460AF053FE9F4945
:1051900008609B4801684FF080400AF0BBFB039019
:1051A0009748016803980AF0B5FB82469348016866
:1051B0004FF040400AF0AEFB039000E095E08F48CE
:1051C000016803980AF0A6FB834651460AF09CFB4F
:1051D00081464FF07E510AF045FB04460AF003FE7B
:1051E000CDE90401844801684FF080400AF092FB49
:1051F00083468248016858460AF08CFB8146804805
:1052000001684FF080400AF085FB83467D480168C5
:1052100058460AF07FFB824649460AF023FB0446C3
:105220000AF0E1FD0746DDE904230CF007FA4FF030
:105230006632754BCDE906010AF089FC05460AF095
:10524000F9FD734908606F48016800680AF062FB65
:1052500003906B48016800680AF05CFB02906748A5
:10526000016800680AF056FB8346634801680068DD
:105270000AF050FB594601900AF0F4FA824602996E
:105280000AF042FB814603990AF03EFB04460AF00D
:10529000AAFDCDE904015B480168574800680AF09F
:1052A00039FB824656480168544800680AF032FBD0
:1052B000834651460AF0D6FA81464FF080410AF003
:1052C00029FB04460AF08FFD0746DDE904230CF0B4
:1052D000B5F94FF066324C4BCDE906010AF037FCC8
:1052E00005460AF0A7FD4B49086009B0BDE8F08FFC
:1052F00010B509F0ADF810BDFEF71CFB00F02DFB5A
:1053000045A00BF00BFA0DE0FFF7F2FF01F088F972
:10531000FFF7CAFEFFF752FEFFF74DFEFFF722FE32
:1053200001F02BF9F0E701460A2091FBF0F200FBB7
:10533000121291FBF0F002EB0010C0B270470000B7
:10534000EC000020A4000020D4CBD0D0CAB1BCE433
:10535000A3BA25640D0A0000B5D8B5E3D0C5CFA225
:10536000C8B1CAA70D0A0000CAB1BCE4D0C5CFA21B
:10537000C8B1CAA70D0A0000CFB5CDB3CDA3D6B929
:10538000B9A4D7F70D0A00000D0A2D2D2D2D2D2DB6
:105390002D2D2D2D2D2D2D2D2D2D2D2D2D2D2D2D3D
:1053A0002D2D2D2D0D0A0000C700002030070020F4
:1053B00000640040AC000020BE000020B4000020CB
:1053C000AE000020B0000020B6000020B800002091
:1053D000BA000020BC000020A1000020A200002094
:1053E0006A010020680100206C0100206408002090
:1053F000620100205C010020200100202401002027
:10540000280100202C01002066A64C4074010020D9
:10541000700100201C010020496E6974204F4B214F
:10542000200D0A0010B5C8480068B0F5FC6F07D120
:10543000C54840680A2803DCC3488068082807DBA1
:10544000C2488079102808DCC04840790A2804DC6A
:105450000020BF49487088800870BE480078012845
:105460001DDDBD49BD4800680AF000FD11D3BC49EF
:10547000BA4800680AF004FD0BD3BA49BA4800687C
:105480000AF0F4FC05D3B949B74800680AF0F8FC03
:1054900005D20020AE4988708880087002E00120A3
:1054A000AB498870AA48007850B9A948807810B9EB
:1054B000A748407820B1A6488088401CA44988802D
:1054C000A348407820B10521022001F073F903E0E0
:1054D0000221084601F06EF99D48807820B105212F
:1054E000012001F067F903E00221012001F062F9D7
:1054F0009F48006841F28831B0FBF1F201FB1200D5
:10550000D0BB02229249091D9A48FFF7A4FC8F489C
:10551000FFF7D7FB8E48807870BB8B494969C8B2CA
:10552000FFF701FF8949087087490969C8B2FFF789
:10553000FAFE864948708449C968C8B2FFF7F3FE8D
:105540008249887080498968C8B2FFF7ECFE7F49BC
:1055500008717D494968C8B2FFF7E5FE7B4948718B
:1055600079490968C8B2FFF7DEFE784988710020E2
:10557000C8700846FFF72AFB75488088B0F57A6F37
:1055800010DD734880884FF6FF7188420ADA0120E7
:105590006F4908700321022001F00CF9032101205A
:1055A00001F008F910BD2DE9F04F89B081460C4695
:1055B000372148460AF0E8F8012C04D0022C2ED0FE
:1055C000032C68D139E06C4800880AF0AAFB8346B6
:1055D0006A490AF0D5F982460AF005FC05460E46EE
:1055E000674800880AF09DFB834666490AF0C8F9BF
:1055F00082460AF0F8FB04AA63C263480188634844
:105600000088634A1288CDE900200291614803882E
:105610006148028861A148460BF0A4F83CE0684864
:10562000C08867498988CDE90010654843880288A9
:1056300064A148460BF096F82EE050496648006891
:105640000AF068F982460AF0CEFB05460E464B4941
:10565000624800680AF05EF982460AF0C4FB04AAB8
:1056600063C25F48B0F904005D49B1F902105C4AB9
:10567000B2F900205B4BB3F90430CDE90032CDE93B
:1056800002105848B0F90230B0F9002056A148463F
:105690000BF068F800E000BF00BF09B0BDE8F08F74
:1056A00010B5334800681421B0FBF1F201FB120081
:1056B000002833D15748007800282FD0564800786A
:1056C000401C55490870084601785448FFF76BFFA5
:1056D00051480078012804D002280AD0032818D1A4
:1056E0000FE037234D4A4EA15048006808F035FCC2
:1056F00013E03723494A4EA14C48006808F02DFCBE
:105700000BE03723454A4CA14848006808F025FCC7
:1057100003E000204049087000BF00BF10BD10B575
:1057200001460A46C81701EB10700011A1EB0010EA
:105730000B46CC1701EB1474241104EB840400EB2A
:105740004400C0B210BD000018080020C0000020B6
:10575000A4000020DC00002000E02B46D000002048
:105760000020324600803B45CC00002000404E45E2
:10577000EC00002000FC0108B00000200000C8423E
:10578000B400002000002041BC000020BA0000202E
:10579000B8000020B6000020AC00002025346420B2
:1057A0002534642025346420253464202534642085
:1057B00025352E31662025352E31660D0A00000074
:1057C0000803002025346420253464202534642017
:1057D0002534640D0A0000007001002074010020CF
:1057E0005C010020620100202535642025356420FD
:1057F000253564207C202535642025356420253519
:1058000064207C2025342E31662025342E31660D0F
:105810000A000000B9010020AA000020E0070020D3
:105820004D6F7465632E747874000000C40100200D
:105830004144432E747874004D5055363035302E27
:1058400074787400704723A00AF068FF00BFFEE779
:1058500000BFFEE700BFFEE700BFFEE770477047EE
:10586000704710B520480068401C1F490860084672
:105870000068084600680521B0FBF1F201FB120048
:1058800030B9012019490870194908701949087080
:105890001548006814480068134800686421B0FB8C
:1058A000F1F201FB120010B90120134908700E48F3
:1058B00000684FF47A71B0FBF1F201FB120008B9F5
:1058C000FFF7B0FD00F0CBFF10BD10B508F021FCD4
:1058D00010BD00000D0A20686172646661756C7409
:1058E000206572720D0A0000EC000020F20000201A
:1058F000F1000020F0000020F300002001464906DE
:10590000334A926942F00102314B9A61314A52683E
:1059100022F0E0622F4B5A601A4652680A435A60DE
:10592000704710B52CA00AF0F9FEFEF7C5FA044640
:10593000012C08D1FEF78EFA2BA00AF0EFFE012011
:105940003049087005E000202E4908702EA00AF0AA
:10595000E5FE33A00AF0E2FE10BD10B50120FFF70E
:10596000CDFFFEF765FBFEF7B5F8FEF741FFFFF749
:10597000FDF82C48FFF7A5F902222B492B48FFF729
:1059800059FA03F010FC03F010FBFEF744F9FEF7A0
:1059900076FCFEF789FC00F0B3FE0221012000F046
:1059A00009FF0221084600F005FF47214FF6FF706E
:1059B000FEF70EFD4FF0E020006940F001004FF0CF
:1059C000E0210861FFF7ADFF08F02DFC10BD0000DD
:1059D00000100240000001400D0AB4AEBFDAB2E28E
:1059E000CAD40D0A000000000D0A4E5246D3EB4DFA
:1059F0004355C1ACBDD3B3C9B9A6A3A10D0A0D0AC5
:105A000000000000FD0000200D0A20204E5246C17B
:105A1000ACBDD3CAA7B0DCA3A1A3A10D0A000000AE
:105A20000D0A0000C0000020A800002000FC0108B2
:105A300070B505460E46002400BF0CE0295DFE4807
:105A4000FDF76CFE00BF4021FB48FDF7D5FE0028A6
:105A5000F9D0601CC4B2B442F0DB70BD10B586B0A2
:105A6000F4200090F54800788DF80B00F448017898
:105A70008DF80C10F349F448006809F04BFF044618
:105A80000AF065F900B205909DF815108DF80D101B
:105A90009DF814108DF80E10EA49EC48006809F0E2
:105AA00039FF04460AF053F900B205909DF815102D
:105AB0008DF80F109DF814108DF81010E449E5488A
:105AC000006809F027FF04460AF05AF980B20590F1
:105AD0009DF815108DF811109DF814108DF8121006
